:020000040100F9
:1040000000008400DD400001E9400001C945800056
:10401000D7458000D9458000DB45800000000000C6
:10402000000000000000000000000000A14580002A
:10403000F340000100000000F5400001FD410001D7
:10404000F740000139380600DD370600F74000016F
:10405000F7400001F7400001F7400001F740000180
:10406000F7400001F7400001F7400001F740000170
:10407000F7400001F7400001F7400001F740000160
:10408000F7400001F7400001F7400001F740000150
:10409000F7400001F7400001F7400001F740000140
:1040A000F7400001D1370600DD458000F7400001F0
:1040B000F7400001F7400001F7400001F740000120
:1040C000F7400001F7400001DFF80CD000F0E0FC01
:1040D000004800470B4B0001000084000648804761
:1040E0000648804706480047FEE7FEE7FEE7FEE792
:1040F000FEE7FEE7FEE7FEE711FD0001DD4C0001F3
:104100007DD400012DE9F05F0546002092469B46D4
:1041100088460646814640241BE0284641464746DD
:10412000224600F0BAFB53465A46C01A914110D3BA
:1041300011461846224600F0A1FB2D1A67EB010834
:104140004F4622460120002100F098FB17EB0009A2
:104150004E41201EA4F10104DFDC484631462A46C8
:104160004346BDE8F09F00000649074A08685043EF
:1041700043F2390210440860400870470149086062
:1041800070470000844580006D4EC64140EA01033F
:104190009B0703D009E008C9121F08C0042AFAD2FD
:1041A00003E011F8013B00F8013B521EF9D27047C1
:1041B000D2B201E000F8012B491EFBD27047002269
:1041C000F6E710B513460A4604461946FFF7F0FF16
:1041D000204610BD421C10F8011B0029FBD1801A9B
:1041E000704730B504460020034600E05B1C934254
:1041F00003D2E05CCD5C401BF8D030BD7047704707
:104200005858524701000000000000000040000123
:104210000040000159D8524901010000000000008F
:10422000000000000000000000000000000000008E
:10423000000000000000000000000000000000007E
:1042400043F6B51CC3F2000C6047F0B480EA0102EB
:10425000D40F4200B2EB410F02D20246084611468B
:104260004A0042D0C30DDDB2C1F3C752AD1A202DB2
:1042700035DAC1F3160141F4000204B15242C5F12E
:10428000200602FA06F12A411044B3EBD05F23D096
:10429000C4B1012DA0EBC35009DCF0BC4FF00042CB
:1042A00002EAC352DBB200F5000000F021BB40007F
:1042B00000F1807000EBC350A0F1807040EAD17033
:1042C000490009E0490841EAC071A0EBC35000F57C
:1042D0000000400800EBC350F0BC00F000BB61429E
:1042E000012202EB4101001BF6E7F0BC704781F0B0
:1042F0000041AAE780F00040A7E780EA010210B57C
:1043000002F00043400022D04A001FD0010E01EB12
:104310001261C0F35600C2F3560240F4000042F4AA
:104320000002A0FB022000047F39140400D0401CCE
:1043300050EA124001D44000491EC2B20C0604EB00
:10434000D010401C4008802A02D003E0002010BD9D
:1043500020F00100002900DA0020184310BD30B41D
:1043600080EA010202F0004530F0004221F00040F6
:1043700013D090B1C30DD40DC2F31601C0F31600D3
:10438000E41A41F4000140F400027D34914201D36B
:10439000641C00E04900002C02DA30BC00207047A9
:1043A0004FF400000023914201D3891A03434008CF
:1043B0004FEA4101F7D151B1914202D14FF0004192
:1043C00005E002D24FF0010101E06FF0010103EBC3
:1043D000C450284430BC00F082BA2DE9FE4F80461C
:1043E00081EA0300C00F0C46009021F0004123F049
:1043F0000045B8EB0200A94105D24046214690464F
:104400001C460B46024623F00040104347D0270DC0
:10441000C7F30A00C3F30A510290401A01904028E2
:104420006BDAC3F3130040F4801B0098924620B16E
:104430000023D2EB030A63EB0B0B01985946C0F142
:104440004002504600F01AFA06460D4650465946BC
:10445000019A00F032FA10EB08006141002487EA6B
:10446000115284EAE7731A4340D0009A62B3019A6A
:10447000012A4FEA075215DC001B61EB02014FF0E5
:10448000004202EA0752CDE90042001C41F58011CA
:1044900032462B4600F069FA03B0BDE8F08F404683
:1044A0002146F9E7001B61EB0201001C41F5801376
:1044B00000185B412018A2F5001747EB030140EA02
:1044C000D570B6196D4111E06D084FEA360645EA20
:1044D000C0754FEA0752001B61EB0201001C41F559
:1044E000801149084FEA30000019514132462B46ED
:1044F00003B0BDE8F04F00F029BA00980122400057
:104500000023D0EB020263EBE073009821464FEAF0
:10451000E074B8EB000061EB0401E9E783F00043CD
:104520005BE781F0004158E72DE9FE4F81EA030483
:1045300004F0004421F0004100944FF0000B23F000
:10454000004350EA01045ED052EA03045BD0C3F397
:104550000A54C1F30A552C44A4F2F3340194A0FB8D
:104560000254C1F3130141F48011C3F3130343F464
:10457000801301FB024400FB034E840A970A44EABD
:10458000815447EA8357A4FB076802958D0A05FB0F
:1045900007854FEA932C04FB0C542705029D4FEA34
:1045A000065847EA1637B5EB08056EEB070C870E81
:1045B000920E47EA811742EA8312A7FB0201B6EB8B
:1045C0000B0164EB00042B0D43EA0C335E1844EB43
:1045D0001C50DA465146E7FB0201C5F313044FEACB
:1045E0000B3343EA14534FEA0432019C43EA0603B7
:1045F000A4F10C040294009CCDE900B400F0B5F9DC
:1046000003B0BDE8F08F00200146F9E72DE9F04D39
:1046100081EA030404F0004B21F0004514464FF0FA
:10462000000A23F0004150EA050220D054EA0102BA
:104630001DD0C5F30A570246C5F31303C1F3130097
:10464000C1F30A5640F4801543F48013A7EB060823
:10465000101BD64608F2FD3873EB050002D308F1B3
:10466000010801E092185B41B8F1000F03DA002065
:104670000146BDE8F08D00204FF4801106468446C7
:104680000EE0171B73EB050705D3121B63EB050345
:1046900006434CEA010C49084FEA300092185B418E
:1046A00050EA0107EDD152EA030012D082EA040079
:1046B00083EA0501084305D0101BAB4106D2012255
:1046C000002306E000224FF0004302E06FF00102F9
:1046D00053101AEB06004CEB085110EB0A0041EBAB
:1046E0000B01BDE8F04D00F031B9962300221146D0
:1046F00000F0FEB80EB540F2334102910021CDE941
:1047000000110A460B4600F030F903B000BD0EB5AB
:1047100040F2334202920022CDE90022134600F01B
:1047200024F903B000BD20F00040C10DC0F3160015
:1047300040F400007F2901DA00207047962903DC4D
:10474000C1F19601C840704796398840704770B5EE
:10475000C1F30A5201F000450024C1F3130140F2F5
:10476000FF3341F480119A4201DA002070BD40F21B
:1047700033439A42A2F2334203DC524200F08DF8F6
:1047800000E090402C43F1D0404270BDC1F30A528A
:1047900010B5C1F3130140F2FF3341F480119A4286
:1047A00001DA002010BD40F233439A42A2F23342B4
:1047B00003DC524200F071F810BD904010BDC1F30F
:1047C0000A52C1F3130140F2FF3341F480119A42BF
:1047D00002DA00200146704740F233439A42A2F2C7
:1047E000334202DC524200F058B800F047B80000F3
:1047F00030B5041E71F1000404DB4FF00044404268
:1048000064EB0101141E73F1000405DB1C464FF03C
:104810000043524263EB04038B4208BF824230BD27
:1048200030B5041E71F1000404DB4FF00044404237
:1048300064EB0101141E73F1000405DB1C464FF00C
:104840000043524263EB0403994208BF904230BDDB
:1048500030B50B46014600202022012409E021FA50
:1048600002F59D4205D303FA02F5491B04FA02F54D
:104870002844151EA2F10102F1DC30BD202A04DB20
:10488000203A00FA02F1002070479140C2F1200363
:1048900020FA03F3194390407047202A04DB203AA2
:1048A00021FA02F00021704721FA02F3D040C2F150
:1048B00020029140084319467047202A06DBCB1797
:1048C000203A41FA02F043EAE07306E041FA02F3CB
:1048D000D040C2F120029140084319467047002998
:1048E000A8BF7047401C490008BF20F00100704776
:1048F00010B4B0FA80FC00FA0CF050EA010404BFD6
:1049000010BC704749B1CCF1200421FA04F411FA2B
:104910000CF118BF012121430843A3EB0C01CB1D6F
:104920004FEA00614FEA102042BF002010BC7047E0
:1049300000EBC35010440029A4BF10BC7047401CBA
:10494000490008BF20F0010010BC704710B5141ECC
:1049500073F1000408DA401C41F1000192185B4138
:104960001A4301D120F0010010BD2DE9F04D92460F
:104970009B4611B1B1FA81F202E0B0FA80F2203226
:104980009046FFF77BFF04460F4640EA0A0041EAE3
:104990000B0153465A46084313D0114653EA01000F
:1049A00019D0C8F140025046FFF777FF05460E4682
:1049B000504659464246FFF761FF084305D00120A3
:1049C00004E020463946BDE8F08D0020054346EA64
:1049D000E0762C4337430A986305E40AA0EB08000D
:1049E0000022FD0A44EA47540A3002D5002001465D
:1049F000E9E7010510196941DDE908450019694138
:104A0000BDE8F04DA2E700002DE9F041054621F098
:104A100000400C46284309D0C4F30A5040F2334109
:104A2000884205DD28462146BDE8F0812846FBE79F
:104A300040F2FE31884210DC0CDB4FEA043040EAE1
:104A4000155050EA053105D0104804F000410143EB
:104A50000020E9E700200146E6E7A0F233404642A5
:104A6000C6F1400228462146FFF708FF0746884660
:104A7000284621463246FFF710FF43463A46FFF7E5
:104A800065FF3246BDE8F041FFF7F8BE0000F03F99
:104A9000064C074D06E0E06840F0010394E807008B
:104AA00098471034AC42F6D3FFF712FB641E0101A5
:104AB000B41E010170B58C1810F8015B15F00703E6
:104AC00001D110F8013B2A1106D110F8012B03E0A7
:104AD00010F8016B01F8016B5B1EF9D12B0705D4AF
:104AE0000023521E0DD401F8013BFAE710F8013BF8
:104AF000CB1A921C03E013F8015B01F8015B521E14
:104B0000F9D5A142D8D3002070BD10B50BF0AAFD95
:104B1000BDE8104008F020BC10B51E480068002811
:104B200000D080471C4900200870811E1B4801608E
:104B30001B494FF0007008601A4CD4F8C00280077F
:104B400004D4F42218A11DA003F498F62A480168A1
:104B5000D4F8C40261F31D3040F00100C4F8C4026F
:104B600003F4A1F000214FF03040C1608161C11712
:104B70004161016203F458F008484038016821F4AB
:104B8000800101601D480068002802D0BDE8104087
:104B9000004710BD602480009044800044C500A000
:104BA00080E200E000E000A0727769705F736C65DE
:104BB00065705F636F6D6D6F6E2E63004D43555F63
:104BC0005355422D3E424C455F44534C4545505F42
:104BD000434F52525F454E2026204D43555F53555B
:104BE000425F424C455F44534C4545505F434F52F2
:104BF000525F48575F454E00542480006424800073
:104C000000214FF03040C1608161C11741610162F4
:104C10000649022004220A60BFF34F8FBFF36F8F53
:104C20000860BFF34F8FBFF36F8F704780E100E0E4
:104C300004490220C1F800010860BFF34F8FBFF3A1
:104C40006F8F704780E100E00249096801F00701B9
:104C50000170704704C500A030B4062821D2124963
:104C60000A6802F00702824212D00A680F4B1A400B
:104C70000F4C22430A6000BF00BF00BF00BF0A689C
:104C80001A400C4B024333F8203042EA83420A6058
:104C90000849183951F820000749086030BC74F4FD
:104CA000A99130BC7047000004C500A0F8FFE3FFE5
:104CB00005000800441001012040800004480068FD
:104CC000044900F0070051F82000034908607047CC
:104CD00004C500A02C100101204080000448006899
:104CE00000F48070002801D10AF09CBD70470000DC
:104CF00078C500A00FB4054B10B503A9044A02986B
:104D000000F092F910BC5DF814FB0000397A000144
:104D1000C44180000FB41CB50A46521ECDE9000202
:104D200007A9054B6A46069800F07EF9009A002113
:104D300011701CBC5DF814FB575700010FB4084BF1
:104D400010B504A902AA039800F06EF9044602A95E
:104D5000002000F00BFD204610BC5DF814FB0000A5
:104D60006D5700017CB5491E1C461546CDE9000172
:104D7000044B6A462146284600F056F9009A002165
:104D800011707CBD57570001002809DB00F01F029D
:104D9000012191404009800000F1E020C0F880121C
:104DA0007047002804DB00F1E02090F80004704711
:104DB00000F00F0000F1E02090F8140D704700287B
:104DC00004DB00F1E02090F80004704700F00F00D1
:104DD00000F1E02090F8140D7047000002480068D0
:104DE000C0F30220704700000CED00E010B5002871
:104DF00021D0114B0022001F196803E0814203D823
:104E00000A4649680029F9D152B11368841A9C42B4
:104E100004D1006818441060104602E0506000E0C1
:104E2000186039B102680B1A934203D10B681A4417
:104E300002604968416010BD88458000F0B50B30C4
:104E4000154D20F007010024144A0FE003688B423F
:104E50000BD38B4205D95E1A43184768C3E9006734
:104E600000E04368136002C004E0021D10680028DF
:104E7000ECD12046002802D1286808B10020F0BDFE
:104E8000064A07481060074A121A22F00702C0E9D2
:104E9000002401202860D7E78C45800088458000E9
:104EA00004C083000000840002E008C8121F08C18B
:104EB000002AFAD17047002001E001C1121F002A28
:104EC000FBD170472DE9FF5FDDE90220010DDDF820
:104ED00038B0024318D044F61050A1F2FF314143DC
:104EE0000D140F98012820D0A5EB0B00401C5FEAA1
:104EF000000A4FF00004474EDFF81C91A0465046D0
:104F000016D5CAF1000728E00F98012443A2012812
:104F100008D0002100980F9BC0E90021C0E902439E
:104F2000BDE8FF9F6FEA0B01F4E7CBF10000DEE77D
:104F3000074612E0F80707D0224633464046494666
:104F4000FFF7F2FA80468946224633461046194654
:104F5000FFF7EAFA04460E467F10002FEAD1DDE99A
:104F60000201BAF1000F42464B4602DAFFF7DCFAC3
:104F700001E0FFF74BFB04460E460022284BFFF7EB
:104F80004FFC03D84FF0FF30014607E00022254BCD
:104F900020463146FFF721FAFFF711FC102409E003
:104FA000002C0ADB0A220023FFF7ACF8019B303209
:104FB0001A55641E50EA0102F2D1641C019AC4F130
:104FC000110314440F9A012A03D0012208430DD182
:104FD0000AE0084304D000204FF0110B0F9080E747
:104FE000A3EB0B056D1E0DE05B4504DD4FF00002E9
:104FF00005F1010504E003DA4FF00002A5F1010517
:10500000002AECD000980F99C0E90231C0E90045B0
:1050100086E70000000024400000F03F3000000060
:105020000000F0430000E03F2DE9FF4F95B09B46A4
:105030008946064600250FE2252877D10024274619
:10504000F84A0121059400E0044316F8013F203B93
:1050500001FA03F01042F7D130782A2811D06FF00E
:105060002F033078A0F13002092A16D8059A44F0AF
:10507000020402EB820203EB42021044761C05900C
:10508000EFE759F8042B0592002A03DA504244F462
:105090000054059044F00204761C30782E2816D176
:1050A00016F8010F44F004042A280DD06FF02F02E7
:1050B0003078A0F13003092B09D807EB870302EB06
:1050C0004303C718761CF3E759F8047B761C307845
:1050D0006C280FD006DC4C2817D068280DD06A2821
:1050E00014D104E0742810D07A280FD10DE044F4D4
:1050F00000140AE044F4801401E044F4401472788F
:10510000824202D104F58014761C761C3078662821
:105110000BD013DC582877D009DC002875D045283F
:10512000F6D04628F4D047281AD19DE118E063282C
:1051300035D0642879D0652812D195E1702873D0D4
:1051400008DC6728F1D069286FD06E280DD06F2851
:1051500006D1B5E073282CD0752875D0782874D086
:105160005A46179990476D1C75E1C4F30250022806
:1051700009D003280DD0D9F8001004280DD00D60F7
:1051800009F1040967E1D9F80010EA17C1E90052F2
:10519000F6E7D9F800100D80F2E70D70F0E719F886
:1051A000041B8DF8001000208DF80100EA46012054
:1051B00003E059F804AB4FF0FF3061074FF00001F6
:1051C00002D40DE008F101018846B9420FDA8045AA
:1051D000F8DB1AF808100029F4D108E008F1010101
:1051E00088468142FADB1AF808100029F6D10598A2
:1051F0005B46A0EB080721463846179A00F094FA60
:10520000284400EB080507E04DE029E10DE01AF81D
:10521000010B5A4617999047B8F10108F7D25B463F
:1052200021463846179A13E142E00A220092C4F35D
:1052300002524FF0000A022A08D059F804CB032A80
:105240004FEAEC710AD00DE029E02AE009F10701EC
:1052500021F00702F2E802C1914609E00FFA8CFC46
:105260004FEAEC71042A03D14FFA8CFC4FEAEC713F
:10527000002907DA0A460021DCF1000C61EB02018B
:105280002D2202E0220504D52B228DF804200122D4
:1052900003E0E20701D02022F7E7904659E00A2117
:1052A00002E010220DE010214FF0000A00910BE007
:1052B00010224FF0000A44F004040827009203E093
:1052C00008224FF0000A0092C4F30252022A05D0CD
:1052D00059F804CB0021032A08D009E009F107019D
:1052E00021F00702F2E802C1914605E01FFA8CFCAA
:1052F000042A01D10CF0FF0C4FF00008220728D53A
:10530000702806D0009B83F0100353EA0A0305D0EF
:105310000EE040228DF80420012208E05CEA010240
:1053200006D030228DF804208DF805000222904628
:10533000009B83F0080353EA0A030AD15CEA0102E6
:1053400001D1620705D530228DF804204FF0010805
:105350007F1E582804D034A003900EA802900DE0C0
:1053600036A0F9E753466046009AFEF7CBFE844626
:105370000398825C0298401E029002705CEA010071
:10538000F0D1029806A9081A00F1200A600702D598
:1053900024F4803400E00127574502DDA7EB0A0022
:1053A00000E0002000EB0A01009005984144401AFB
:1053B0000590E00306D45B462146179A059800F055
:1053C000B3F90544002706E001A85A46C05D1799C5
:1053D00090476D1C7F1C4745F6DBE0030CD55B4610
:1053E0002146179A059800F09FF9054404E0302003
:1053F0005A46179990476D1C0099481E0090002945
:10540000F5DC08E0029802995A460078491C02919E
:10541000179990476D1CBAF10001AAF1010AF1DC5D
:1054200065E1000009280100303132333435363768
:1054300038396162636465660000000030313233E0
:105440003435363738394142434445460000000080
:1054500000F058F90544761C307800287FF4ECAD54
:1054600019B02846BDE8F08F620700D4062709F17D
:10547000070222F0070CFCE80223E14603F0004893
:105480005FEA080C02D00FF2702C0DE05FEA045CBA
:1054900002D50FF2682C07E05FEAC47C02D00FF25D
:1054A000602C01E0AFF2700C4FF0FF3823F00043A6
:1054B000CDF850C065280CD006DC452809D0462818
:1054C0001DD047283DD13DE0662818D067287ED101
:1054D00038E00021112F01DB112000E0781CCDE91C
:1054E000000106A90EA8FFF7EDFCDDE90F010E9AF9
:1054F00003910021009207F1010A04914DE04FF061
:1055000000400097CDE9011006A90EA8FFF7DAFCCC
:10551000DDE90F0203920E9B11990022DDF80CA029
:105520000093049211B9791C00EB010AB7EB0A0051
:1055300004D4C0F1FF3007F1010A0490AAEB070080
:10554000019044E0012F00DA01270021112F01DD35
:10555000112000E03846CDE9000106A90EA8FFF7AA
:10556000B1FCDDE90F010E9A039100210491009234
:10557000BA4621070CD40399514500DA8A46BAF19C
:10558000010F05DD009AAAF10101515C302908D014
:10559000B84202DA10F1040F06DA0121CDE9011058
:1055A00015E0AAF10101E9E7002805DC04990144AE
:1055B0000491AAEB000102E0411C514500DD8A463E
:1055C0000499401A401C01904FF0004002902007BF
:1055D00004D40198504501DBCDF8048000208DF8FB
:1055E0004F0002980DF14F07B0F1004F25D02B204E
:1055F0000E9002984FF0020800280CDA4042029008
:105600002D200E9007E00A210298FFF721F9303192
:10561000029007F8011DB8F10001A8F10108F2DCC1
:1056200002980028EFD1791E0E980870307800F0AB
:10563000200040F0450007F8020D12A8C01B00F141
:1056400007081498007800B1012000EB0A010198C6
:1056500001EBE07105984144401A401E0590E003BB
:1056600006D45B462146179A059800F05DF805447C
:105670001498007818B15A46179990476D1CE003AA
:1056800024D55B462146179A059800F04DF805444D
:105690001CE00498002807DBDDE90301884203DDF4
:1056A0000098405C179901E0179930205A469047BE
:1056B000049805F10105401C04900198401E0190DA
:1056C00004D12E205A46179990476D1CBAF100015B
:1056D000AAF1010ADDDC05E017F8010B5A4617991B
:1056E00090476D1CB8F10001A8F10108F4DC5B469D
:1056F0002146179A0598ABE62D0000002B0000000C
:10570000200000002DE9F041044600251E46174602
:10571000880404D405E039462020B0476D1C641E7F
:10572000F9D52846BDE8F0812DE9F0410446002571
:105730001E469046C80301D5302700E02027880484
:1057400004D505E041463846B0476D1C641EF9D5C6
:105750002846BDE8F0814A68002A06D00A68531C32
:105760000B6010704868401E486070470A68531C00
:105770000B601070704700002DE9F05F0746894606
:1057800093464FEA5B04A2464D465F4EDFF87C81AC
:10579000EFF31080012181F31088D8F8A41221F0D2
:1057A0002001C8F8A41280F31088EFF310800121C3
:1057B00081F31088D8F8A01221F02001C8F8A012B7
:1057C00080F31088306820F08040306050483060AE
:1057D0003F20D8F8001160F30501C8F800113068C7
:1057E00020F4601040EAC7403060306820F4E020C8
:1057F00040EA07403060052F03D1306840F4004094
:105800003060062F03D1306840F48040306030684B
:1058100040F400503060306820F0605030603068F4
:1058200020F00F0040F003003060EFF31080012102
:1058300081F31088344A3832116821F0E04141F098
:105840008041116080F31088306840F08040306003
:1058500001E0D8F80000D8F80401C0F300200028C7
:10586000F7D1EFF31080012181F31088116841F026
:105870000041116080F3108834E000204FF47A7109
:105880001AE0884217D9306820F0804030603068D4
:1058900040F000403060306820F00040306005F09B
:1058A000AFFC1C480168491C016054464D46052068
:1058B00076F4A5D16CE7401CD8F80421C2F300228D
:1058C000002ADED0D8F8040100F07F01A14200D9FF
:1058D0002146002003E0D8F8002004C5401C88427F
:1058E000F9D3641A002CC8D15FEACB7008D0D8F87D
:1058F0000401C0F300200028F9D0D8F80000288067
:10590000BDE8F05F05F07CBC08C500A000E000A089
:105910000A070807784580002DE9F04107460E4642
:105920004FF000080024274D0BE004EBC40005EB0A
:105930008000801C07223946FEF753FC40B1641CEE
:10594000E4B22878A042F0D8B8F1000F18D102E0F4
:105950004FF00108F8E728780A21B0FBF1F201FBCB
:1059600012040A2801D2401C287004EBC40105EB84
:1059700081003968C0F80210B988C180B979017214
:105980002B7811A21021002002F47AF7307800075A
:105990000BD504EBC40005EB800006F14601BDE821
:1059A000F0410A301C22FEF7F1BB04EBC40005EB0A
:1059B000800006F12A01BDE8F0410A301C22FEF702
:1059C000E5BB0000240E8100523A313A6164642044
:1059D0006C746B206974656D2C206E756D203D2094
:1059E00025640A002DE9F04104460D46154F164E78
:1059F0000022134620462946FEF7FAFE0FD83068EB
:105A0000C0F34120012808D0786C401C78643068CD
:105A100020F4C06040F400703060BDE8F0810022E6
:105A20000A4B20462946FEF7FBFEF6D8306810F4F4
:105A3000C06FF2D0386C401C3864306820F4C0600D
:105A40003060EAE7FC4280000CC500A00000244062
:105A50001CB505A0AC21CDE90010084B08A20EA191
:105A6000032000F0EFF81CBD436F6E6E6563746534
:105A70006420746F20506565722E0000F1110101E1
:105A80002E2E5C5372635C757365725C7573657200
:105A90005F6170702E6300004E4F5F5441470000FD
:105AA0001CB508A0A621CDE900100E4B0EA214A132
:105AB000032000F0C7F8BDE81C401349002060F443
:105AC000DD940000446973636F6E6E656374656492
:105AD00020616E64207265737461727420616476F3
:105AE0002E000000D81101012E2E5C5372635C75EC
:105AF0007365725C757365725F6170702E63000010
:105B00004E4F5F544147000030428000002902D1CF
:105B10001146FFF79DBF7047002902D11146FFF7DC
:105B2000BFBF70471046002901D169F43392704716
:105B30003EB5022470F466D158B10FA08521CDE99D
:105B40000010114B11A21AA1022000F07BF8204690
:105B50003EBD4FF48051184803F0ACFD044617A039
:105B6000CDE9010489210091074B08A210A1022070
:105B700000F068F820463EBD666C6173682073656E
:105B80006375726974790000FF1201012E2E5C5357
:105B900072635C6D61786579655C7372635C6D617D
:105BA000786579655F626C655F636C692E63000080
:105BB0004E4F5F544147000000200001617070208B
:105BC000696D6720696E666F2065726173653A253D
:105BD00064000000002806D0002904D0024AD269DF
:105BE000002A00D0104770478095800070B50D46A0
:105BF00016460D4C00280AD00178032911D801213E
:105C0000A17601461A222046FEF7C0FA05E00020E0
:105C1000A0761A210448FEF7D2FAE5612662002038
:105C200070BD012070BD000080958000044A1044C2
:105C3000807D084201D0012070470020704700009D
:105C4000809580002DE9FE4FDDF830B00646924683
:105C5000994600240027019702975A480178B142DB
:105C600002D2807E00287DD10DF13808CDF8008069
:105C7000EFF311850220FFF7A2F8014652480068B1
:105C8000C0F30220401C012282408818C0B280F379
:105C9000118801213046FFF7C9FF38B14B484C4904
:105CA00050F82620204600F0A5F804461C21304676
:105CB000FFF7BCFF00285ED046A24549204600F011
:105CC00099F8204484B204213046FFF7AFFFF8B1C1
:105CD00052463F49204600F08DF8204484B2082106
:105CE0003046FFF7A3FF38B13BA23949204600F008
:105CF00081F8204484B20BE010213046FFF796FF74
:105D000030B136A23249204600F074F8204484B203
:105D100008213046FFF78AFF90B14A462C492046B9
:105D200000F068F8204484B210213046FFF77EFF6F
:105D300030B12BA22649204600F05CF8204484B202
:105D400010213046FFF772FF70B15B4626A2052195
:105D500001A8FEF7DFFF01AA1D49204600F04AF81E
:105D6000204400E02BE084B220A21949204600F034
:105D700041F8204484B21648C4F58071204443465B
:105D80000D9AFEF7EFFF00974FF48071002804DBB7
:105D90002044884201DC86B200E00E46B01C8842F6
:105DA00000D9FE2612A20A49304600F023F83044FA
:105DB00081B20748FFF70EFFE8B280F31188BDE813
:105DC000FE8F0000809580000CED00E0B441800063
:105DD0008094800028000000200000003A000000AD
:105DE000204C696E653A0000256C64002920000093
:105DF0000D0A000030B50546002000290CD0002A0D
:105E00000AD006E02B18FF2B06D8CC54521C401C9D
:105E100080B21478002CF5D130BD000000B587B0F9
:105E20000B490A48086000F0A3FF1C220949684694
:105E3000FEF7ACF900F09EFF002207496846FFF725
:105E4000D5FE002072F40ED707B000BD04FF010498
:105E5000ACE200A094110101D96D00012DE9F041DF
:105E6000054688461746002F04D0286820B10F2029
:105E7000BDE8F0810120FBE7EFF311840220FEF77B
:105E800090FF0646FEF7AAFF401C012181407018D2
:105E9000C0B280F3118800F067F80646FF2E0DD0DF
:105EA0003A464146304600F073F8084800EB461089
:105EB0002860E0B280F311880020D9E70020286034
:105EC000E0B280F311880B20D2E700004089800007
:105ED0002DE9F04105462C68002C31D0EFF31186F6
:105EE0000220FEF75EFF0746FEF778FF401C012107
:105EF00081407818C0B280F311880021A160E16070
:105F0000AB206070002727702F60144D6868A04296
:105F10001ED100F025F803F05BF9A0B1D0E904210F
:105F2000D5E90434D21A61EB0401C5E902216860A5
:105F3000A86876F491D00146012003F089FC07E0BF
:105F40000120BDE8F0812F706F60012072F496D6B9
:105F5000F0B280F311880020F3E70000608C80002D
:105F60000121032003F074BC0020084901EB40121A
:105F700012782AB1401CC0B21928F7D3FF2070470D
:105F800001EB401101220A70704700004089800037
:105F9000024B03EB4010C261817070474089800062
:105FA0002DE9F04106460C46174604F10805204647
:105FB0006FF402D4C3B21B48E1184268914202DD7B
:105FC0000320BDE8F0811849184A00680968126882
:105FD000891A081A001FE91881421CD94FF400459C
:105FE00013A22946002002F44BF400F04BFF30B11D
:105FF00018A22946002002F443F40820E1E71DA27C
:106000002946002002F43CF43A4621463046BDE8D9
:10601000F0410AF053BF3A4621463046BDE8F04110
:106020000AF04CBFD8328000D0238000CC238000FF
:10603000523A353A4E564453206172656120697375
:10604000206265696E6720636F6D7061637465645B
:106050002E0D0A00523A353A436F6D7061637469D0
:106060006E67204E564453206661696C65640D0A64
:1060700000000000523A353A436F6D7061637469F5
:106080006E67204E56445320737563636573736661
:10609000756C0D0A000000007CB50D4600220092D0
:1060A0000192694602F4EEF3044634BB4FF42051EA
:1060B000684602F4E9F3B8B942F60101684602F411
:1060C000E3F388B942F60301684602F4DDF358B9F8
:1060D00042F60201684602F4D7F328B94FF424517E
:1060E000684602F4D1F308B1062406E00098C5F32F
:1060F0000B01808808430099888020467CBD000001
:106100002DE9F04105460C46FF26217A1E2905D0CF
:1061100022480279521E52B200683AE004F10801A6
:10612000284602F4B3F3064635E010F832308B42CD
:106130002DD11B4E56F82500406F30B300273B464B
:1061400018A24021002002F49BF3062000EB05205A
:106150002AF410D1C00605D5002717A2402100203F
:1061600002F48EF321460C3956F82500743002F4FF
:106170008FF30020A08001266FB115A2402102F408
:106180007FF3284602F486F305E00127D7E7521E85
:1061900052B2002AC9DA3046BDE8F0817C058000A1
:1061A000C40E8000523A333A657865637574653D74
:1061B000307825780A000000523A333A636F6E6EE9
:1061C000656374206E6F742063666D0A00000000C2
:1061D000523A333A737461727420657865637574EA
:1061E000650A00000348024901600D2141607047C3
:1061F000D41401017C0580002DE9FF5F81460F4624
:106200000024A246CDF808A0CDF80CA0584850F8BC
:106210002900603002F440F380463D1F79882888C9
:10622000544BCDE9001054A24021002002F428F381
:106230002888E8BB48460EF4F1D6401E2880002688
:1062400011E007EB460002AB82880021484602F4C9
:1062500025F3C4B2CDF808A0CDF80CA00CB1B0461F
:106260003BE0761CB6B27888B042EAD835E007EB5E
:1062700048006B46818801AA484602F411F3C4B273
:106280003CBBBDF804002988884200D3084686B28A
:10629000022106F1080029F417D68346ABF8046002
:1062A00032460BF106000099FDF770FF304800E020
:1062B00013E050F829005946603002F4E9F24846EC
:1062C00002F4F0F22888801B288008F101081FFAE8
:1062D00088F8CDF808A0CDF80CA07888404503D9FF
:1062E000288808B1002CC2D044BB48460EF496D68C
:1062F0002988401A401E86B20025062000EB09239B
:106300000F220421484600962CF48ED18246AAF82A
:106310000260174850F82900066E0AE00AEB0500F3
:10632000B288001DB11DFDF731FFB088284485B249
:106330003668002EF2D1504602F4B6F24CB1062C6B
:1063400007D007EB4800397882882346484602F494
:10635000ADF2084B14A240210020009402F490F208
:10636000062C03D0002004B0BDE8F09F0120FAE71E
:10637000C40E80003C150101523A333A5B25735D2F
:1063800020656E7465722C206E625F68616E646C4D
:10639000653D307825782C2072655F6C656E3D30E8
:1063A0007825780A00000000523A333A5B25735D85
:1063B00020657869742C207374617475733D30782E
:1063C00025780A001FB50F4890F80201002818D060
:1063D00068464DF4AFD7DDE900010B4CCDE9020171
:1063E000E1680844094920F07040486008464EF4CE
:1063F00037D2607818B1BDE81F4009F001B909F043
:106400001BF91FBDC01A80005C448000B41A8000D4
:106410002DE9F0438FB00546884600240B940C9478
:106420000D940E94202103A8FDF7C9FE0094019459
:106430000294AF682E68BD192048874207D305F53E
:106440006270B0F1887F02D8B6F57E2F03D91C4860
:106450000FB0BDE8F08305F1800103AB4FF4027289
:1064600089460BA802F424F20028F1DB10224146F1
:1064700003A8FDF7B6FEDFF84880A8F1030808B1CD
:106480004046E5E70B940C940D940E9403AB06F58F
:10649000227239460BA802F40BF20028D8DB4FF425
:1064A00080700090CDF8049005F5227203A968462B
:1064B00002F400F20028CBDA4046C9E700200001D0
:1064C000DCB1FFFF10B505F051FFBDE8104002F050
:1064D000DBB900002DE9F04105468846284669F4FD
:1064E0002FD6C0B22449097888420DD200EB400073
:1064F000213040F400404246AC2107F0C7FC04467E
:10650000200032D0012430E069F45ED6C7B207EB38
:10651000470606F1200040F400402A46072107F014
:10652000B5FC10B10120BDE8F081384675F49CD768
:1065300006F1210040F400404246AC2107F0A6FCE1
:106540000446200001D00120EDE7223646F4004049
:1065500071F45CD00949C7EBC70009680844296891
:106560000160A9888180A97981711CB941462846BA
:10657000FFF7D2F92046D6E7382380003C2380007D
:1065800010B509F0B3F809F0DFF809F04DF808F09C
:10659000FDFB0AF065F900F087F909F0E9F800F071
:1065A000D7F8BDE8104000F0B9B808F073BB10B5DB
:1065B00005F0AAF805F082FF05F0B6F805F0AAFC90
:1065C00004F06EFDFFF70EFE02F06AFC09F056F9CA
:1065D000BDE8104009F06CBD10B5FFF7E6FF0549B6
:1065E00003480860BDE81040034875F4AF9100000F
:1065F00017B8800474C500A0008793030A2805D249
:10660000034A002152F8200080F88F1070470000E4
:10661000C40E800070B504460D46204609F0F2F81D
:10662000002805D129462046BDE8704062F4C29496
:1066300070BD70B504460D46204609F0E3F8002809
:1066400004D12946204663F461D580B270BD70B58F
:1066500004460D46204609F0D5F8002805D1294604
:106660002046BDE8704063F4979670BD70B504464F
:106670000D46204609F0C6F8002804D129462046D8
:1066800064F476D180B270BD10B501F0EBFE0AF073
:10669000ABFA07F0EFF9BDE81040024900205FF4C3
:1066A000ED9600003042800010B5064800680028D2
:1066B00000D08047FEF742DF08B1012010BD002066
:1066C00010BD00009844800010B540F4404070F4C4
:1066D0009DD710BD10B540F4404007F0D7FB10BD6A
:1066E0000449016004494160044981600449C16072
:1066F0007047000041C2060015C20600D5660001C1
:10670000C966000110B506F083F806F075FD06F0C5
:1067100095FCBDE8104002F059BA000010B51F21E9
:10672000094808F0D7F906210748F83008F0CCF9F5
:106730000221064808F0C2F9FFF739FFFFF7E2FF30
:10674000FFF7C0FE10BD00002840800050418000CF
:106750000449034808600549034808607047000081
:10676000118000010C228000198200011822800093
:1067700070B50026150A0E4805EB450200EB021421
:10678000098821800120A0702846FFF737FF0020EC
:1067900069F476D50748016829B10B681BB12288D6
:1067A00000212846984769F4A1D5304670BD000005
:1067B000D42E8000B82280003EB500241D0A0A783D
:1067C000122A02D0132A04D006E000208DF800001F
:1067D00002E001208DF800008888ADF804004888A8
:1067E000ADF80200891D0291002069F449D50B48DB
:1067F000016829B18A691AB169462846904708E0BC
:106800009DF80000012804D1BDF804102846FFF7C8
:1068100001FF69F46BD520463EBD0000B422800024
:106820007CB50E46150A0020009001906946284666
:1068300073F4A4D59DF806206946284602F028FA8C
:106840000446CCB163F4A2D3C0B163F49FD3C01C9F
:1068500081B23288002320466DF480D769462846ED
:1068600009F080F840B106A24021002002F408F0AF
:10687000214668465FF4E8D000207CBD0020E7E7B1
:10688000523A333A7361766520636363640A0000A9
:106890007CB5DDE90654CDE9005467F4A3D1BDE829
:1068A0007C4008F09FB8000002490148086070472A
:1068B000916800014823800010B588B0044667F451
:1068C0001FD40020079007A855F4C6D20798FFF7F9
:1068D00007FF2068019060680290A0680390E0685C
:1068E0000490208AADF81400608AADF81600A08AE2
:1068F000ADF81800E08AADF81A0001A855F4D6D218
:1069000055F4B6D20348016801614168416108B09D
:1069100010BD0000300100B00A460146002007F01B
:1069200001BC000070B519480468194D287800288A
:1069300001D0002070BD4FF0806072F4D9D301F413
:1069400069F1600873F4E4D21249086088171149AC
:1069500001262C39086010497006C1F8FC01C8678F
:106960004FF03041086B40F007000863094C303CA1
:10697000206840F4E020206001F489F12E70206846
:1069800020F4E0202060012070BD00006C24800015
:106990009044800070C500A084E000E070B5002441
:1069A000EFF31086012080F3108801F48BF1104D75
:1069B00028B102242968B9B10220884714E0FFF702
:1069C00073FE20B1296879B1002088470CE0FFF7F9
:1069D000A9FF28B10224296831B10220884703E0C9
:1069E000296809B10020884786F31088204670BDC9
:1069F0005C2480002DE9FC4705460C46FFF7C0FDEE
:106A000069F474D407463048006800B1804701201B
:106A1000FDF7B4FBDFF8B490DFF8B480E16999F8D2
:106A2000000098F800200244B1FBF2F1CEB216FB50
:106A300000F1A06965F4BAD4286864F449D06868A4
:106A40005FF456D7286967F4F5D3A86862F4EED1ED
:106A5000E86862F493D21F484CF41CD61E484CF4EC
:106A60001FD61E484CF422D61D4855F44BD21D4863
:106A70004CF4C6D51C484CF4C9D51C484CF4CCD5B4
:106A80001B4865F467D44FF0806072F431D3204620
:106A9000FFF712FFD4E90A01CDE9000199F80010CF
:106AA000A06916FB010098F8001016FB01F1D4E96B
:106AB0000823104C2468A047384669F4E1D3BDE8A8
:106AC000FC4765F42B9500008026800029D507003F
:106AD0002AD50700119F0700B9C3060065C4060048
:106AE000EDAF070025ED060045ED060065ED06005B
:106AF000799B070048238000034900EB800001EBED
:106B0000800080887047000054438000034A00EBF7
:106B1000800002EB800081807047000054438000B9
:106B20007CB505460C462F48A368816800680A18A2
:106B30008B4201D39A4205D8206803448B420DD37F
:106B400093420BD228A0C321CDE90010314B32A2D1
:106B500037A10320FFF776F800207CBD36498B4231
:106B60000BD936A0C921CDE900102A4B2AA230A1A9
:106B70000320FFF767F800207CBD014628466268C5
:106B800001F49AF618B175F4F1D160B112E035A0B4
:106B9000D121CDE900101F4B1FA225A10320FFF733
:106BA00051F800207CBD1B4A2846103A216809F0A4
:106BB000F5F858B130A0DD21CDE90010154B16A233
:106BC0001BA10320FFF73EF801207CBD32A0D92194
:106BD000CDE900100F4B10A215A10320FFF732F8EA
:106BE00000207CBDD0FB80004677206C6F61642064
:106BF00061646472657373206F7665726C6F616433
:106C00002072756E20667720616464726573732EDE
:106C100000000000631201012E2E5C5372635C754C
:106C20007365725C757365725F626F6F742E63005B
:106C30004E4F5F544147000000F00F01467720732C
:106C4000697A652065786365656420746F20757066
:106C5000706572206C696D6974206164647265731B
:106C6000732E000046772073756D20636865636B33
:106C7000206661696C2E00005369676E61747572DD
:106C8000652076657269667920636865636B207339
:106C90007563636573732E005369676E61747572F3
:106CA000652076657269667920636865636B206626
:106CB00061696C2E000000003EB502246FF4A2D082
:106CC00058B10FA06A21CDE90010114B11A21AA1F1
:106CD0000220FEF7B7FF20463EBD4FF48051080367
:106CE00002F0E8FC044616A0CDE901046F210091F2
:106CF000074B08A210A10220FEF7A4FF20463EBDCC
:106D0000666C6173682073656375726974790000DD
:106D1000EF1201012E2E5C5372635C6D6178657910
:106D2000655C7372635C6D61786579655F626C65E3
:106D30005F636C692E6300004E4F5F544147000053
:106D4000626F6F7420696E666F2065726173653A59
:106D50002564000010B5182204494FF0807002F03D
:106D6000F7FCBDE81040014806F0F4BAD0FB800003
:106D7000704770477FB513488068029002240194E1
:106D8000600200900394104D6946284602F04CFDC5
:106D9000A102009103946946284602F045FD0C4883
:106DA0000A4901600B494160032181600021C160F3
:106DB000016141610121816102F08CFE044802F011
:106DC0009DFE7FBD84110101000001A000C600A04E
:106DD000C095800040420F000A46014641F28833C8
:106DE00001481AF4EC950000C095800070B5044687
:106DF0000D46194E0022194B20462946FDF7F8FC96
:106E000006D2306820F4704040F44050306070BDCD
:106E10000022134B20462946FDF702FD0DD2002229
:106E2000134620462946FDF7E3FC06D2306820F4DD
:106E3000704040F48040306070BD0022094B204615
:106E40002946FDF7EDFCF7D2306820F4704040F49D
:106E5000A040306070BD000024C500A0008040C08C
:106E600000003EC00000244010B508F04FFC07F0C1
:106E7000A3FD09F07DFB00F047FBBDE8104008F0E2
:106E80005DBA00002DE9F04F87B07B48D0F8009044
:106E900000240025A246002609F0EAFC7748016894
:106EA000C9F800104068C9F8040075480068083047
:106EB000059009F108000690042203A9059800F046
:106EC000EFFABDF80C10A1F57F40FF3843D008223F
:106ED00003A9059800F0E4FABDF80E006EF46CD436
:106EE00000F0FF08BDF80C00002867D00698A9EB59
:106EF000000707F58057BDF80E1008F1080083461B
:106F00000844B84263D805AB082203A906A800F0DC
:106F1000EEF8BDF80E00002300EB080205A906A854
:106F200007F0B6FD641CBDF80E005844B842C3D14A
:106F30000020CDE9006053464A462146284609F024
:106F4000D3FE002826D1824600260024CDF81890D2
:106F50006D1CEDB2B0E70020CDE9006053464A4613
:106F60002146284609F0C0FE002813D16D1CECB262
:106F7000434D4FF48057434E08E0286800EB04303F
:106F8000394602F097FB40B1641CE4B2707AA0422B
:106F9000F3D8002007B0BDE8F08F3B488169407A04
:106FA00040F26242CDE900200291384B38A24FF402
:106FB0000041002001F464F40920EBE7BDF80E0065
:106FC000059908F1080808444044059074E7082F23
:106FD00029D305AB082203A906A800F088F8083FCA
:106FE0002FB100233A4605A906A807F051FD611C00
:106FF0000020CDE9006053464A46284609F074FE59
:107000000028C7D18246BDF80E004044C61B0024AC
:10701000CDF818906D1CEDB20023324605A906A8E4
:1070200007F036FD48E705AB3A4603A906A800F08D
:107030005EF8611C03A8CDE9006053464A46284625
:1070400009F052FE0028A5D1C7F1080ABDF80E00CC
:1070500000EB08060024CDF818906D1CEDB201235A
:10706000524605A906A807F013FD0023324605A9DC
:1070700006A807F00DFD1FE7F8428000ACD5070019
:10708000CC238000D8328000641F8000AA14010144
:10709000523A353A25732C204C256420666C617376
:1070A00068207374617465203078253032582C2044
:1070B0006572726F72203078253038580D0A0000E2
:1070C0000221B0FBF1F2FF2A04D8B0FBF1F201FB80
:1070D00012022AB1491CC9B24029F2D300207047DC
:1070E000B0FBF1F0C0B27047FDF7B8DCFEE770B559
:1070F000044615461E462A462068FDF747F83068C4
:107100002844306020682844206070BD10B50548D0
:10711000017B491C0173002072F468D5BDE8104062
:1071200000F050B8FC4280002DE9FE43FFF73DFA25
:107130001E48016821F4003101601C4E083E306891
:107140001B4980B2084330601A4803C8CDE90001EA
:1071500016482C380068C82100F007001DF8000010
:1071600010FB01F514480768144CD4F80080384629
:10717000414602F0E7F962686068831AAB42FBD3CC
:107180004146384602F0BEF907F042FC02909DF8F5
:10719000080028B19DF80800094948618861C86164
:1071A000306820F07F403060BDE8FE8330C500A02D
:1071B00000008F1140740001FCED00E0001000E0C1
:1071C000FC4280002DE9FC412D4E306820F07F40CC
:1071D00040F0885030602B4803C8CDE900012848B2
:1071E0002438006800F007011DF80100C82110FBD9
:1071F00001F525480768254CD4F8008038464146FB
:1072000002F0A0F962686368981AA842FBD341466D
:10721000384602F077F9002507F0FAFB0446DFF85C
:107220007080D8F81800844201D9012700E00027B7
:1072300072F482D340B91FB1D8F81800201A02E0C6
:10724000D8F81800001BC5B2D8F81800C8F82000FC
:10725000B5EB900F03D8292C01D8112C02D200F0E5
:1072600019F807E000EBC00020440A21B0FBF1F060
:10727000C8F81800306820F07F403060BDE8FC811D
:1072800028C500A040740001FCED00E0001000E003
:10729000FC4280002DE9F04F87B0002006900824C2
:1072A000DFF890811A20C8F8140063480168634A27
:1072B00089B21143016005A8FDF7C6FC0220FDF765
:1072C000CBFCDFF8749109F10809D9F8000020F42B
:1072D0007C3040F42030C9F8000059A003C8CDE943
:1072E0000201DFF854A1AAF1240ADAF8000002A989
:1072F00000F00700085CC82110FB01F5DFF848B179
:10730000DBF800000190514F3E680198314602F0D1
:1073100019F978687968091AA942FBD331460198AE
:1073200002F0F0F807F074FB04909DF81010D8F804
:107330001400814204D99DF81020811C8A4263D92F
:107340009DF81010814204D29DF81020811E8A42BF
:107350005AD29DF81010814201D9012500E0002584
:1073600015B1641C64B201E0641E64B2202C11D318
:10737000D9F8000020F47C3040F42030C9F8000037
:10738000D8F83C00401CC8F83C00002004900120C4
:10739000069039E0D9F8000020F47C3040EA04304F
:1073A00040F40030C9F8000025A003C8CDE902016F
:1073B000DAF8000002A900F00700085C642110FB65
:1073C00001F6DBF80000019038680090DDE900105C
:1073D00002F0B8F878687968091AB142FBD3DDE9A0
:1073E000001002F08FF807F013FB049035B19DF800
:1073F0001000D8F814108842B2D805E09DF81000AB
:10740000D8F814108842ABD39DF81400FDF724FC83
:107410000948016821F07F4101609DF81000C8F81B
:107420001800D8F82400401CC8F82400069807B0BB
:10743000BDE8F08FFC42800028C500A000008F113D
:107440004030101810200000FCED00E0001000E0BB
:1074500070B504460D460F4E00220F4B20462946BC
:10746000FDF7DEF908D2D6F8200220F4706040F46F
:107470004070C6F8200270BD0022084B2046294605
:10748000FDF7B6F9F7D2D6F8200220F47060C6F8FE
:10749000200270BD00E000A0000049400000444010
:1074A0002DE9F04105460E461746094C2378002B7E
:1074B00002D000206EF4F4D43A463146284602F059
:1074C00047F9054620786EF4EBD42846BDE8F081F4
:1074D000C92380002DE9F04105460E461746094CA8
:1074E0002378002B02D000206EF4DAD43A463146DD
:1074F000284602F05DF9054620786EF4D1D428467E
:10750000BDE8F081C92380000121024A002068F40F
:107510002B930000819100013EB502246EF472D4D9
:1075200058B10FA09F21CDE90010114B11A21AA153
:107530000220FEF787FB20463EBD4FF480511848DD
:1075400002F0B8F8044617A0CDE90104A421009187
:10755000074B08A210A10220FEF774FB20463EBD97
:10756000666C617368207365637572697479000075
:10757000121301012E2E5C5372635C6D6178657984
:10758000655C7372635C6D61786579655F626C657B
:107590005F636C692E6300004E4F5F5441470000EB
:1075A0000030000164756620696D6720696E666F42
:1075B0002065726173653A256400000010B50028EB
:1075C00001D0074B58600A460649054868F46CD05C
:1075D0002521BDE81040044A082068F4C592000047
:1075E00088418000808C8000C5E800011CB505A0A2
:1075F0001E21CDE90010084B08A20EA10320FEF7C2
:1076000021FB1CBD444655204F544120636F6D70D3
:107610006C6574652E0000003A1201012E2E5C5339
:1076200072635C757365725C757365725F646675B1
:107630002E6300004E4F5F54414700001CB505A06B
:107640001421CDE90010074B07A20DA10320FEF77E
:10765000F9FA1CBD537461727420444655204F548E
:10766000412E0000071201012E2E5C5372635C75DF
:107670007365725C757365725F6466752E63000076
:107680004E4F5F54414700000EB506A11922CDE9C7
:1076900000210290084B09A20EA10320FEF7D2FAA6
:1076A0000EBD0000444655204F54412E2E2E2E2054
:1076B0002564252500000000221201012E2E5C53B6
:1076C00072635C757365725C757365725F64667511
:1076D0002E6300004E4F5F544147000008B500285C
:1076E00001D00449086004480090684606F064FD33
:1076F00008BD00008441800055E0000110B5104C29
:1077000002220421204603F043FF012210212046DB
:1077100003F03EFF02228021204603F039FF0222BF
:107720004021204603F034FF02222021204603F0AE
:107730002FFF20460222BDE81040082103F028BF99
:10774000001001A02DE9FE4F8246894614461D46D1
:10775000002001900290804600270090684608F0C3
:1077600017FD3148016821F4C07141F080010160CA
:10777000416821F4805141600026504608F0D4FA57
:1077800007F076FA01F04CFC019001980744484656
:1077900008F0CAFA07F06CFA01F042FC0290DDE949
:1077A0000110401A8044761C072EE6DB4046FCF7A9
:1077B000A1FF1E4E00223346FCF728FF07F0C6FD4E
:1077C000FCF7E4FF80463846FCF794FF002233467E
:1077D000FCF71CFF07F0BAFDFCF7D8FF03460020BA
:1077E000134A1BE000FB08F1B1FBF4F119440191CD
:1077F000104E0199B6FBF1F129540F4E0199B6FBD9
:10780000F1F19DF800603144C9B21154802903D9C7
:107810000A4E367831441154401CC0B2A042E1D324
:1078200007F002FABDE8FE8F802001B000001C4086
:10783000D810810000C0A8320080D7259C44800069
:107840002DE9FE4F07460D4602AA2946384609F0A3
:10785000D9F810B10298BDE8FE8F029C002602966E
:10786000DFF8688098F8000010B100206EF418D39B
:10787000DFF85CA04FF6FF7908226946204601F048
:1078800067FFBDF80000484502D12E80029617E040
:10789000B84206D115B1BDF8020028800834029420
:1078A0000EE0BDF802006DF487D7BDF80210083075
:1078B00021444418DAF800008442DDD32E80029679
:1078C00098F800006EF4ECD20298C4E7C923800057
:1078D000D023800070B506460024094D0BE004EB70
:1078E000C40005EB8000801C07223146FCF779FCC0
:1078F00020B1641CE4B22878A042F0D8204670BDC4
:10790000240E810010B50021084B5A681B8809E03D
:1079100052F83140844203D102EBC100406810BDEF
:10792000491C89B29942F3D310BD0000AC428000DB
:1079300010B50021084B5A681B8809E052F8314005
:10794000844203D102EBC100406810BD491C89B2DA
:107950009942F3D310BD0000A042800010B5002171
:10796000084B5A681B8809E052F83140844203D121
:1079700002EBC100406810BD491C89B29942F3D3A3
:1079800010BD0000B44280000349095C002902D008
:10799000002104F061BA70478E0F810010B5884253
:1079A00010D808290ED2094B074A5A6006E003EBAB
:1079B0008002946844F001049460401C8842F6DD23
:1079C0000320186010BD000000400030002000E0DF
:1079D0002DE9F047164F3868002826D04FF00009EF
:1079E000002400250526DFF84C8013E005EB450157
:1079F000012018F8212090403A68104208D008EB86
:107A000081032246D3E90101641CE4B200F01CF8B2
:107A10006D1CEDB2B54201D2062CE7D3641EE1B273
:107A20004846BDE8F047FFF7B9BFBDE8F087000062
:107A30009C428000FC13010113B501216846FEF74A
:107A4000C9F801201CBD000070B505461446114858
:107A500040F8345000EBC4004160284601F0FEFBC2
:107A60000646FF2001F0FCFB014625F001000A4B11
:107A7000850703EB8402094B06D0801E906006EB5D
:107A8000014043F8240002E0906043F824102046AF
:107A900070BD0000643D8000002000E00040003028
:107AA00070B505460C46164628213046FCF787FB84
:107AB00074F45CD230B16EF4A5D10849087001208D
:107AC0006EF4EED104EB840005EBC00028223146B1
:107AD00001F03EFEBDE8704008F00CB94042800065
:107AE0002DE9FC410C46434A6178A07852F82110F8
:107AF000CDE90010237840A21021002000F4C0F648
:107B0000607801264B4F052530B1012833D002287B
:107B100045D003286AD152E020786AF4BFD5C0B2BC
:107B2000C0EBC00107EB81014D72A278452A05D157
:107B3000CA681278022A13D081F8206091F82020B8
:107B4000012A04D0022A02D0032281F8202091F8D1
:107B50002020022A4AD0C9680978022906D102E009
:107B600007224A72EAE7A17845293FD0324A00212C
:107B7000126890473AE087F89950A078452805D1D7
:107B800097F89C00022801D087F89C6097F89C0029
:107B900002282BD0294900200968884726E087F869
:107BA000A550A078452801D187F8A86097F8A800CB
:107BB00006281BD0224900200968884716E0207853
:107BC0006AF4CED5C0B207EB001181F8B150A278AB
:107BD000462A01D0CE2A01D181F8B35091F8B310D2
:107BE000022903D0174A0021126890470020BDE8FF
:107BF000FC81000068228000523A313A61637420AF
:107C000073746F707065642C206163745F6964784D
:107C10003A2025642C206163745F747970653A2082
:107C200025732C20726561736F6E3A203078253091
:107C300032780A007C278000102280001422800005
:107C4000182280001C2280002DE9FF470C46667830
:107C50008DF80D6020784FEA1329CDE900905A4B3A
:107C60005AA210210296002000F40AF620786449F6
:107C7000644F4FF0000801EBC905092861D008DC0A
:107C8000092824D2DFE800F09A8B9A4A4A9A9A246B
:107C9000240017282FD004DC0B2807D0142816D175
:107CA0006AE0182814D0192811D111E06078222830
:107CB0000DD1002068F4E4D25348006828B143682D
:107CC0001BB100220F214846984768F40FD375E096
:107CD00069F4CCD1044685F80580002068F4D0D240
:107CE000386828B1436D1BB1224631464846984753
:107CF00068F4FCD262E069F4B9D1044685F80480E6
:107D0000002068F4BDD2386828B183681BB12246D0
:107D100031464846984768F4E9D24FE069F4A6D165
:107D2000044685F80680002068F4AAD2386828B195
:107D3000836D1BB1224631464846984768F4D6D237
:107D40003CE069F493D1044685F80280002068F491
:107D500097D2386830B1C36C23B136B12246314670
:107D60004846984768F4C2D228E0002CFAD0224650
:107D7000314648469847F5E769F478D1044685F8D6
:107D80000380002068F47CD2386828B1C36D1BB131
:107D9000224631464846984768F4A8D20EE06078FB
:107DA00060B1002068F46CD2386828B1C36B1BB195
:107DB000617800224846984768F498D269F45CD10B
:107DC00004B00020BDE8F087B7140101523A313AFF
:107DD00025733A20636F6E696478203D2025642CFA
:107DE000206F70636F6465203D20305825782C200B
:107DF0006572726F72203D203058257800000000B7
:107E00002A27800098218000EC2380002DE9F04192
:107E1000ADF50E7D0C461E0A304660F4DBD70746F2
:107E2000304660F4D7D7002834D044A100913346BF
:107E300044A21021002000F423F5FF2E78D04E4DEF
:107E40002088288060886880A088A880E088E880F2
:107E5000207A2872607A68722F74D4F80A00C5F804
:107E60000A00E089E881454A002102EBC600016072
:107E70004160218822F836104FF4CA7129A8FCF716
:107E80009EF929A85DF4CED4687ADFF8F480012841
:107E900016D101E03BA1C9E7E87B0121B1EB901FBE
:107EA0000ED198F81C0140070AD59DF8A40038B1FE
:107EB000A02101A8FCF783F9002429AD01AF2BE034
:107EC00004F10A02617A1546304672F475D2617A7D
:107ED0002A46304600F00EFF77B1002068F4D0D17A
:107EE0002A48016829B18B6B1BB1234A0021304617
:107EF000984768F4FBD11BE0032088F8A80017E03E
:107F000004EB840005EBC001093107EB04101022DB
:107F1000FCF73CF9641CE4B29DF8A400A042EFD841
:107F200015499DF8A43001AA0A3130466BF4EAD015
:107F30000DF50E7D0020BDE8F0810000534C415648
:107F400045000000523A313A636F6E6E65637469A2
:107F50006F6E5F7265715F696E645F68616E646C9D
:107F600065723A20636F6E6964782025642C2072F4
:107F70006F6C652025730A00182780002A2780006F
:107F80007C2780004D4153544552000098218000C9
:107F90002DE9F0410D46E879FF2819D01B4FB9684B
:107FA00089B300246AF45AD3C6B216B1032E05D0A1
:107FB00008E0E8796AF472D3C4B203E0E8796AF4BD
:107FC000CFD3C4B2BB682A462146304698471AE050
:107FD00000210E2063F488D40446A4B1012020704F
:107FE0002868C4F80300A888A4F80700A87960727C
:107FF000E8796AF453D3A0700E21204669F44AD080
:10800000204663F46FD40020BDE8F081C4428000B4
:1080100030B58FB006200E9000250795514C0320F7
:1080200020700F20607084F82F5084F82E504FF489
:108030000070E08420850A2084F82A001B206084D8
:108040004FF4A470A0840CAA0EA9012064F4E2D01D
:1080500038B108A808F0D0F818B907A808F05CFAF9
:10806000D0B1A5764FF461706080208C40F0800024
:10807000208405A84CF45ED1059806990844FCF7C5
:108080007DF8019502950395049508A808F0B4F8C9
:10809000344C0A34E8B35EE00120A0763248007820
:1080A00020B39DF82000412813D09DF82A002071AC
:1080B0009DF82D0060719DF82E00A0719DF82F0095
:1080C000E071BDF81C002072C02141EA10206072EE
:1080D000C8E79DF8280020719DF8290060719DF87F
:1080E0002A00A0719DF82B00E071EAE79DF82000BE
:1080F000412815D09DF82A00A0719DF82D00E0714F
:108100009DF82E0020729DF82F0040F0C000607294
:1081100000E014E0BDF81C006071000A2071A1E7C6
:108120009DF82800A0719DF82900E0719DF82A00B3
:1081300020729DF82B0040F0C0006072E8E710222A
:1081400001A908A8FCF74DF828B1102208A920467B
:10815000FCF71CF802E0204672F47AD002F0F2FB41
:108160000FB030BD7E288000C442800070B50D463F
:10817000EFF311801D490A781D490968C1F30221F6
:10818000491C01248C401119C9B281F311881C0AC1
:108190001849002301EBC402136053604FF6FF72CD
:1081A00021F83420C0B280F31188AB7812A21021DC
:1081B000002000F465F3204672F496D120466CF45A
:1081C0000BD6204672F498D0002068F459D011489C
:1081D00002683AB1D36B2BB1A8789030C2B20021BB
:1081E0002046984768F482D0002070BD02E400E089
:1081F0000CED00E02A278000523A313A646973633B
:108200006F6E6E20726561736F6E203D2030782531
:10821000780A0000982180002DE9FC5F0446EFF306
:1082200011876D4801786D480068C0F30220401C3A
:108230004FF0010B0BFA00F00844C0B280F3118834
:1082400068F454D08146664D0094DFF8988195F823
:10825000A50065A2102158F82030002000F410F38A
:108260008DF8054095F8A53007200C210D22002639
:108270004FF0090A0A2B74D2DFE803F0050C979738
:108280009719283C424D69F49DD385F8A5B085F82F
:10829000A86090E0002C09D085F8A56085F8A6605C
:1082A0008DF8041001A9002068F4E6D083E095F869
:1082B000A600A22804D069F473D585F8A5A07AE0B9
:1082C0006BF440D4062085F8A50074E04CB169F445
:1082D00067D585F8A5A0042085F8A80085F8A940F1
:1082E00069E085F8A5008DF8041001A9002068F464
:1082F000C3D060E06BF478D5082085F8A5005AE07B
:10830000002C58D085F8A5008DF8042001A9002084
:1083100068F4B2D04FE0A4356E70FF202870287941
:10832000A43D042807D0062812D03C4C012819D0BF
:10833000032824D03FE085F8A8608DF8041095F854
:10834000A9008DF8050001A9002068F495D032E05D
:1083500085F8A8608DF8042001A9002068F48CD06D
:1083600029E022E085F8A860002067F489D720681A
:1083700010B1406C00B1804767F4B8D71BE085F8B6
:10838000A860002067F47CD7206858B1806B48B1A2
:10839000234800886DF446D22168C0B2204A8B6B16
:1083A0000021984767F4A2D705E04FF452721DA14F
:1083B00022A000F463F295F8A50021A2102158F83C
:1083C0002030002000F45CF2484667F459D7F8B238
:1083D00080F31188BDE8FC9F02E400E00CED00E0B2
:1083E0007C27800028228000523A313A696E6974F5
:1083F0005F66736D20656E7465722C20696E69749A
:108400005F73746174653A2025732C2073746174F2
:108410007573203D2025640A00000000982180002B
:1084200018278000626C655F73646B5F6761706DB5
:108430005F70617463682E6300000000300000000C
:10844000523A313A696E69745F66736D2065786976
:10845000742C20696E69745F73746174653A2025A9
:108460007300000010B500205FF46AD2002066F4AB
:108470001DD01948202181814181002404700721E9
:1084800081730121417084700B2214A100205EF4DD
:10849000C7D50021104A08465DF4CAD6002118232A
:1084A000114A08465DF43CD60F4A0D2318320121CB
:1084B00000205DF435D60D480480847040F64801F4
:1084C000FB205EF473D4F72060F42CD50021BDE8C6
:1084D000104008465FF46E96BCFB80004D617865E5
:1084E00079655F426F6F7400B31101013042800003
:1084F0002DE9F041044618460027002500266FF4B8
:108500008853E318184C06D0012B07D0022B0CD04F
:10851000032B0CD105E02568666808E0A568E668CD
:1085200005E0A569E669087801E025696669002427
:1085300014E035F8343083420FD105EBC4035C6896
:1085400074B10A4B9C4204D1034601F0F5FD074685
:1085500006E00346A047074602E0641CB442E8D3A5
:108560003846BDE8F081000070028000116F020003
:108570002DE9FC410E4629A003C8CDE900016A4659
:10858000314601200BF460D00746012F43D130461D
:1085900000F494F1C4B2C4BB00F492F1C5B2FF2D53
:1085A00009D03078A02808D0A1280CD0A22816D055
:1085B000A32819D10DE04B2427E03146284600F4CA
:1085C00081F1044610E0314628460BF4F7D1044609
:1085D0000AE0314628460AF411D7044604E0314641
:1085E000284600F0B3FAC4B27CB9707868B90D4877
:1085F00090F86E10C90708D000EB8501C96850F8E3
:10860000662FC1F816208088488324B1064A214687
:108610000120126890473846BDE8FC81A0A1A3A2C2
:1086200000000000000E8000EC03800070B54024C4
:108630000221C588584BEA0704D093F86D100A2927
:1086400009D00A214279042A0CD354A21021002017
:1086500000F416F19EE043245C4A1021002000F44F
:108660000FF197E012B1032A00D00A2193F86C3081
:10867000994306D0422456A21021002000F400F1B4
:1086800088E00379022B05D95DA21021002000F4B7
:10869000F7F07FE0690706D52AB1664A102100206D
:1086A00000F4EEF076E053B125F01001C1800D0723
:1086B00030D5614A1021002000F4E2F06AE045F074
:1086C0001001C1808D0601D44D0605D55B4A1021ED
:1086D000002000F4D5F05DE0CD0711D04D0707D4A0
:1086E0008D070DD4564A1021002000F4C9F051E046
:1086F0008D0705D5534A1021002000F4C1F049E050
:108700004D0730D5C9072ED14F4A1021002000F463
:10871000B7F03FE0012B02D0CD071ED119E0CD0705
:1087200007D08D0705D5494A1021002000F4A8F094
:1087300030E08D0617D5012A05D0022A03D0CD07D7
:1087400001D189070FD5414A1021002000F498F08B
:1087500020E08D0701D4890605D53D4A102100206F
:1087600000F48EF016E0022B13D2407A032805D9CC
:1087700038A21021002000F483F00BE0012A01D080
:10878000022A06D128B13F4A1021002000F478F0D7
:1087900000E00024204670BD000E8000523A313ABD
:1087A0005B4552525F494E56414C49445F504152DD
:1087B000414D5D3A20436865636B20646973636F64
:1087C00076657279206D6F6465210A00F81B0101DE
:1087D000523A313A5B4552525F4E4F545F535550B7
:1087E000504F525445445D3A20726F6C65206E6F55
:1087F0007420737570706F72746564210A000000D4
:10880000523A313A5B4552525F494E56414C4944C7
:108810005F504152414D5D3A20436865636B206172
:1088200064766572746973696E6720747970652106
:108830000A000000981C0101401C0101CC1A010132
:10884000B81D0101581D0101141E0101F41C010194
:108850002C1B0101523A313A5B4552525F494E5648
:10886000414C49445F504152414D5D3A2043686557
:10887000636B2066696C74657220706F6C696379D4
:10888000210A00008C1B0101024901480860704761
:108890002D860001F4038000F0B5ADB004460D460E
:1088A00016461F462878032804D0012809D0172827
:1088B00012D008E0022009F487D5F821FDF7ECFB7F
:1088C00001E002F0EDFB2DB03B4632462946204642
:1088D000BDE8F0406BF4AE9468F4C8D30446207849
:1088E0000A2825D300202B902C90687870B969460F
:1088F000E01D5CF4FBD79DF829008DF8B200DDF88F
:1089000023002B90BDF82700ADF8B000244E70680E
:1089100048B1002067F4B4D47368227868782BA932
:10892000984767F4E3D468F4A7D300202DB0F0BDD6
:1089300068781C4E20B330886CF474D7C4B202A897
:108940000090184B69780A33727A1D46204672F4FB
:1089500097D2717A2A46204600F0CCF9002067F4BD
:108960008FD41148016829B18B6B1BB10D4A0021CE
:108970002046984767F4BAD468F47ED30020D5E740
:1089800002A9E01D5CF4B2D79DF831007072DDF8E9
:108990002B00C6F80A00BDF82F00F0812478CEE73E
:1089A000C442800018278000982180002DE9F04102
:1089B0000F461E460021002400256FF488528018BF
:1089C00004D0012806D003280CD107E01148046820
:1089D000456807E010480468456803E00F480468EC
:1089E00045683E78002210E034F83200B0420BD1E6
:1089F00004EBC200406850B1FEF784FF02463946DE
:108A000030469047014602E0521CAA42ECD3084689
:108A1000BDE8F081E8048000E0048000D804800014
:108A20002DE9F0410646384890F8791000EB8100B6
:108A3000C4680025002C04D1D72234A138A0FFF748
:108A40001DDFFF2E55D0607C90B109F4B5D44007EE
:108A500009D509F4B1D440070AD5344850F82600A6
:108A600090F85F0020B904F116013046FFF72CDFC3
:108A7000A07B40F6B15798B3012815D0022839D110
:108A8000082040EA06210123072240F6056027F46A
:108A900087D30221017027F4CFD3E08BF8B10721EF
:108AA000384627F4F5D625E094F8540028B94FF459
:108AB000807216A11EA0FFF7E1DE94F85400401E5C
:108AC000C0B284F8540028B104F11C01204609F416
:108AD000B0D70FE00721384627F4DAD6012509E0A0
:108AE000FFE7E08B18B10721384627F4D1D60125DE
:108AF00000E0012525B10022012120460AF45ED0C4
:108B00002846BDE8F0810000000E80006761706DAE
:108B10005F696E69745F70617463682E6300000042
:108B2000705F616374765F696E697400CC0D80005C
:108B3000705F616374765F696E69742D3E6E625F0B
:108B40006175746F5F636F6E6E00000070B50446F0
:108B50000E460025194890F86C100520884301D076
:108B6000432522E070780AF451D000B309F424D4EC
:108B7000400702D5707802281BD058212046FFF705
:108B8000A5DE0446BCB102206073707860740120D9
:108B900009F48ED5A0820A4820600A4860600A481D
:108BA000A06000212046FFF793DE284670BD4025D7
:108BB000FBE74925F9E74B25F7E70000000E8000A9
:108BC000DD8B0001658C00011D2A0100024901486E
:108BD00008607047218A0001C80480002DE9F04137
:108BE0000446884608F102051D4F97F87900FF28D2
:108BF00006D197F86D0097F87D1008440A2801D334
:108C000043262AE0284609F439D6C6B22EBB287876
:108C1000A073002084F85500382208F1020104F105
:108C20001C00FBF7B3FA6A8822B1072140F6B15065
:108C300027F4BED6A07B012803D197F87E0084F8E4
:108C400054007937207B7870207B38703879401C4D
:108C500038712946204609F4ECD63046BDE8F0814B
:108C6000000E800010B50446E08B002804D00721D8
:108C700040F6B15027F40CD60449207B81F87A00E5
:108C80002046BDE8104009F4CB960000000E80009D
:108C900010B50E4B1B78984210D200EB40030C48E5
:108CA000006800EB83100B68C0F803308988A0F8D7
:108CB00007108270012100F8021B10BD05A240219F
:108CC0000020FFF7DDDD002010BD0000E423800060
:108CD000DC228000523A333A676174742066696E10
:108CE00064206974656D2C206E6F7420666F756EDC
:108CF000640A00002DE9FC4107460E461446234B4A
:108D000023A240210020FFF7BBDD002538466CF48C
:108D1000E3D38DF8066020680090A088ADF80400C9
:108D2000324621463846FFF7B3FF04467CB1214660
:108D300068465CF437D503465BB119A24021002098
:108D4000FFF79EDD384600F0B3F801250EE001255F
:108D50000CE0237A19A240210020FFF791DD207A50
:108D600088B12246694638466CF494D0224629469A
:108D700038466BF4B7D5054B1AA240210020FFF707
:108D80007FDDBDE8FC810125F0E70000EB15010166
:108D9000523A333A5B25735D20656E7465720A0042
:108DA000523A333A626F6E64206D67722067657461
:108DB000206572723D307825780A0000523A333AC5
:108DC000626F6E6420646576207265636F6E6E6597
:108DD00063742C2063636364206E756D3D30782569
:108DE000780A0000523A333A5B25735D2065786952
:108DF000740A00007CB50546164B17A240210020DE
:108E0000FFF73EDD6946284606F0ACFDA8B116A284
:108E100040210020FFF734DD9DF8062069462846F2
:108E2000FFF736FF044644B113A240210020FFF7AC
:108E300027DD214668465CF407D6284600F038F85E
:108E400028466CF461D3034B11A240210020FFF7A8
:108E500017DD7CBDCA150101523A333A5B25735DBB
:108E600020656E7465720A00523A333A626F6E641E
:108E70006564206465760A00523A333A7361766518
:108E8000206363636420696E206E7664730A000059
:108E9000523A333A5B25735D20657869740A0000A5
:108EA0000249014808607047F58D0001D822800012
:108EB00070B504460BA240210020FFF7E1DC10480A
:108EC000007884420DD20F4D04EB4404C021286881
:108ED00000EB8410FBF773F92968002001EB841183
:108EE000087070BD523A333A676174742072656DD0
:108EF0006F7665206974656D20656E7465720A0011
:108F0000E4238000DC2280002DE9FF410D4600278C
:108F1000D6B2140A00200290039000900190E0B2B3
:108F2000694671F42BD230466FF47AD18046002026
:108F300067F4A6D1B8F1000F3AD0D8F80420002A7F
:108F400036D0E0B229469047288802A95BF4DAD7E8
:108F500000282DD142F6021102A85BF4D9D738B30C
:108F6000304663F4EDD180469DF80620E0B26946B4
:108F7000FFF78EFE0646DEB1A879E979434640EA5E
:108F80000122298830466BF4E9D3E0B2694606F045
:108F9000E9FC68B109A240210020FFF771DC67F409
:108FA000A5D1314668465CF44FD5002067F468D1FE
:108FB00067F49CD104B03846BDE8F081523A333AA8
:108FC000636F6D6D6F6E20736572766963653A20AD
:108FD000706565722077726974657320636363647A
:108FE0002C207361766520697420696E206E76642A
:108FF000730A0000017882781144C9B201710846F1
:10900000704730B500224271438805E044798D5C99
:109010002C444471521C92B29342F7D8407930BD2F
:109020000748C169C1F31401026AC2F3140300685E
:10903000C0F3C112581A034951F82210484370472F
:10904000802001B0A044800030B5024600240020FA
:109050000021084B53F820502DB1914201D1044614
:1090600005E0491CC9B2401CC0B20A28F2D3204610
:1090700030BD0000CC0D80002DE9F04389B0814661
:109080000E4600242546202101A8FBF798F800276A
:10909000102201A94846FCF76FFB002001A900F14E
:1090A000080231F812203A4497B2401CC0B2082896
:1090B000F5D34FEAD708B9F1050F03D0B9F1060F80
:1090C00020D03AE07088FBF715FB04460D46308847
:1090D000FBF710FB06460F464046FBF70BFB3246FC
:1090E0003B46FBF71BFA22462B46FBF78FFA154A45
:1090F000154BFBF78BFA0022144BFBF712FA0446D0
:109100000D461AE07088FBF7F5FA04460D46B08864
:10911000FBF7F0FA06460F464046FBF7EBFA3246FD
:109120003B46FBF7FBF922462B46FBF76FFA084A52
:10913000084BFBF7F9F904460D4609B020462946CD
:10914000BDE8F08379E9263108AC5CBF0000394006
:10915000B76DDBB66DDB0EC010B5024600200021F6
:10916000064B53F821401CB1914205D0401CC0B2BF
:10917000491CC9B20A29F4D310BD0000CC0D8000EF
:109180001CB542680121117000214FF48A2205E0CC
:1091900012F8013B4468491C6354C9B20829F7D34B
:1091A000094906C9CDE900124168009A41F8092F22
:1091B000019A4A6002884068112166F497D40349F5
:1091C000002008701CBD00000C160101482580001D
:1091D0002DE9F04F4FF0FF084FF0FF3041084FF0FE
:1091E000000CDFF874B00BF54873D3E904230BEBE4
:1091F0004C19D9E902452C431DD099F80140AA2CFD
:1092000019D1D9E904652F46B41A65EB0305B4EB0F
:10921000000A75EB010A03D220462946E04607E022
:10922000B41A9F4104D2C9E9042300200146E04654
:1092300050EA01040BD00CF1010CBCF1190FD6DB84
:10924000B8F1FF0F06D00BEB4810BDE8F08F0BEB29
:109250004810FAE70020F8E740898000008870474E
:1092600040F45F40704700002DE9F05F04460D4672
:10927000374FDFF8E080DFF8E0B04FF0663A4FEAB2
:10928000670936480068C0F3C2263A46434620467E
:109290002946FBF7ADFA01D2062656E03A46434688
:1092A00020462946FBF7BCFA0AD852465B462046C0
:1092B0002946FBF79DFA03D2042E46D0062644E049
:1092C00052465B4620462946FBF7AAFA08D80022F8
:1092D000234B20462946FBF78BFA01D8042634E0BD
:1092E00000221F4B20462946FBF79AFA0AD24A462B
:1092F0001C4B20462946FBF77BFA03D2032E24D0D1
:10930000042622E04A46174B20462946FBF788FAF6
:1093100008D80022144B20462946FBF769FA01D8E9
:10932000032612E00022104B20462946FBF778FA6C
:109330000AD24A460D4B20462946FBF759FA03D27A
:10934000022E02D0032600E002263046BDE8F09F40
:109350009A999999999901406666024010C500A0B2
:1093600000000440CCCC044000000840CCCC0840B5
:109370002DE9F05F04460D46DFF82CA1DFF82081CF
:10938000DFF820B14FF066394FEA4A0747480068D6
:10939000C0F3C2263A46434620462946FBF728FA40
:1093A00001D2072678E03A46434620462946FBF795
:1093B00037FA0AD84A465B4620462946FBF718FA90
:1093C00003D2052E68D0072666E04A465B46204653
:1093D0002946FBF725FA08D80022354B20462946B6
:1093E000FBF706FA01D8052656E00022304B20464E
:1093F0002946FBF715FA0AD252462E4B204629463B
:10940000FBF7F6F903D2042E46D0052644E0524677
:10941000284B20462946FBF703FA08D80022264BA2
:1094200020462946FBF7E4F901D8042634E000225F
:10943000214B20462946FBF7F3F90AD252461F4B2F
:1094400020462946FBF7D4F903D2032E24D0042664
:1094500022E05246194B20462946FBF7E1F908D88D
:109460003A46174B20462946FBF7C2F901D8032696
:1094700012E03A46124B20462946FBF7D1F90AD2B0
:109480004A46104B20462946FBF7B2F903D2022E7A
:1094900002D0032600E002263046BDE8F09F00001F
:1094A0009999014066660240CDCCCCCC10C500A095
:1094B00000000440CCCC044000000840CCCC084064
:1094C00099990D4066660E4010B50022002303E016
:1094D000845C6340521CD2B28A42F9D3D843C0B2F2
:1094E00010BD000005480068C00F002804D00448E3
:1094F000007908B1012070470020704740C500A0E6
:10950000FC42800010B5EFF31083012282F3108833
:10951000094A1468002C02D01468641E1460126892
:109520003AB920F0807021F00101044A1160044929
:10953000086083F3108810BDC0428000001000E076
:10954000FCED00E010B5EFF31082012383F31088E7
:10955000074B1C68641C1C60064B40F08070186050
:1095600041F001000449086082F3108810BD00003A
:10957000C0428000FCED00E0001000E010B50446A1
:10958000002C1DD0207A01281CD0012020721A48FE
:10959000006818B1416809B120468847174801683A
:1095A00021F480610160EFF31081012080F31088C5
:1095B0001348026822F002020260006820B114E041
:1095C000012010BD022010BD0E48426842F0010289
:1095D0004260C26842F00072C260026842F001025A
:1095E0000260C26842F08072C26081F3108800207D
:1095F000E0606072207210BD8403800014C500A07A
:1096000044448000A0E200A070B50446002C03D0C2
:1096100023492068884201D0012070BD207A0128AA
:1096200005D001252572607A002610B11EE00220C7
:1096300070BD26721B48016821F00101016081683C
:1096400021F000718160EFF31080012181F3108817
:1096500015490A6842F002020A6080F31088134834
:10966000006818B1016809B120468847022060727D
:109670000F48016841F4806101606068012809D0E9
:109680002068016821F4805101603046E66065720F
:10969000207270BD2068016841F480510160F4E7D8
:1096A000006401A0A4E200A0444480008403800080
:1096B00014C500A010B50B46024600210348FDF773
:1096C000BCDE08B1002010BD012010BD641F800069
:1096D00010B500231A4601210348FDF7AEDE08B19C
:1096E000002010BD012010BD641F800038B502208D
:1096F00000906846FBF7A8FA114C206880B9114821
:10970000206011490160012141608160EB21C1604D
:109710000E499DF8002051F822100161002141619D
:1097200072F424D408B1012000E00020A0720448A3
:109730000FF414D608B1002038BD012038BD000058
:10974000641F8000281F800000D000A0E04280003D
:1097500010B514460A46014623460448FAF742DF8C
:1097600008B1002010BD204610BD0000641F80001D
:1097700070B504460D46164606F0AAFA324629464A
:109780002046FFF7E5FF044606F0B4FA204670BD18
:1097900010B514460A46014623460448FDF743DD4A
:1097A00008B1002010BD204610BD0000641F8000DD
:1097B0002DE9F047C0B081468A4617463B465246DF
:1097C00049461748FDF72FDD18BB00243D464FF4EE
:1097D0008078474501D9464600E03E4609EB040142
:1097E00033466A460E48FAF7FDDE90B90AEB0400EC
:1097F00032466946FAF7F5FC58B9AD1B6DB13444F1
:109800004646B54200D82E46BC4202D2A019B84204
:10981000E4D9002040B0BDE8F0873846FAE7000000
:10982000641F80007047000070B505460E4607486B
:1098300010F456D1EFF31084012282F310883146E0
:10984000284610F442D184F3108870BD6041800036
:1098500070B504460D46044814F492D329462046B8
:10986000BDE8704014F44C93E945800070B504469F
:10987000002C1ED0207D01281DD0012626751E4DEE
:10988000286820F001002860A86820F00070A86017
:10989000A5F5297520682CF4EDD3EFF3108186F33C
:1098A00010881648026822F010020260006820B199
:1098B00015E0012070BD022070BD05F528756868AF
:1098C00040F001006860E86840F00070E8602868D7
:1098D00040F001002860E86840F08070E86081F3A3
:1098E00010880748006818B1416809B120468847C8
:1098F00000206075207570BDA4E200A04444800083
:10990000AC0380002DE9F74F86B004460D461421C4
:1099100001A8FAF754FC4FF00008207D01280ED072
:109920004FF0010A84F814A0607D0027012808D0B8
:109930004FF001082775404609B0BDE8F08F0220BE
:10994000FAE70220607560680190A0680290E06804
:10995000039020690490059701A920682CF49DD3F9
:109960004FF0040B20B16068B0F5C05F05D01FE078
:1099700084F815B027750120DEE7CDB1A06870B37B
:10998000298820680162698820680162A9882068A6
:109990000162E98820680162298920680162698979
:1099A00020680162A98920680162E9892068016252
:1099B0002068016841F0010101604FF0E029D9F809
:1099C0001460D9F81850FBF779F91A484FF47A71F6
:1099D0000068B0FBF1F1C8204143174B1EE0FFE7E0
:1099E000298820680162698820680162A988206846
:1099F0000162E98820680162DAE7D9F81800854237
:109A000001DB2A1A01E0321A2A44891A0546002984
:109A100004DC84F815B0277503208DE75868C0F37F
:109A200000000028E9D09868A0610899086084F8CF
:109A300015A07FE720408000007801A070B50446A3
:109A4000002C08D0207D012807D001252575607DD8
:109A5000002620B128E0012070BD022070BD2675CF
:109A60001748416821F001014160C16821F000718F
:109A7000C160016821F001010160C16821F08071BD
:109A8000C160EFF31080012181F310880D490A684D
:109A900042F010020A6080F310880B48006818B189
:109AA000016809B120468847022060752068016876
:109AB00021F00101016065752675002070BD000070
:109AC000A0E200A044448000AC03800070477047CF
:109AD0007047000070B50546064817F419D7EFF334
