:020000040100F9
:1020000000008400DD200001E9200001F947800084
:1020100007488000094880000B488000000000004D
:10202000000000000000000000000000D147800018
:10203000F320000100000000F5200001F92100015B
:10204000F720000139380600DD37060055488000CA
:10205000EB498000E3498000C3488000C948800004
:10206000F7200001F7200001F7200001F720000110
:10207000634980006B498000F7200001F7200001D0
:10208000F7200001F7200001CF488000F720000171
:10209000F7200001F7200001F7200001F7200001E0
:1020A000F7200001D13706000D488000F72000011D
:1020B000F92A0001F7200001F7200001F7200001B4
:1020C000F7200001F7200001DFF80CD000F0D0FC71
:1020D00000480047EB2A00010000840006488047C2
:1020E0000648804706480047FEE7FEE7FEE7FEE7B2
:1020F000FEE7FEE7FEE7FEE735400101C92C0001DF
:10210000ADEE00012DE9F05F0546002092469B46AA
:1021100088460646814640241BE0284641464746FD
:10212000224600F0AAFB53465A46C01A914110D3EA
:1021300011461846224600F091FB2D1A67EB010864
:102140004F4622460120002100F088FB17EB0009D2
:102150004E41201EA4F10104DFDC484631462A46E8
:102160004346BDE8F09F00000649074A086850430F
:1021700043F2390210440860400870470149086082
:1021800070470000B44780006D4EC64140EA01032D
:102190009B0703D009E008C9121F08C0042AFAD21D
:1021A00003E011F8013B00F8013B521EF9D27047E1
:1021B000D2B201E000F8012B491EFBD27047002289
:1021C000F6E710B513460A4604461946FFF7F0FF36
:1021D000204610BD30B505462A460B4612F8010BC5
:1021E00013F8014B08B1A042F8D01CB1002802D06E
:1021F0006D1CF1E7284630BD704770477047704747
:102200005858524701000000000000000020000163
:10221000002000015998524901010000000000000F
:1022200000000000000000000000000000000000AE
:10223000000000000000000000000000000000009E
:1022400043F6B51CC3F2000C6047421C10F8011B9A
:102250000029FBD1801A704730B5044600200346A0
:1022600000E05B1C934203D2E05CCD5C401BF8D0E5
:1022700030BD30B505460020034600E05B1C9342AC
:1022800005D2EC5CC85C201A01D1002CF6D130BD1F
:10229000F0B480EA0102D40F4200B2EB410F02D247
:1022A0000246084611464A0042D0C30DDDB2C1F3D2
:1022B000C752AD1A202D35DAC1F3160141F40002E0
:1022C00004B15242C5F1200602FA06F12A41104437
:1022D000B3EBD05F23D0C4B1012DA0EBC35009DC18
:1022E000F0BC4FF0004202EAC352DBB200F500003E
:1022F00000F0EEBA400000F1807000EBC350A0F196
:10230000807040EAD170490009E0490841EAC07193
:10231000A0EBC35000F50000400800EBC350F0BC38
:1023200000F0CDBA6142012202EB4101001BF6E749
:10233000F0BC704781F00041AAE780F00040A7E7B9
:1023400030B480EA010202F0004530F0004221F092
:10235000004013D090B1C30DD40DC2F31601C0F3E9
:102360001600E41A41F4000140F400027D34914269
:1023700001D3641C00E04900002C02DA30BC0020CC
:1023800070474FF400000023914201D3891A0343A0
:1023900040084FEA4101F7D151B1914202D14FF0CB
:1023A000004105E002D24FF0010101E06FF00101B0
:1023B00003EBC450284430BC00F081BA2DE9FE4F35
:1023C000804681EA0300C00F0C46009021F00041D6
:1023D00023F00045B8EB0200A94105D24046214652
:1023E00090461C460B46024623F00040104347D05F
:1023F000270DC7F30A00C3F30A510290401A019057
:1024000040286BDAC3F3130040F4801B0098924617
:1024100020B10023D2EB030A63EB0B0B0198594662
:10242000C0F14002504600F019FA06460D465046EB
:102430005946019A00F031FA10EB0800614100247E
:1024400087EA115284EAE7731A4340D0009A62B3D4
:10245000019A012A4FEA075215DC001B61EB0201C9
:102460004FF0004202EA0752CDE90042001C41F55C
:10247000801132462B4600F068FA03B0BDE8F08FB9
:1024800040462146F9E7001B61EB0201001C41F5C3
:10249000801300185B412018A2F5001747EB0301D9
:1024A00040EAD570B6196D4111E06D084FEA360665
:1024B00045EAC0754FEA0752001B61EB0201001CA0
:1024C00041F5801149084FEA300000195141324668
:1024D0002B4603B0BDE8F04F00F028BA0098012267
:1024E00040000023D0EB020263EBE073009821462A
:1024F0004FEAE074B8EB000061EB0401E9E783F018
:1025000000435BE781F0004158E72DE9FE4F81EA87
:10251000030404F0004421F0004100944FF0000B4C
:1025200023F0004350EA01045ED052EA03045BD07A
:10253000C3F30A54C1F30A552C44A4F2F3340194B2
:10254000A0FB0254C1F3130141F48011C3F3130340
:1025500043F4801301FB024400FB034E840A970AF4
:1025600044EA815447EA8357A4FB076802958D0A21
:1025700005FB07854FEA932C04FB0C542705029DAD
:102580004FEA065847EA1637B5EB08056EEB070C1D
:10259000870E920E47EA811742EA8312A7FB0201D7
:1025A000B6EB0B0164EB00042B0D43EA0C335E1811
:1025B00044EB1C50DA465146E7FB0201C5F3130415
:1025C0004FEA0B3343EA14534FEA0432019C43EAC7
:1025D0000603A4F10C040294009CCDE900B400F0C1
:1025E000B4F903B0BDE8F08F00200146F9E72DE90A
:1025F000F04D81EA030404F0004B21F0004514463D
:102600004FF0000A23F0004150EA050220D054EABE
:1026100001021DD0C5F30A570246C5F31303C1F3E7
:102620001300C1F30A5640F4801543F48013A7EB5E
:102630000608101BD64608F2FD3873EB050002D3DE
:1026400008F1010801E092185B41B8F1000F03DACC
:1026500000200146BDE8F08D00204FF480110646B1
:1026600084460EE0171B73EB050705D3121B63EBC3
:10267000050306434CEA010C49084FEA3000921862
:102680005B4150EA0107EDD152EA030012D082EA21
:10269000040083EA0501084305D0101BAB4106D2B4
:1026A0000122002306E000224FF0004302E06FF019
:1026B000010253101AEB06004CEB085110EB0A0014
:1026C00041EB0B01BDE8F04D00F030B9962300223C
:1026D000114600F0FDB80EB540F2334102910021E1
:1026E000CDE900110A460B4600F02FF903B000BDFA
:1026F0000EB540F2334202920022CDE90022134689
:1027000000F023F903B000BD20F00040C10DC0F37C
:10271000160040F400007F2901DA00207047962956
:1027200003DCC1F19601C840704796398840704774
:1027300070B5C1F30A5201F000450024C1F3130142
:1027400040F2FF3341F480119A4201DA002070BD5B
:1027500040F233439A42A2F2334203DC524200F089
:102760008CF800E090402C43F1D0404270BDC1F3A2
:102770000A5210B5C1F3130140F2FF3341F4801146
:102780009A4201DA002010BD40F233439A42A2F28D
:10279000334203DC524200F070F810BD904010BD8F
:1027A000C1F30A52C1F3130140F2FF3341F4801127
:1027B0009A4202DA00200146704740F233439A42BF
:1027C000A2F2334202DC524200F057B800F046B8A1
:1027D00030B5041E71F1000404DB4FF000444042A8
:1027E00064EB0101141E73F1000405DB1C464FF07D
:1027F0000043524263EB04038B4208BF824230BD68
:1028000030B5041E71F1000404DB4FF00044404277
:1028100064EB0101141E73F1000405DB1C464FF04C
:102820000043524263EB0403994208BF904230BD1B
:1028300030B50B46014600202022012409E021FA90
:1028400002F59D4205D303FA02F5491B04FA02F58D
:102850002844151EA2F10102F1DC30BD202A04DB60
:10286000203A00FA02F1002070479140C2F12003A3
:1028700020FA03F3194390407047202A04DB203AE2
:1028800021FA02F00021704721FA02F3D040C2F190
:1028900020029140084319467047202A06DBCB17D7
:1028A000203A41FA02F043EAE07306E041FA02F30B
:1028B000D040C2F1200291400843194670470029D8
:1028C000A8BF7047401C490008BF20F001007047B6
:1028D00010B4B0FA80FC00FA0CF050EA010404BF16
:1028E00010BC704749B1CCF1200421FA04F411FA6C
:1028F0000CF118BF012121430843A3EB0C01CB1DB0
:102900004FEA00614FEA102042BF002010BC704720
:1029100000EBC35010440029A4BF10BC7047401CFA
:10292000490008BF20F0010010BC704710B5141E0C
:1029300073F1000408DA401C41F1000192185B4178
:102940001A4301D120F0010010BD2DE9F04D92464F
:102950009B4611B1B1FA81F202E0B0FA80F2203266
:102960009046FFF77BFF04460F4640EA0A0041EA23
:102970000B0153465A46084313D0114653EA01004F
:1029800019D0C8F140025046FFF777FF05460E46C2
:10299000504659464246FFF761FF084305D00120E3
:1029A00004E020463946BDE8F08D0020054346EAA4
:1029B000E0762C4337430A986305E40AA0EB08004D
:1029C0000022FD0A44EA47540A3002D5002001469D
:1029D000E9E7010510196941DDE908450019694178
:1029E000BDE8F04DA2E700002DE9F041054621F0D9
:1029F00000400C46284309D0C4F30A5040F233414A
:102A0000884205DD28462146BDE8F0812846FBE7DF
:102A100040F2FE31884210DC0CDB4FEA043040EA21
:102A2000155050EA053105D0104804F0004101432B
:102A30000020E9E700200146E6E7A0F233404642E5
:102A4000C6F1400228462146FFF708FF07468846A0
:102A5000284621463246FFF710FF43463A46FFF725
:102A600065FF3246BDE8F041FFF7F8BE0000F03FD9
:102A7000064C074D06E0E06840F0010394E80700CB
:102A800098471034AC42F6D3FFF722FBF87C0101E3
:102A9000487D010170B58C1810F8015B15F0070333
:102AA00001D110F8013B2A1106D110F8012B03E0E7
:102AB00010F8016B01F8016B5B1EF9D12B0705D4EF
:102AC0000023521E0DD401F8013BFAE710F8013B38
:102AD000CB1A921C03E013F8015B01F8015B521E54
:102AE000F9D5A142D8D3002070BD10B512F006F977
:102AF000BDE810400CF09AB9014806F46DB0000032
:102B0000DCF7800010B51E480068002800D0804720
:102B10001C4900200870811E1B4801601B494FF0B2
:102B2000007008601A4CD4F8C002800704D4F42264
:102B300018A11DA006F452F02A480168D4F8C40276
:102B400061F31D3040F00100C4F8C40205F459F2ED
:102B500000214FF03040C1608161C11741610162C5
:102B600005F410F208484038016821F48001016042
:102B70001D480068002802D0BDE81040004710BD85
:102B800060248000C046800044C500A080E200E0D0
:102B900000E000A0727769705F736C6565705F63B9
:102BA0006F6D6D6F6E2E63004D43555F5355422D13
:102BB0003E424C455F44534C4545505F434F525253
:102BC0005F454E2026204D43555F5355425F424C92
:102BD000455F44534C4545505F434F52525F485701
:102BE0005F454E00542480006424800000214FF093
:102BF0003040C1608161C117416101620649022014
:102C000004220A60BFF34F8FBFF36F8F0860BFF3DA
:102C10004F8FBFF36F8F704780E100E004490220BF
:102C2000C1F800010860BFF34F8FBFF36F8F70478B
:102C300080E100E00249096801F007010170704776
:102C400004C500A030B4062821D212490A6802F057
:102C50000702824212D00A680F4B1A400F4C2243DF
:102C60000A6000BF00BF00BF00BF0A681A400C4BDB
:102C7000024333F8203042EA83420A600849183997
:102C800051F820000749086030BC76F4B39130BC9D
:102C90007047000004C500A0F8FFE3FF050008002E
:102CA000F06A01015841800004480068044900F0BE
:102CB000070051F8200003490860704704C500A0D0
:102CC000D86A0101584180000648016841F470014A
:102CD00001600548006800F48070002801D110F000
:102CE00065BC704788ED00E078C500A00FB4054BC7
:102CF00010B503A9044A029800F092F910BC5DF8DF
:102D000014FB0000B1840001844480000FB41CB5A2
:102D10000A46521ECDE9000207A9054B6A460698ED
:102D200000F07EF9009A002111701CBC5DF814FBC4
:102D30004F3700010FB4084B10B504A902AA03983D
:102D400000F06EF9044602A9002000F00BFD2046B9
:102D500010BC5DF814FB0000653700017CB5491E0E
:102D60001C461546CDE90001044B6A46214628461B
:102D700000F056F9009A002111707CBD4F37000118
:102D8000002809DB00F01F0201219140400980006A
:102D900000F1E020C0F880127047002804DB00F149
:102DA000E02090F80004704700F00F0000F1E020F0
:102DB00090F8140D7047002804DB00F1E02090F833
:102DC0000004704700F00F0000F1E02090F8140DAF
:102DD0007047000002480068C0F3022070470000FE
:102DE0000CED00E010B5002821D0114B0022001F8F
:102DF000196803E0814203D80A4649680029F9D1DD
:102E000052B11368841A9C4204D1006818441060BF
:102E1000104602E0506000E0186039B102680B1AF9
:102E2000934203D10B681A4402604968416010BDA7
:102E3000B8478000F0B50B30154D20F00701002495
:102E4000144A0FE003688B420BD38B4205D95E1AFC
:102E500043184768C3E9006700E04368136002C095
:102E600004E0021D10680028ECD12046002802D1A1
:102E7000286808B10020F0BD064A07481060074ADC
:102E8000121A22F00702C0E9002401202860D7E7C7
:102E9000BC478000B847800004C083000000840065
:102EA00002E008C8121F08C1002AFAD170470020AA
:102EB00001E001C1121F002AFBD170472DE9FF5F1D
:102EC000DDE90220010DDDF838B0024318D044F6E8
:102ED0001050A1F2FF3141430D140F98012820D06A
:102EE000A5EB0B00401C5FEA000A4FF00004474EC0
:102EF000DFF81C91A046504616D5CAF1000728E01D
:102F00000F98012443A2012808D0002100980F9BAC
:102F1000C0E90021C0E90243BDE8FF9F6FEA0B0151
:102F2000F4E7CBF10000DEE7074612E0F80707D030
:102F30002246334640464946FFF7E7FA804689462F
:102F40002246334610461946FFF7DFFA04460E467E
:102F50007F10002FEAD1DDE90201BAF1000F4246ED
:102F60004B4602DAFFF7D1FA01E0FFF740FB0446D7
:102F70000E460022284BFFF743FC03D84FF0FF30EA
:102F8000014607E00022254B20463146FFF716FA9E
:102F9000FFF706FC102409E0002C0ADB0A220023BC
:102FA000FFF7B0F8019B30321A55641E50EA010257
:102FB000F2D1641C019AC4F1110314440F9A012A3E
:102FC00003D0012208430DD10AE0084304D00020B9
:102FD0004FF0110B0F9080E7A3EB0B056D1E0DE07A
:102FE0005B4504DD4FF0000205F1010504E003DA62
:102FF0004FF00002A5F10105002AECD000980F99CE
:10300000C0E90231C0E9004586E700000000244025
:103010000000F03F300000000000F0430000E03FFF
:103020002DE9FF4F95B09B468946064600250FE2E5
:10303000252877D100242746F84A0121059400E08D
:10304000044316F8013F203B01FA03F01042F7D188
:1030500030782A2811D06FF02F033078A0F1300299
:10306000092A16D8059A44F0020402EB820203EB07
:1030700042021044761C0590EFE759F8042B0592A4
:10308000002A03DA504244F40054059044F002044C
:10309000761C30782E2816D116F8010F44F004045F
:1030A0002A280DD06FF02F023078A0F13003092BC1
:1030B00009D807EB870302EB4303C718761CF3E735
:1030C00059F8047B761C30786C280FD006DC4C282D
:1030D00017D068280DD06A2814D104E0742810D0C5
:1030E0007A280FD10DE044F400140AE044F480146F
:1030F00001E044F440147278824202D104F5801455
:10310000761C761C307866280BD013DC582877D0D4
:1031100009DC002875D04528F6D04628F4D0472889
:103120001AD19DE118E0632835D0642879D065284C
:1031300012D195E1702873D008DC6728F1D0692896
:103140006FD06E280DD06F2806D1B5E073282CD033
:10315000752875D0782874D05A46179990476D1CF9
:1031600075E1C4F30250022809D003280DD0D9F824
:10317000001004280DD00D6009F1040967E1D9F8A9
:103180000010EA17C1E90052F6E7D9F800100D80E7
:10319000F2E70D70F0E719F8041B8DF8001000201D
:1031A0008DF80100EA46012003E059F804AB4FF026
:1031B000FF3061074FF0000102D40DE008F101017A
:1031C0008846B9420FDA8045F8DB1AF80810002962
:1031D000F4D108E008F1010188468142FADB1AF8CF
:1031E00008100029F6D105985B46A0EB0807214698
:1031F0003846179A00F094FA284400EB080507E0D7
:103200004DE029E10DE01AF8010B5A461799904755
:10321000B8F10108F7D25B4621463846179A13E108
:1032200042E00A220092C4F302524FF0000A022A3E
:1032300008D059F804CB032A4FEAEC710AD00DE00C
:1032400029E02AE009F1070121F00702F2E802C1B2
:10325000914609E00FFA8CFC4FEAEC71042A03D185
:103260004FFA8CFC4FEAEC71002907DA0A4600217C
:10327000DCF1000C61EB02012D2202E0220504D5F5
:103280002B228DF80420012203E0E20701D0202246
:10329000F7E7904659E00A2102E010220DE01021E4
:1032A0004FF0000A00910BE010224FF0000A44F0AA
:1032B00004040827009203E008224FF0000A00925D
:1032C000C4F30252022A05D059F804CB0021032A84
:1032D00008D009E009F1070121F00702F2E802C174
:1032E000914605E01FFA8CFC042A01D10CF0FF0C7A
:1032F0004FF00008220728D5702806D0009B83F0E5
:10330000100353EA0A0305D00EE040228DF8042092
:10331000012208E05CEA010206D030228DF8042088
:103320008DF8050002229046009B83F0080353EAC3
:103330000A030AD15CEA010201D1620705D53022F5
:103340008DF804204FF001087F1E582804D034A0C7
:1033500003900EA802900DE036A0F9E753466046B0
:10336000009AFEF7CFFE84460398825C0298401EC6
:10337000029002705CEA0100F0D1029806A9081AD6
:1033800000F1200A600702D524F4803400E0012710
:10339000574502DDA7EB0A0000E0002000EB0A0120
:1033A000009005984144401A0590E00306D45B461E
:1033B0002146179A059800F0B3F90544002706E066
:1033C00001A85A46C05D179990476D1C7F1C474560
:1033D000F6DBE0030CD55B462146179A059800F012
:1033E0009FF9054404E030205A46179990476D1C18
:1033F0000099481E00900029F5DC08E00298029927
:103400005A460078491C0291179990476D1CBAF1F1
:103410000001AAF1010AF1DC65E1000009280100C0
:10342000303132333435363738396162636465663A
:1034300000000000303132333435363738394142FC
:10344000434445460000000000F058F90544761C4E
:10345000307800287FF4ECAD19B02846BDE8F08F35
:10346000620700D4062709F1070222F0070CFCE8E6
:103470000223E14603F000485FEA080C02D00FF295
:10348000702C0DE05FEA045C02D50FF2682C07E0B7
:103490005FEAC47C02D00FF2602C01E0AFF2700C46
:1034A0004FF0FF3823F00043CDF850C065280CD012
:1034B00006DC452809D046281DD047283DD13DE0EF
:1034C000662818D067287ED138E00021112F01DB53
:1034D000112000E0781CCDE9000106A90EA8FFF735
:1034E000EDFCDDE90F010E9A03910021009207F136
:1034F000010A04914DE04FF000400097CDE9011022
:1035000006A90EA8FFF7DAFCDDE90F0203920E9B75
:1035100011990022DDF80CA00093049211B9791CD6
:1035200000EB010AB7EB0A0004D4C0F1FF3007F149
:10353000010A0490AAEB0700019044E0012F00DA91
:1035400001270021112F01DD112000E03846CDE9CF
:10355000000106A90EA8FFF7B1FCDDE90F010E9AE4
:103560000391002104910092BA4621070CD40399DB
:10357000514500DA8A46BAF1010F05DD009AAAF139
:103580000101515C302908D0B84202DA10F1040F71
:1035900006DA0121CDE9011015E0AAF10101E9E700
:1035A000002805DC049901440491AAEB000102E023
:1035B000411C514500DD8A460499401A401C019087
:1035C0004FF000400290200704D40198504501DBE1
:1035D000CDF8048000208DF84F0002980DF14F07C0
:1035E000B0F1004F25D02B200E9002984FF002082A
:1035F00000280CDA404202902D200E9007E00A21AC
:103600000298FFF715F93031029007F8011DB8F163
:103610000001A8F10108F2DC02980028EFD1791E20
:103620000E980870307800F0200040F0450007F850
:10363000020D12A8C01B00F107081498007800B111
:10364000012000EB0A01019801EBE071059841446B
:10365000401A401E0590E00306D45B462146179AA7
:10366000059800F05DF805441498007818B15A46A2
:10367000179990476D1CE00324D55B462146179AA5
:10368000059800F04DF805441CE00498002807DB7D
:10369000DDE90301884203DD0098405C179901E0F1
:1036A000179930205A469047049805F10105401CAF
:1036B00004900198401E019004D12E205A4617997B
:1036C00090476D1CBAF10001AAF1010ADDDC05E0AA
:1036D00017F8010B5A46179990476D1CB8F1000175
:1036E000A8F10108F4DC5B462146179A0598ABE681
:1036F0002D0000002B000000200000002DE9F0410B
:10370000044600251E461746880404D405E03946C1
:103710002020B0476D1C641EF9D52846BDE8F08115
:103720002DE9F041044600251E469046C80301D508
:10373000302700E02027880404D505E041463846BC
:10374000B0476D1C641EF9D52846BDE8F0814A6873
:10375000002A06D00A68531C0B6010704868401E8F
:10376000486070470A68531C0B6010707047000077
:103770002DE9F05F0746894693464FEA5B04A2466F
:103780004D465F4EDFF87C81EFF31080012181F31D
:103790001088D8F8A41221F02001C8F8A41280F3F0
:1037A0001088EFF31080012181F31088D8F8A0125F
:1037B00021F02001C8F8A01280F31088306820F0B2
:1037C00080403060504830603F20D8F8001160F3EE
:1037D0000501C8F80011306820F4601040EAC740C5
:1037E0003060306820F4E02040EA07403060052F68
:1037F00003D1306840F400403060062F03D13068B8
:1038000040F480403060306840F4005030603068F0
:1038100020F060503060306820F00F0040F003006E
:103820003060EFF31080012181F31088344A383280
:10383000116821F0E04141F08041116080F310886F
:10384000306840F08040306001E0D8F80000D8F8DF
:103850000401C0F300200028F7D1EFF3108001210C
:1038600081F31088116841F00041116080F31088E5
:1038700034E000204FF47A711AE0884217D930689A
:1038800020F080403060306840F0004030603068A8
:1038900020F00040306008F0BBFF1C480168491C64
:1038A000016054464D46052078F4A9D16CE7401CD0
:1038B000D8F80421C2F30022002ADED0D8F804018F
:1038C00000F07F01A14200D92146002003E0D8F892
:1038D000002004C5401C8842F9D3641A002CC8D1CA
:1038E0005FEACB7008D0D8F80401C0F300200028AC
:1038F000F9D0D8F800002880BDE8F05F08F088BF54
:1039000008C500A000E000A00A070807A84780003B
:103910002DE9F04107460E464FF000080024274DE0
:103920000BE004EBC40005EB8000801C0722394645
:10393000FEF792FC40B1641CE4B22878A042F0D8B3
:10394000B8F1000F18D102E04FF00108F8E728782D
:103950000A21B0FBF1F201FB12040A2801D2401C3B
:10396000287004EBC40105EB81003968C0F802102F
:10397000B988C180B97901722B7811A21021002079
:1039800005F42EF1307800070BD504EBC40005EBED
:10399000800006F14601BDE8F0410A301C22FEF726
:1039A000F5BB04EBC40005EB800006F12A01BDE87D
:1039B000F0410A301C22FEF7E9BB0000348D820082
:1039C000523A313A616464206C746B206974656D9D
:1039D0002C206E756D203D2025640A000449896BFA
:1039E000084004490A78104300220A70704700001A
:1039F000002001A0F04480002DE9F04104460D466E
:103A0000154F164E0022134620462946FEF7E0FECB
:103A10000FD83068C0F34120012808D0786C401CD2
:103A20007864306820F4C06040F400703060BDE815
:103A3000F08100220A4B20462946FEF7E1FEF6D827
:103A4000306810F4C06FF2D0386C401C38643068B5
:103A500020F4C0603060EAE72C4580000CC500A06F
:103A6000000024402DE9FF4F89B081461C46DDE966
:103A70000A010BF0F1FD7F4D7F4EEF1E4FF0000865
:103A800000283DD087F80280062221462846FEF70E
:103A9000E3FB002834D1337828786978AA78CDE917
:103AA0000703CDE905216A79E978287973A3CDE97F
:103AB0000132CDE9030140F259100090794B7AA20E
:103AC0007FA1022000F0DAFF7FA0FFF70FF9206846
:103AD000C7F80900A088A7F80D00A079F87364F46E
:103AE000A3D58246BAF1000F0AD014226D491931CC
:103AF00004A8FEF74BFBADF814A004A800F0D8FB17
:103B0000DDE90A010CF0ECF9DFF898A1002854D0A7
:103B10000120B870062221465648FEF79DFB3178F9
:103B2000491E084249D1AA7828786978EB78CDE90E
:103B30000532CDE907102879697967A2CDE9012A14
:103B4000CDE9031040F279100090534656A25CA1D3
:103B5000022000F093FF307898B16CA1CDE9011AF2
:103B60004FF4BE720092039053464FA254A102201C
:103B700000F084FF86F800806A4821680160A1880F
:103B80008180694880F800902068C7F80900A08803
:103B9000A7F80D00A079F87364F446D58346BBF10D
:103BA000000F0AD014223F492D3104A8FEF7EEFA87
:103BB000ADF814B004A800F07BFBDDE90A010CF0BD
:103BC00057F9002852D00120B87006222146294812
:103BD000FEF742FB3178491E084247D1A8782A787F
:103BE0006978EB78CDE90530CDE907122979687954
:103BF0004EA2CDE9012ACDE903014FF4C670009031
:103C0000284B29A22EA1022000F038FF307898B16D
:103C10003EA1CDE9011A40F28F1200920390214B90
:103C200021A227A1022000F029FF86F800803D484C
:103C300021680160A18881803B4880F8009020685D
:103C400047F8090FA088B880A079B87164F4ECD463
:103C50000446002C0AD014221249413104A8FEF770
:103C600095FAADF8144004A800F022FB0DB0BDE8B1
:103C7000F08F000067408000EC408000424C455FC0
:103C80005343414E5F4D4143313A2025782D2578ED
:103C90002D25782D25782D25782D25782D2D2D2550
:103CA000640A0000DF5801012E2E5C5372635C75BC
:103CB0007365725C757365725F6170702E6300006E
:103CC0004E4F5F5441470000646973636F766572BD
:103CD00020626F6F740D0A003C2573205343414EE0
:103CE0005F4F50504F5F4D41433A30782530327826
:103CF0002025303278202530327820253032782047
:103D00002530327820253032783E00003C25732063
:103D1000666750656E63696C4D6F6E69746F723A59
:103D200025643E00F8408000FE4080003C25732062
:103D30005343414E5F4F4E45504C55535F4D4143A9
:103D40003A307825303278202530327820253032CC
:103D5000782025303278202530327820253032788E
:103D60003E00000006460F46154672B63846FEF77E
:103D70006CFA402801D9402002E03846FEF765FA87
:103D800080463046FEF761FA402801D9402002E023
:103D90003046FEF75AFA04469C211048FEF70FFA07
:103DA000424639460D48FEF7F1F90C4822463146A5
:103DB0005C30FEF7EBF909484FF0AA310164456425
:103DC0004FF0BB3181644FF0CC3101654FF0DD31F4
:103DD0008165002000F004F8FEE70000D0098100B2
:103DE00030B5ADF20C4D04464FF4806103A8FEF7E8
:103DF000E6F9184D202085F83F0085F89B003CB17E
:103E00002846012C436DC26C09D0022C0CD00FE067
:103E1000104A11A15C3203A8FEF78CFF08E011A143
:103E200003A8FEF787FF03E016A103A8FEF782FFB1
:103E300003A90BA2686CCDE90121009018A3054AE3
:103E400018A1002000F01AFE00F0E4FD0DF20C4D68
:103E500030BD0000D00981005B4552524F525D20B9
:103E6000257300005B5741524E494E475D2050611B
:103E700072616D303A25642C506172616D313A2562
:103E8000640000005B504152414D5D205061726101
:103E90006D303A25642C506172616D313A256400B1
:103EA000000000006170705F6173736572742E634F
:103EB00000000000014877F4DF9400001043800008
:103EC00006460F4690461D4672B64046FEF7BDF9BF
:103ED000402801D9402002E04046FEF7B6F90446EA
:103EE0009C210D48FEF76BF9224641460A48FEF731
:103EF0004DF909484FF05531016445644FF0663182
:103F00008164C6644FF0773101654765C9438165B7
:103F10000220FFF765FFFEE7D00981002DE9F0419F
:103F200006460F4690461D464046FEF78EF940284D
:103F300001D9402002E04046FEF787F904469C2163
:103F40000D48FEF73CF9224641460B48FEF71EF9A4
:103F500009484FF011310164456449008164C66429
:103F60004FF03331016547654FF044318165BDE85D
:103F7000F0410120FFF734BFD00981002DE9F04165
:103F800086B00546884628A040F2A911254FCDE904
:103F90000010CDE902783B4628A22EA1032000F0B4
:103FA0006DFD2E4E307878B1002063F48BD004463E
:103FB00054B1142207F1140101A8FEF7E7F8ADF897
:103FC000084001A800F074F9B8F1000F07D00020F4
:103FD00046F8030FB08022490120087004E02868E9
:103FE00046F8030FA888B08064F4D8D2044654B1D0
:103FF00014220C49283101A8FEF7C8F8ADF8084092
:1040000001A800F055F917A0CDE9010740F2BD1154
:104010000091044B09A20FA1032000F02FFD06B070
:10402000BDE8F081345901013C2573206D6F6E6944
:10403000746F724D6F64653A25643E002E2E5C539A
:1040400072635C757365725C757365725F617070C5
:104050002E6300004E4F5F544147000064408000D3
:10406000EC4080003C2F25733E00000030B585B049
:104070000446184D18A1CDE901154FF4F4720092D1
:104080002B4617A21CA1032000F0F8FC1C4A0121BA
:10409000117001F0E1F9204602F085FE044654B1AA
:1040A000142205F118016846FEF770F8ADF80440D7
:1040B000684600F0FDF813A0CDE9010540F2EF11CC
:1040C0000091044B06A20CA1032000F0D7FC05B020
:1040D00030BD00009C5901013C25733E00000000EA
:1040E0002E2E5C5372635C757365725C75736572BA
:1040F0005F6170702E6300004E4F5F5441470000B7
:10410000644080003C2F25733E0000003EB5114CFA
:1041100011A0CDE901044FF407710091234610A2CC
:1041200015A1032000F0AAFC154800210170407879
:1041300010B164200EF0FAF912A0CDE9010440F2AA
:1041400022210091034B06A20BA1032000F096FC54
:104150003EBD00000C5A01013C25733E00000000EA
:104160002E2E5C5372635C757365725C7573657239
:104170005F6170702E6300004E4F5F544147000036
:10418000644080003C2F25733E000000082808D2C0
:1041900000EB4001044800EB4110017809B1001D1B
:1041A000704700207047000044F980002DE9F04777
:1041B0000646894600244FF0FF3847460121002E6D
:1041C00067D0307880B101280ED002280CD00328A7
:1041D0000AD0042808D0052806D0062804D00728CD
:1041E00002D04046BDE8F087EFF31083012282F34E
:1041F00010882A4D944604EB440205EB421292F8D3
:1042000000A0BAF1000F03D092F804A082450DD1AE
:1042100004EB440005EB401090F82D00022803D079
:10422000274682F800C005E0082403E0641CE4B2DD
:10423000082CE0D383F31088082C2AD2DFF860A082
:104240009AF8000038B98AF800C0032115480EF02A
:1042500013F9AAF8020004EB440105EB411530788C
:10426000287105F108002422311DFDF78FFF0E484B
:1042700068630E48E86300202864C5F85C9003205A
:1042800017F4CAD7032017F4E5D7281D06F030FB32
:10429000014601B147463846A4E7000044F98000D2
:1042A000F4428000086B0101C57E0001497E0001D7
:1042B00010B5ADF5047D04464FF4007104A8FDF778
:1042C0007EFF207810B1012819D01DE00021174889
:1042D000A28830F831309A4207D100EBC10014A116
:1042E000436804A8FEF726FD0EE02B2902D0491CE6
:1042F000C9B2EEE714A104A8FEF71CFD04E01DA15D
:1043000004A86268FEF716FD04A921A22069CDE980
:1043100001210090D4E902231EA1002000F0AEFB91
:1043200000F078FB0DF5047D10BD00001C438000FB
:104330004572726F7220636F646520307825303467
:10434000583A2025730000004572726F7220636F27
:104350006465203078253034583A204E6F20666FDF
:10436000756E6420696E666F726D6174696F6E2E12
:104370000000000028257329206973206E6F7420C7
:1043800065737461626C69736865642E0000000077
:10439000257300006170705F6572726F722E63002A
:1043A00030B4447C428B831C00F11C01204630BC9D
:1043B000FFF758BB70B588B005460C461646142169
:1043C00003A8FDF7FCFE8DF80C508DF80D4014226B
:1043D00031460DF10E00FDF7D9FE0B4A142103A85A
:1043E00000F0B0FD002C0DD108A0AC21CDE90010EB
:1043F000094B0AA214A1022000F040FB31462846D6
:10440000FFF734FE08B070BD51440001436F6E6E7B
:1044100065637465642E00004B6001012E2E5C53B1
:1044200072635C757365725F63616C6C6261636B10
:104430005C757365725F6761705F63616C6C62610C
:10444000636B2E63000000004E4F5F544147000035
:104450001CB504460CA13B23CDE900310C4B0DA249
:1044600017A1032000F00AFB224617485178036B7E
:10447000984716A03E21CDE90010054B05A210A1DA
:10448000032000F0FBFA1CBD3C2573203E00000019
:104490007C6001012E2E5C5372635C6D69645F6207
:1044A0006C655C656E69726F6D656E745C6D424CB7
:1044B000455F656E69726F6D656E742E63000000F6
:1044C0004E4F5F54414700009CF280003C2F257303
:1044D000203E0000012162F4679300003EB50546CE
:1044E0001446002911D109A1CDE90114BE22009280
:1044F0000C4B0DA217A1022000F0C0FA03B0214618
:104500002846BDE83040FFF701BE3EBD44697363F5
:104510006F6E6E656374656420283078253032587C
:10452000292E00005E6001012E2E5C5372635C75C3
:104530007365725F63616C6C6261636B5C757365FC
:10454000725F6761705F63616C6C6261636B2E6345
:10455000000000004E4F5F54414700000EB5002898
:104560000AD006A17322CDE9002102900B4B0CA2C8
:1045700016A1022000F082FA0EBD00005363616EA6
:104580002073746172746564206661696C65642867
:10459000305825303258292E0000000020600101DB
:1045A0002E2E5C5372635C757365725F63616C6C15
:1045B0006261636B5C757365725F6761705F636195
:1045C0006C6C6261636B2E63000000004E4F5F54A1
:1045D000414700001CB5002903D0BDE81C4000F095
:1045E0004BBC05A08321CDE90010074B07A212A107
:1045F000022000F043FA1CBD5363616E2054696DC4
:10460000656F75742E000000366001012E2E5C531C
:1046100072635C757365725F63616C6C6261636B1E
:104620005C757365725F6761705F63616C6C62611A
:10463000636B2E63000000004E4F5F544147000043
:1046400038B505460C46002100918DF800508DF8D4
:104650000140ADF80220054A0421684600F072FCD2
:10466000002C02D1284600F091FB38BD71460001B4
:104670001CB504460CA14823CDE900310C4B0DA21A
:1046800017A1032000F0FAF9224617485178036B6E
:10469000984716A04B21CDE90010054B05A210A1AB
:1046A000032000F0EBF91CBD3C2573203E00000008
:1046B000906001012E2E5C5372635C6D69645F62D1
:1046C0006C655C656E69726F6D656E745C6D424C95
:1046D000455F656E69726F6D656E742E63000000D4
:1046E0004E4F5F5441470000D0F280003C2F2573AD
:1046F000203E00002DE9FC5F81468846B9F1000F9D
:104700000AD0524E30784044202807D9B8F1000F23
:1047100004D00420BDE8FC9F0520FBE700254FF0F6
:10472000010A4B4F80E00020787009EB05143378C4
:1047300062680FE006EB0011D1F808C0944507D17C
:10474000097994F800C0614502D187F801A003E01F
:10475000401CC0B28342EDD80092207A8DF804004C
:10476000607A8DF8050007208DF806002078009902
:1047700000F074F82078694600F096F80028C9D156
:104780007878B0BB307894E80E1006EB0010001D6E
:10479000B346A0E80E10A07A022825D1207801287F
:1047A00022D1207A032806D0042809D005280DD06C
:1047B000062815D110E00021606800F4C2F20FE075
:1047C00040F20111606800F4BCF209E04FF0011101
:1047D000606800F4B6F203E01E49606800F4B1F2CC
:1047E0004FF0007074F484D4207818B101280ED0F2
:1047F00013E017E0062017F40FD5062017F42AD58A
:10480000072017F409D5072017F424D505E0122056
:1048100017F402D5122017F41DD59BF80000401C98
:104820008BF800006D1CEDB24545FFF47CAF387885
:1048300050B9012108480DF01FFE7880002801DAE8
:10484000042067E787F800A0002063E744FC8000AD
:10485000F842800001010100146B010110B50C4603
:10486000002805D0012811D0022813D0062010BD41
:104870002004000C03D0A1B2094806F0E1F9200C95
:104880000CD0210C074806F0DBF907E0E0B205F098
:1048900015FC03E004F01F0006F030FA002010BD04
:1048A000000001A0001001A010B58EB00C46002C35
:1048B00007D040B101282BD0022841D006200EB0ED
:1048C00010BD0520FBE7207907281FD0304951F89B
:1048D00020000B90A1F12400617950F821000C9088
:1048E000A0790D9020680104090C05D080B20A90CF
:1048F0000AA9284806F0DEF92068010C45D0000C12
:104900000A900AA9244806F0D5F93EE00720D6E728
:104910002079072812D01E49203151F82000079035
:10492000A1F13800617950F821000890A079099030
:104930002078069006A805F003FC26E00720BEE7D5
:104940002079C11E032901D80720B8E7072809D01C
:104950000F49403151F8200002902079072803D0F8
:10496000012002E00120F7E7002003900848617968
:104970000C3850F821000490A0790590207800F0C0
:104980001F00019001A806F001FA002097E700003F
:10499000446B0101000001A0001001A070B50C469D
:1049A0001546002D03D0012D01D0042070BD28B183
:1049B000012813D0022816D0062070BD2004000C58
:1049C00004D0A1B22A460B4815F494D0200C0ED086
:1049D000210C2A46084815F48DD008E0A0B22946DB
:1049E00005F002FC03E0A0B2294617F4E7D300204B
:1049F00070BD0000000001A0001001A0002806D03A
:104A0000002904D0024AD269002A00D0104770471A
:104A10006C0B81000248006A002800D000477047F4
:104A20006C0B810070B50D4616460D4C00280AD05F
:104A30000178032911D80121A17601461A222046C6
:104A4000FDF7A4FB05E00020A0761A210448FDF73D
:104A5000B6FBE5612662002070BD012070BD00003C
:104A60006C0B8100044A1044807D084201D0012073
:104A700070470020704700006C0B81002DE9FE4F4D
:104A8000DDF830B00646924699460024002701978B
:104A900002975A480178B14202D2807E00287DD127
:104AA0000DF13808CDF80080EFF311850220FEF7F4
:104AB00082F9014652480068C0F30220401C0122DE
:104AC00082408818C0B280F3118801213046FFF778
:104AD000C9FF38B14B484C4950F82620204600F019
:104AE000D3F804461C213046FFF7BCFF00285ED0F7
:104AF00046A24549204600F0C7F8204484B204216C
:104B00003046FFF7AFFFF8B152463F49204600F06C
:104B1000BBF8204484B208213046FFF7A3FF38B128
:104B20003BA23949204600F0AFF8204484B20BE0A4
:104B300010213046FFF796FF30B136A232492046A9
:104B400000F0A2F8204484B208213046FFF78AFF23
:104B500090B14A462C49204600F096F8204484B291
:104B600010213046FFF77EFF30B12BA226492046A8
:104B700000F08AF8204484B210213046FFF772FF1B
:104B800070B15B4626A2052101A8FEF7BFF801AA75
:104B90001D49204600F078F8204400E02BE084B264
:104BA00020A21949204600F06FF8204484B216482C
:104BB000C4F58071204443460D9AFEF7CFF8009764
:104BC0004FF48071002804DB2044884201DC86B267
:104BD00000E00E46B01C884200D9FE2612A20A4907
:104BE000304600F051F8304481B20748FFF706FF25
:104BF000E8B280F31188BDE8FE8F00006C0B8100E5
:104C00000CED00E0744480006C0A81002800000074
:104C1000200000003A000000204C696E653A000058
:104C2000256C6400292000000D0A00000FB438B57F
:104C300005AC0094EFF311850220FEF7BCF8104993
:104C40000968C1F30221491C01228A401044C0B204
:104C500080F3118823464FF4807421460948049A52
:104C6000FEF77CF8A04201D881B200E02146054859
:104C7000FFF7C4FEE8B280F3118838BC5DF814FB7E
:104C80000CED00E06C0A810030B5054600200029DB
:104C90000CD0002A0AD006E02B18FF2B06D8CC54E3
:104CA000521C401C80B21478002CF5D130BD00009D
:104CB0002DE9F04104460026EFF31085012080F332
:104CC0001088DFF89880D8F80000002801D100F0A3
:104CD00047F8002C14DD04F10804A4F1010000F0F1
:104CE0000300A4EB000101F1030191B31B4FA7F1F5
:104CF0000807386881422CD2184BD8F8004004E0ED
:104D00003046BDE8F081234614466068884202D2EE
:104D10002268002AF7D111480830844219D01E6851
:104D20000836206818606068421A0C2A04D9601896
:104D30004260616003F0C4FB61683868401A386003
:104D40007A68904200D2786041F0004060600020B4
:104D5000206085F310883046D3E700009844800037
:104D60000949084808600020486008310860486028
:104D7000044801604FF40041416003480838016075
:104D800041607047900B81009844800030B585B039
:104D90000446204D20A14FF4FF708DE823002B46E0
:104DA0001FA225A10320FFF769FE2549897811B1CB
:104DB000012911D020E020460AF0D4F80446DCB1E5
:104DC000142214491C316846FDF7E0F9ADF804409F
:104DD0006846FFF76DFA0FE020460BF069F90446CC
:104DE00054B114220B4930316846FDF7CFF9ADF8C4
:104DF00004406846FFF75CFA12A0CDE9010540F2D5
:104E00000E210091034B06A20BA10320FFF736FEF3
:104E100005B030BDC85901013C25733E00000000BB
:104E20002E2E5C5372635C757365725C757365726C
:104E30005F6170702E6300004E4F5F544147000069
:104E4000644080003C2F25733E00000010B5094AE5
:104E500006214CF201000AF04FFF02F0DDFA0AF0E1
:104E600043FE0AF0E1FB002073F4FCD6BDE81040DD
:104E700010F090BAB65F010130B58BB0234D24A07D
:104E8000CDE9010540F2CB1100912B4622A228A1C9
:104E90000320FFF7F3FD00218DF818100C20ADF86A
:104EA0002000ADF82200ADF824104FF4C870ADF822
:104EB000260021480268CDF819208088ADF81D0031
:104EC0001D4880798DF81F00ADF8281006A9002034
:104ED00001F0D0FE044654B1142205F1180101A8D6
:104EE000FDF754F9ADF8084001A8FFF7E1F913A068
:104EF000CDE901054FF4ED710091044B06A20CA120
:104F00000320FFF7BBFD0BB030BD0000705901015D
:104F10003C25733E000000002E2E5C5372635C75CE
:104F20007365725C757365725F6170702E630000EB
:104F30004E4F5F54414700006D4080003C2F257369
:104F40003E0000002DE9F04180460F461446EFF385
:104F500011862448017824480068C0F30220401CD0
:104F6000012282408818C0B280F311881F4DE87971
:104F70000AF0B6FEA979884201D1012000E00020A4
:104F800028B11020F1B281F31188BDE8F081E979F0
:104F9000286801EB410140F82140E979082201EB42
:104FA000410102EB81014752B8F1000F12D08FB1DD
:104FB0003846FFF77DFE044694B13A464146204606
:104FC000FDF7E4F8E879296800EB4000042202EBE1
:104FD00080000C50E8790AF083FEE8710020D1E7E8
:104FE0001020D2E702E400E00CED00E088448000ED
:104FF00070B50446002C11D0601C00EB400080000E
:105000000646FFF755FE074D286048B13146FDF7CB
:10501000D6F8AC800020A871E87170BD012070BD89
:10502000102070BD884480000078012801D101491A
:1050300008707047C44480002DE9F04F95B00446D5
:1050400094F835008DF82C000F270C972078002855
:1050500017D000200D904FF480100E9000250F9572
:1050600000131090A06B4FF002084FF010094FF0A2
:10507000200A4FF0040BB0F5E02F04D811951295DB
:105080000DE00220E6E7B0F5702F04D8CDF844908B
:10509000CDF8488003E0CDF844A0CDF848B0139592
:1050A000149500210BA8FFF781F82178364EC1EB4B
:1050B000011101EB410106EB8101A1F8AC000028D0
:1050C00003DA042015B0BDE8F08FFFF75FF8217810
:1050D000C1EB011101EB410106EB8101486421782C
:1050E000C1EB011101EB410106EB8101091DC16218
:1050F00094F836008DF80400207878B101200290F1
:1051000003974FF400100490C01205900695A06B11
:10511000B0F5E02F04D8079508950DE00320EEE7E1
:10512000B0F5702F04D8CDF81C90CDF8208003E0A6
:10513000CDF81CA0CDF820B009950A95002101A852
:10514000FFF734F82178C1EB011101EB410106EBC7
:105150008101A1F8AE00002801DA0420B2E7FFF7D0
:1051600015F82178C1EB011101EB410106EB81013A
:1051700088642178C1EB011101EB410106EB81014B
:10518000091DC16200209DE7240181007CB5022237
:105190002E4C0368A34201D1002203E02C4CA34211
:1051A00000D101228DF800102A4D012331B10129CF
:1051B00010D002291CD0032928D02CE0C06C01900B
:1051C000C2EB021000EB400005EB800000F8B23F9C
:1051D000437020E0016A406A081AADF80400C2EB8F
:1051E000021000EB400005EB800080F8B33012E0C5
:1051F000C16A006B081AADF80400C2EB021000EBA4
:10520000400005EB800080F8B23004E0C16A006B1A
:10521000081AADF80400C2EB021000EB400405EBE5
:105220008400002180F8B1104AB190F8851001295E
:1052300005D17C30012241680078FFF7AFFB55F8BB
:105240002410002901D0684688477CBD00C100A019
:1052500000C000A0240181002DE9F04389B004467C
:105260000F462678002C05D0022E05D3082009B061
:10527000BDE8F0830520FAE700F0D2F8242204F11B
:1052800010016846FCF782FF211D20780EC90FF03F
:10529000C7F80028EBD194F8340002280BD1EFF3C3
:1052A0001085012080F310882046FFF7C5FE85F3A6
:1052B00010880028DBD194F83400012806D0234D53
:1052C000A85716F4A9D7A85716F4C4D7C6EB0610EA
:1052D000DFF87C9000EB400809EB880514F8341FD8
:1052E00005F8781FA078A8706078343C6870783D25
:1052F00005F17C003022211DFCF748FF49F8287099
:1053000005F10800182204F13801FCF73FFF0F48AF
:10531000001D50F826006860281D05F07BFE281D42
:1053200005F08EFE0B4C0126207850B926700748F8
:10533000032114300DF0A0F86080002801DA042069
:1053400095E705F8B06F0020687090E7D06B010119
:1053500024018100024380002DE9F04105460F46FB
:1053600090460126022D17D2B7B1B8F1000F13D025
:10537000C5EB051000EB4001284800EB810494F8D0
:10538000B00048B194F87800012805D094F8B11025
:1053900021B10220BDE8F0810420FBE7012184F85F
:1053A000B11010B1022825D112E055B194F8850052
:1053B000012806D194F87C000022D4F88010FFF771
:1053C000EDFA201D4246394605F051FE064611E031
:1053D00055B194F88500012806D194F87C0000228C
:1053E000D4F88010FFF7DAFA201D424639461BF444
:1053F000CDD206467EB1002084F8B1004DB194F8BC
:105400008500012805D17C34012220786168FFF7EE
:10541000C5FA3046BEE70020BCE700002401810049
:1054200010B50B4C47202070607800280ED14FF04B
:10543000E0200069C00701D105F050FC0120607038
:10544000BDE81040032103480DF016B810BD000060
:1054500000438000C46B01013EB5104C10A0CDE9A3
:10546000010440F2E121009123460FA218A103207C
:10547000FFF704FB18484078042802D1322000F0DE
:10548000F5FC16A0CDE9010440F2E6210091034BA2
:1054900005A20FA10320FFF7F1FA3EBD1869010133
:1054A0003C2573203E0000002E2E5C5372635C6D21
:1054B00061786579655C7372635C6D617865796547
:1054C0005F70726F647563745F746573742E6300CC
:1054D0004E4F5F5441470000E84080003C2F257349
:1054E000203E00002DE9FF47EC4CED4DEDA160782A
:1054F000CDE901154FF4D972009203902B46EEA22C
:10550000F7A10320FFF7BAFA6078F74F00264FF4AF
:105510007A7840F2DC5940F6C41A1D2839D2DFE807
:1055200010F038001D0038003800390060007700A6
:1055300088009F00B500C600DD00F30005011D01D5
:10554000400156014C036503820368017E0194010A
:1055500020033803A6010D03A803C103E3A0CDE98E
:10556000010540F2B7110091CD4BD3A2DCA103207D
:10557000FFF784FA02F0A8FEC84800211030FEF7B9
:10558000FDFC04206070002242F21071A068FFF759
:10559000E0DA99E3DBA0CDE9010540F2C111009109
:1055A000BF4BC5A2CEA10320FFF768FA387838B107
:1055B0000520607000224146A068FFF7CADA83E345
:1055C000D7A040F2C911CDE90010B54BBAA2C4A1D1
:1055D0000220FFF753FA267102200CF057F966708B
:1055E00072E3D5A0CDE9010540F2D3110091AC4B97
:1055F000B1A2BBA10320FFF741FAA6700DF03AF863
:105600000022C821A068FFF7A4DA062060705BE3DF
:10561000CFA0CDE9010540F2DD110091A04BA6A27B
:10562000AFA10320FFF72AFA02200CF02FF96670D1
:105630004AE3CFA0CDE901054FF4F3710091984BF7
:105640009DA2A7A10320FFF719FACF4810F08CF80C
:1056500000223221A068FFF77CDA0820607033E373
:10566000CAA0CDE901054FF4F87100918C4B92A2CC
:105670009BA10320FFF702FA0CF0FCFF0022C821D7
:10568000A068FFF766DA092060701DE3C7A0CDE9C6
:10569000010540F2F9110091814B87A290A10320EE
:1056A000FFF7ECF902200CF073FE66700CE3C7A064
:1056B000CDE9010540F202210091794B7EA288A13B
:1056C0000320FFF7DBF90BF08DFB00224FF47A612A
:1056D000A068FFF73EDA0B206070F5E2C1A0CDE9CB
:1056E000010540F20B2100916D4B73A27CA10320B8
:1056F000FFF7C4F90CF0AAFF00224146A068FFF7AB
:1057000028DA0C206070DFE2BEA0CDE901054FF47D
:1057100005710091624B68A271A10320FFF7AEF9F9
:10572000002102200BF06CFF6670CDE2BDA0CDE938
:1057300001054FF407710091594B5FA268A1032046
:10574000FFF79CF9E6700BF0C1FB00224FF4FA6101
:10575000A068FFF7FED90E206070B5E2B8A0CDE9D1
:10576000010540F2262100914D4B53A25CA103207C
:10577000FFF784F9387878B1BAA040F22F21CDE94B
:105780000010474B4CA256A10220FFF777F90220E8
:105790000BF0E8FF667097E2E67001200BF0E2FF85
:1057A000F8E7B4A0CDE901054FF40E7100913C4B30
:1057B00041A24BA10320FFF761F90CF01DFF00226D
:1057C0004946A068FFF7C5D9102060707CE2B0A000
:1057D000CDE9010540F241210091314B36A240A1B3
:1057E0000320FFF74BF9002102200BF05FFE6670EB
:1057F0006AE2B0A0CDE9010540F249210091284BB1
:105800002DA237A10320FFF739F90BF005FB002289
:105810005146A068FFF79DD91520607054E2ACA0F6
:10582000CDE9010540F2522100911D4B22A22CA18D
:105830000320FFF723F90BF00DFB00225146A0686F
:10584000FFF787D9162060703EE2ABA0CDE90105D5
:1058500040F25B210091124B17A221A10320FFF718
:105860000DF9002102200BF0A3FF66702CE2ABA023
:10587000CDE9010540F263210091094B0EA218A168
:105880000320FFF7FBF80BF073F900224946A068EC
:10589000FFF75FD91A20607016E20000E840800030
:1058A000ED6801013C25732061707053746174755B
:1058B000733A25643E0000002E2E5C5372635C6DCB
:1058C00061786579655C7372635C6D617865796533
:1058D0005F70726F647563745F746573742E6300B8
:1058E0004E4F5F5441470000644080003C257320C8
:1058F000636173653A4150505F424C455F53434189
:105900004E3E00003C257320636173653A41505060
:105910005F424C455F434F4E4E4543543E000000AE
:105920007265616420736E20636F6E6E2074696DA2
:10593000656F7574000000003C257320636173651A
:105940003A4150505F524541445F534E3E00000083
:105950003C257320636173653A4150505F52454165
:10596000445F534E5F54494D454F55543E0000002F
:105970003C257320636173653A4150505F5752492B
:1059800054455F534E3E000008F980003C257320CB
:10599000636173653A4150505F57524954455F53B4
:1059A0004E5F5645524946593E0000003C25732043
:1059B000636173653A4150505F57524954455F5394
:1059C0004E5F54494D454F55543E00003C257320D1
:1059D000636173653A4150505F504342415F5445A3
:1059E00053543E003C257320636173653A41505027
:1059F0005F524541445F504342415F544553543EDA
:105A0000000000003C257320636173653A415050EB
:105A10005F504342415F544553545F54494D454F95
:105A200055543E003C257320636173653A415050E4
:105A30005F50454E43494C5F534C4545503E000036
:105A40003C257320636173653A4150505F50454E69
:105A500043494C5F534C4545505F54494D454F5564
:105A6000543E0000736C6565702074696D656F75D8
:105A7000740000003C257320636173653A41505007
:105A80005F524541445F424154545F4341503E00A0
:105A90003C257320636173653A4150505F52454124
:105AA000445F424154545F4341505F54494D454F18
:105AB00055543E003C257320636173653A41505054
:105AC0005F504553535552455F43414C493E00009A
:105AD0003C257320636173653A4150505F524541E4
:105AE000445F504553535552455F43414C495F52C3
:105AF0004553554C543E00003C257320636173654B
:105B00003A4150505F504553535552455F43414CC5
:105B1000495F54494D454F55543E00003C25732084
:105B2000636173653A4150505F44495341424C456B
:105B30005F5052454C4F41443E000000744B6AA0F8
:105B40004FF41B71AFF29022CDE901050091AFF245
:105B500070210320FEF792FF02200BF0DAFC667042
:105B6000B2E06B4B6BA04FF41D71AFF2B422CDE9E4
:105B700001050091AFF298210320FEF77FFF0BF0A3
:105B80007DF900225146A068FEF7E3DF182060701F
:105B90009AE05F4B67A040F27D21AFF2E422CDE9AD
:105BA00001050091AFF2C8210320FEF767FF002135
:105BB00002200BF034FE667086E0554B67A040F281
:105BC0008521AFF20C32CDE901050091AFF2F02151
:105BD0000320FEF753FF0BF065F9002241F28831F4
:105BE000A068FEF7B6DF122060706DE0484B63A03E
:105BF00040F28E21AFF24032CDE901050091AFF2C3
:105C000020310320FEF73AFF3E7001202071002171
:105C10006448FEF7B3F900224146A068FEF799DF19
:105C20001320607050E03A4B5FA040F29A21AFF22F
:105C30007832CDE901050091AFF25C310320FEF727
:105C40001DFF387880B1324B61A040F29D21AFF248
:105C50009832CDE90010AFF278310220FEF70EFF46
:105C600002200BF058FD02E001200BF054FD66709D
:105C70002AE0274B5BA040F2AA21AFF2C432CDE963
:105C800001050091AFF2A8310320FEF7F7FE3E7048
:105C90000DF056FA00224146A068FEF75ADF1C209C
:105CA000607011E01A4B57A040F2B621AFF2F83203
:105CB000CDE901050091AFF2D8310320FEF7DEFEF9
:105CC00002200CF03DFB6670114B58A040F2BF2142
:105CD000AFF21C42CDE901050091AFF2FC31032087
:105CE000FEF7CCFEBDE8FF873C257320636173653A
:105CF0003A4150505F44495341424C455F505245F0
:105D00004C4F41445F54494D454F55543E000000AF
:105D1000ED6801013C257320636173653A41505081
:105D20005F50524553535552455F4C4556454C3E86
:105D3000000000003C257320636173653A415050B8
:105D40005F50524553535552455F4C4556454C5F45
:105D500054494D454F55543E000000003C257320EA
:105D6000636173653A4150505F50454E43494C5F03
:105D7000534849505F4D4F44453E00003C25732039
:105D8000636173653A4150505F50454E43494C5FE3
:105D9000534849505F4D4F44455F56455249465917
:105DA0003E000000F84080003C257320636173656D
:105DB0003A4150505F50454E43494C5F534849501B
:105DC0005F4D4F44455F54494D454F55543E00008B
:105DD00073686970206D6F64652074696D656F7597
:105DE000740000003C257320636173653A41505094
:105DF0005F52455345545F564F4C54414D455445B1
:105E0000523E00003C257320636173653A41505057
:105E10005F52455345545F564F4C54414D45544590
:105E2000525F54494D454F55543E00003C2F257359
:105E3000203E000010B586B0094A0021094800F054
:105E400061F80446002C09D01422074901A8FCF788
:105E50009DF9ADF8084001A8FEF72AFA06B010BD7A
:105E6000E5540001F040800004690101FEB50646DA
:105E7000124D13A2CDE901254FF4CF7300932B46A9
:105E800011A21BA10320FEF7F9FD1B4CA06800F036
:105E9000DBF800223146A068FEF75BDE044617A15E
:105EA000CDE9011540F2A31200922B4606A210A1E3
:105EB0000320FEF7E3FD2046FEBD0000D868010187
:105EC0003C2573203E0000002E2E5C5372635C6DF7
:105ED00061786579655C7372635C6D61786579651D
:105EE0005F70726F647563745F746573742E6300A2
:105EF0004E4F5F5441470000E84080003C2F25731F
:105F0000203E00002DE9F041054688461746002F47
:105F100004D0286820B10F20BDE8F0810120FBE704
:105F2000EFF311840220FCF738FF0646FCF752FF1E
:105F3000401C012181407018C0B280F3118800F02C
:105F400067F80646FF2E0DD03A464146304600F02F
:105F500073F8084800EB46102860E0B280F311881F
:105F60000020D9E700202860E0B280F311880B20E0
:105F7000D2E70000900681002DE9F04105462C682B
:105F8000002C31D0EFF311860220FCF706FF074604
:105F9000FCF720FF401C012181407818C0B280F33B
:105FA00011880021A160E160AB206070002727709C
:105FB0002F60144D6868A0421ED100F025F803F050
:105FC00043FEA0B1D0E90421D5E90434D21A61EB33
:105FD0000401C5E902216860A86876F43DD0014655
:105FE000012004F0D7FE07E00120BDE8F0812F700A
:105FF0006F60012072F442D6F0B280F31188002065
:10600000F3E70000B00981000121032004F0C2BEC3
:106010000020084901EB401212782AB1401CC0B29E
:106020001928F7D3FF20704701EB401101220A70B5
:106030007047000090068100024B03EB4010C261E4
:106040008170704790068100F8B50446EFF3118522
:106050000220FCF7A2FE0646FCF7BCFE401C012114
:1060600081403144C8B280F311880027009734B1D1
:106070006078AA2807D0E8B280F31188F8BDE8B2AA
:1060800080F31188F8BDAB2060700021A160E16051
:10609000294E7068A0424BD1FFF7B6FF69464FF01A
:1060A0000040FEF77BDE75F4B5D600EE100A0099CD
:1060B0009FED221AF8EE400A00EE101AB8EE400AE0
:1060C00020EE010A80EE201ABCEEC10A10EE100A82
:1060D000D6E902321B1ABA4100D2B068491C06D177
:1060E000C81E174908601A20FCF74AFE0020B16854
:1060F000081AD6E9042110187941C6E9040103F011
:10610000A3FD88B1D0E90421D6E90434D21A61EBA9
:106110000401C6E902217060B06875F49DD701469C
:10612000012004F037FE03E03770012072F4A6D599
:10613000E8B280F31188F8BDB009810000247449E9
:1061400044C500A0F0B595B0044694F835008DF82C
:106150002C000F270C970A200D904FF480100E9002
:1061600000250F9500131090119512951395149515
:1061700000210BA8FEF71AF821784D2211FB02F13D
:10618000264E06EB8101A1F89800002802DA0420CF
:1061900015B0F0BDFDF7FAFF21784D2211FB02F199
:1061A00006EB81010863217811FB02F106EB810106
:1061B000091DC16294F836008DF804000B2002908E
:1061C00003974FF400100490C012059006950795B0
:1061D00008950995A0200A90002101A8FDF7E6FF87
:1061E00021784D2211FB02F106EB8101A1F89A0002
:1061F000002801DA0420CBE7FDF7C8FF21784D2203
:1062000011FB02F106EB81014863217811FB02F1D9
:1062100006EB8101091DC1620020B9E7BCFE8000C8
:106220007CB50224304B02689A4201D1002403E07D
:106230002E4B9A4200D101248DF800102C4D0022E3
:1062400081B101291DD0022932D003293ED0042971
:1062500007D14D20444355F82410002901D0684649
:1062600088477CBDC06B01904D20444305EB840002
:1062700080F8302155F824100029F2D0684688476C
:106280007CBD018C408C081AADF80400204600F05B
:1062900089F94D20444305EB840090F83001002833
:1062A000EED155F824100029EAD0684688477CBD15
:1062B000018D408D081AADF804004D20444355F877
:1062C00024100029F3D0684688477CBD4D20444304
:1062D00005EB840080F8302155F824100029F4D013
:1062E000684688477CBD000000C600A000C700A02B
:1062F000BCFE800010B5017802290ED181884FF4D0
:106300000074A14202D2054809F046FB2246BDE8CE
:1063100010400249012000F01FB910BDB9F3800000
:106320002DE9F8434D21404A414302EB8104271DEA
:10633000022876D294F89C00002872D0FFF770F8FB
:1063400094F89C0001286CD184F8310194F8642001
:10635000012A4DD00025D4E903010144207D00F03D
:106360000100C01D0E186068C16FC1F380010029D3
:10637000FAD0BAB1DFF8B4806D1C201D04F0E1FE44
:10638000102808D0A068D8F80010B1FBF0F07043D6
:10639000B5EBC01FF0D904F1A00630460CF0FCFCB0
:1063A00085B21EE0A68CE58C201D1AF4BBD7A0197F
:1063B000411BB031201D41F288332A461BF4FFD225
:1063C000E9E73046012269460CF0F4FC6068C16FD1
:1063D000C1F340010029FAD09DF8001001606D1E44
:1063E000ADB2002DEDD130460CF0D6FC0028D4D152
:1063F0006068C16FC1F380010029FAD094F864008D
:1064000001280BD0EFF31081012080F31088386849
:10641000426842F08202426081F31088002084F8D2
:106420003101BDE8F8830000BCFE800058418000C7
:106430002DE9F04389B004460F4615462678002C16
:1064400005D0022E05D3082009B0BDE8F083052051
:10645000FAE794F83400012800D09DB1FEF7E0FF80
:10646000242204F110016846FBF790FE211DA06C68
:106470000EC90EF099FE0028E6D194F834000228E7
:1064800002D010E00420DFE70EB10820DCE7EFF3D4
:106490001088012080F310882046FFF753FE88F310
:1064A00010880028D0D194F83400DFF8A0800128AB
:1064B0000ED04D20704308EB800006CDA0300CF0CC
:1064C0005FFC234DA85715F4A7D6A85715F4C2D6DC
:1064D0004D2206FB02F008EB800514F8341F8146BC
:1064E00005F8641FA078A8706078343C6870643D3B
:1064F00005F168003022211DFBF748FE48F829709D
:1065000005F10800182204F13801FBF73FFE10489E
:10651000001D50F826006860281D04F0FDFD281DB0
:1065200004F018FE0B4C0126207850B9267008485C
:10653000032114300BF0A0FF6080002801DA042052
:1065400082E785F89C6000207EE70000BCFE8000AA
:10655000A46B0101FC42800010B503460120022B10
:1065600011D281B17AB14D2463430D4C04EB830306
:1065700093F89C403CB193F86440012C03D024B1C3
:10658000022C09D105E0042010BD181D1BF48CD18C
:1065900002E0181D1BF40AD10028F5D110BD00003F
:1065A000BCFE80002DE9F04105464D201F4968439F
:1065B00001EB800404F1A00630460CF0EDFB82B242
:1065C000174692B194F8310101280ED04D20454371
:1065D000164800EB8505B035802A0BD32946304696
:1065E00080220CF0E7FB802708E0002084F83001CF
:1065F000BDE8F081294630460CF0DCFB94F86400DD
:1066000018B1022809D00420F2E72946201D3A4695
:106610001BF456D20028EBD106E02946201D3A464D
:106620001BF408D20028E3D10020E1E7BCFE800083
:1066300070B50546022D15D2A1B19AB14D20164B69
:10664000684303EB800494F89C0058B194F864000C
:10665000012807D004F1A0000CF0F0FB94F8300101
:1066600010B117E0042070BD94F8310190B994F88E
:106670009C0001280ED16068D0F8980050B101202C
:1066800084F830012846FFF78DFF18B1002184F807
:10669000301170BD002070BDBCFE800010B5022816
:1066A0000FD271B16AB14D246043074C04EB8000F6
:1066B00090F89C402CB1001D1BF481D10028FFD123
:1066C00010BD042010BD0000BCFE80002DE9F0418B
:1066D00006460C46174604F1080520466FF46CD0B8
:1066E000C3B21B48E1184268914202DD0320BDE8B5
:1066F000F0811849184A006809681268891A081A4E
:10670000001FE91881421CD94FF4004513A2294605
:10671000002002F465F201F04FF830B118A22946CA
:10672000002002F45DF20820E1E71DA229460020C6
:1067300002F456F23A4621463046BDE8F0410EF0EA
:106740005BBF3A4621463046BDE8F0410EF054BFEB
:10675000D8328000D0238000CC238000523A353AD2
:106760004E564453206172656120697320626569E9
:106770006E6720636F6D7061637465642E0D0A002F
:10678000523A353A436F6D70616374696E67204E9B
:10679000564453206661696C65640D0A0000000070
:1067A000523A353A436F6D70616374696E67204E7B
:1067B000564453207375636365737366756C0D0A75
:1067C000000000007CB50D4600220092019269464F
:1067D00002F408F2044634BB4FF42051684602F438
:1067E00003F2B8B942F60101684602F4FDF188B936
:1067F00042F60301684602F4F7F158B942F6020185
:10680000684602F4F1F128B94FF42451684602F4C5
:10681000EBF108B1062406E00098C5F30B0180886F
:1068200008430099888020467CBD00002DE9F04196
:1068300005460C46FF26217A1E2905D022480279FA
:10684000521E52B200683AE004F10801284602F4F0
:10685000CDF1064635E010F832308B422DD11B4E7B
:1068600056F82500406F30B300273B4618A2402160
:10687000002002F4B5F1062000EB052029F47AD5BA
:10688000C00605D5002717A24021002002F4A8F178
:1068900021460C3956F82500743002F4A9F1002085
:1068A000A08001266FB115A2402102F499F128467B
:1068B00002F4A0F105E00127D7E7521E52B2002AE8
:1068C000C9DA3046BDE8F0817C058000C40E800046
:1068D000523A333A657865637574653D307825784A
:1068E0000A000000523A333A636F6E6E656374209B
:1068F0006E6F742063666D0A00000000523A333AEE
:10690000737461727420657865637574650A00003C
:106910000348024901600D2141607047146D010177
:106920007C0580002DE9FF5F81460F460024A246CA
:10693000CDF808A0CDF80CA0584850F829006030D8
:1069400002F45AF180463D1F79882888544BCDE9DE
:10695000001054A24021002002F442F12888E8BB34
:10696000484602F44BF1401E2880002611E007EB58
:10697000460002AB82880021484602F441F1C4B2CD
:10698000CDF808A0CDF80CA00CB1B0463BE0761CC9
:10699000B6B27888B042EAD835E007EB48006B46DB
:1069A000818801AA484602F42DF1C4B23CBBBDF86F
:1069B00004002988884200D3084686B2022106F1E5
:1069C000080029F481D28346ABF8046032460BF10B
:1069D00006000099FBF7DAFB304800E013E050F8BE
:1069E00029005946603002F403F1484602F40CF1E4
:1069F0002888801B288008F101081FFA88F8CDF844
:106A000008A0CDF80CA07888404503D9288808B1A3
:106A1000002CC2D044BB484602F4F0F02988401A4A
:106A2000401E86B20025062000EB09230F22042118
:106A3000484600962BF4F8D58246AAF8026017481B
:106A400050F82900066E0AE00AEB0500B288001D26
:106A5000B11DFBF79BFBB088284485B23668002E39
:106A6000F2D1504602F4D2F04CB1062C07D007EB1D
:106A70004800397882882346484602F4C9F0084B1A
:106A800014A240210020009402F4AAF0062C03D0A6
:106A9000002004B0BDE8F09F0120FAE7C40E80009A
:106AA0007C6D0101523A333A5B25735D20656E744B
:106AB00065722C206E625F68616E646C653D307833
:106AC00025782C2072655F6C656E3D307825780ADC
:106AD00000000000523A333A5B25735D2065786907
:106AE000742C207374617475733D307825780A00B6
:106AF0001FB50F4890F80201002818D068464DF4E1
:106B000019D4DDE900010B4CCDE90201E16808442C
:106B1000094920F07040486008464DF4A1D66078DD
:106B200018B1BDE81F400CF02FBC0CF049FC1FBD94
:106B3000C01A80008C468000B41A800010B507F09F
:106B40004FF9BDE8104002F0DBBB00002DE9F04139
:106B500005468846284669F4F3D2C0B2244909782C
:106B600088420DD200EB4000213040F40040424604
:106B7000AC2109F0C1F80446200032D0012430E0F5
:106B800069F422D3C7B207EB470606F1200040F4B0
:106B900000402A46072109F0AFF810B10120BDE8F6
:106BA000F081384675F460D406F1210040F40040CD
:106BB0004246AC2109F0A0F80446200001D0012093
:106BC000EDE7223646F4004070F420D50949C7EBC2
:106BD000C7000968084429680160A9888180A979EB
:106BE00081711CB941462846FCF792FE2046D6E743
:106BF000382380003C23800010B50CF03BFC0CF0E7
:106C000067FC0CF0D5FB0BF0B1FE0EF075F900F04F
:106C1000CDFA0CF071FC00F01DFABDE8104000F058
:106C2000FFB90BF027BE10B506F0A8FA07F080F9FF
:106C300006F0B4FA06F0A8FE05F0A6FBFFF768FE22
:106C400002F06AFE0CF0DEFCBDE810400DF0A6BBC1
:106C500010B5FFF7E6FF054903480860BDE810409E
:106C6000034874F47396000017B8800474C500A03C
:106C7000008793032DE9F04782460D460026EFF387
:106C800011883148027831480068C0F30221491C5C
:106C9000012088401044C0B280F3118869F426D3E3
:106CA00081462DB12A4F97F8A50018B10F2637E07D
:106CB000022635E0D7F8AC0030B90021382064F462
:106CC00013D6C7F8AC00D8B3D7F8AC40382120466B
:106CD000FBF775FA87F8A7A028782070607840F055
:106CE000010060702889A0816889E081A8892082DC
:106CF000E8896082288A60801020A080E080E8799E
:106D000000F00100E871D5F801002063B5F8050036
:106D1000A086E87984F836000021062069F442D480
:106D200033460CA21021002001F45AF7484669F4BA
:106D3000A7D208F0FF0080F311883046BDE8F08745
:106D4000FFE71026ECE7000002E400E00CED00E0B5
:106D50007C278000523A313A636F6E6E6563742C03
:106D600020737461747573203D2025640A0000004F
:106D70000A2805D2034A002152F8200080F88F101B
:106D800070470000C40E800070B504460D462046D2
:106D90000CF0FCFB002805D129462046BDE87040D8
:106DA00062F4089170BD10B5044620460CF0EEFB6D
:106DB000002804D12046BDE8104062F4359110BD92
:106DC00070B505460C46164620460CF0DFFB002841
:106DD00006D1324621462846BDE8704062F422942E
:106DE00070BD70B505460C46164620460CF0CEFB2D
:106DF000002806D1324621462846BDE8704062F49C
:106E0000739470BD70B505460C46164620460CF0CE
:106E1000BDFB002806D1324621462846BDE8704019
:106E200062F41A9570BD000010B58CB008A80DF082
:106E3000B9FEBDF8221009989DF82120CDE9041073
:106E40009DF8203034A040F23721CDE90232CDE95F
:106E500000103B4B3BA241A10220FDF70FFE0AA808
:106E60005FF4A6D0044654B114223549173103A863
:106E7000FBF78CF9ADF8104003A8FDF719FA9DF85F
:106E800028009DF82910CDE906109DF82A209DF8CC
:106E90002B30CDE904329DF82C109DF82D0031A245
:106EA0004FF40F73CDE90032CDE90201244B25A246
:106EB0002AA10220FDF7E2FD35A04FF41171CDE9C2
:106EC00000101F4B1FA225A10220FDF7D7FD35485A
:106ED00008F06EFA044654B1142219492B3103A864
:106EE000FBF754F9ADF8104003A8FDF7E1F92E487F
:106EF00009F0F0FD044654B1142211493F3103A8B2
:106F0000FBF744F9ADF8104003A8FDF7D1F901F003
:106F1000F1FF0CB010BD0000476F6F646978204727
:106F200052353531782053444B205625642E256444
:106F30002E25642028636F6D6D69742025782900E3
:106F4000255A01012E2E5C5372635C757365725C69
:106F5000757365725F6170702E6300004E4F5F54F1
:106F6000414700004C6F63616C20426F6172642086
:106F7000253032583A253032583A253032583A25A1
:106F80003032583A253032583A253032582E0000E7
:106F90006D617865796520656E63206D61737465D8
:106FA000720000009DEF0001DD01010110B50648EF
:106FB0000068002800D08047FEF76EDC08B1012091
:106FC00010BD002010BD0000C846800010B540F480
:106FD000404070F41BD310BD10B540F4404008F0A1
:106FE0008BFE10BD04490160044941600449816081
:106FF0000449C1607047000041C2060015C2060086
:10700000D96F0001CD6F000110B507F03BF907F013
:107010002DFE07F04DFDBDE8104002F013BB00004F
:1070200010B51F2109480BF045FB06210748F83031
:107030000BF03AFB022106480BF030FBFFF7F3FDA3
:10704000FFF7E2FFFFF77AFD10BD0000604180000E
:1070500088428000044903480860054903480860E5
:1070600070470000A18A00010C228000A98C000159
:107070001822800070B50026150A0E4805EB45025F
:1070800000EB0214098821800120A0702846FFF738
:107090006FFE002069F4F4D00748016829B10B683D
:1070A0001BB1228800212846984769F41FD1304639
:1070B00070BD0000D42E8000B82280003EB50024B0
:1070C0001D0A0A78122A02D0132A04D006E00020F2
:1070D0008DF8000002E001208DF800008888ADF8EE
:1070E00004004888ADF80200891D0291002069F46F
:1070F000C7D00B48016829B18A691AB16946284688
:10710000904708E09DF80000012804D1BDF8041064
:107110002846FFF739FE69F4E9D020463EBD00005D
:10712000B42280007CB50E46150A00200090019024
:107130006946284673F422D19DF806206946284600
:1071400002F0E2FA0446CCB162F420D7C0B162F496
:107150001DD7C01C81B23288002320466DF4FED2B8
:10716000694628460CF08AFA40B106A24021002068
:1071700001F436F5214668465EF466D400207CBDF5
:107180000020E7E7523A333A736176652063636320
:10719000640A00007CB5DDE90654CDE9005466F4CC
:1071A00021D5BDE87C400BF0D1B90000024901486F
:1071B00008607047957100014823800010B588B0C1
:1071C000044666F49DD70020079007A854F444D6DF
:1071D0000798FFF707FF2068019060680290A06899
:1071E0000390E0680490208AADF81400608AADF83E
:1071F0001600A08AADF81800E08AADF81A0001A8C0
:1072000054F454D654F434D60348016801614168FB
:10721000416108B010BD0000300100B070B51948E0
:107220000468194D2878002801D0002070BD4FF067
:10723000806071F45DD700F49BF6600872F468D644
:10724000124908608817114901262C390860104935
:107250007006C1F8FC01C8674FF03041086B40F080
:1072600007000863094C303C206840F4E0202060AF
:1072700000F4BBF62E70206820F4E020206001208E
:1072800070BD00006C248000C046800070C500A066
:1072900084E000E070B50024EFF31086012080F355
:1072A000108800F4BDF6104D28B102242968B9B148
:1072B0000220884714E0FFF779FE20B1296879B1F0
:1072C000002088470CE0FFF7A9FF28B102242968B5
:1072D00031B10220884703E0296809B100208847BE
:1072E00086F31088204670BD5C2480002DE9FC47A1
:1072F00005460C46FFF780FC68F4F8D7074630488F
:10730000006800B180470120FAF738FFDFF8B49039
:10731000DFF8B480E16999F8000098F80020024491
:10732000B1FBF2F1CEB216FB00F1A06965F43ED0DC
:10733000286863F4CDD368685FF4DAD2286966F40C
:1073400079D7A86861F472D5E86861F417D61F4848
:107350004CF4A0D11E484CF4A3D11E484CF4A6D145
:107360001D4854F4CFD51D484CF44AD11C484CF468
:107370004DD11C484CF450D11B4864F4EBD74FF06E
:10738000806071F4B5D62046FFF718FFD4E90A01F2
:10739000CDE9000199F80010A06916FB010098F8EA
:1073A000001016FB01F1D4E90823104C2468A04713
:1073B000384668F465D7BDE8FC4765F4AF90000037
:1073C0008026800029D507002AD50700119F0700D5
:1073D000B9C3060065C40600EDAF070025ED060041
:1073E00045ED060065ED0600799B07004823800007
:1073F000034900EB800001EB8000808870470000AB
:1074000084458000034A00EB800002EB800081800D
:10741000704700008445800000B587B000F01EF87A
:1074200003208DF800001D208DF8160001208DF836
:1074300017008DF818008DF81900044A04496846B1
:10744000FDF7F0FAFCF736FD07B000BD55740001FA
:10745000C17400010120FEF763BF000000B597B0C2
:10746000144815904FF48060169001218DF8041097
:1074700011480F9003221092002011901290139047
:1074800014918DF814000B0206938DF815208DF8D9
:107490001C108DF808004B0203938DF809208DF81D
:1074A00010108DF8380015AA044901A8FEF7C0FF96
:1074B00017B000BD8C02810040420F00F562000150
:1074C0000A4601460120FFF7B3B8000030B591B07D
:1074D00005460C461C223D490AA8FAF757FE1C2215
:1074E0003A491C3103A8FAF751FE394884420AD3BD
:1074F0003848B4FBF0F2A2F52852CD3AB4FBF0F1D3
:1075000000FB114101E0002200213C23B1FBF3F01C
:1075100003FB10108DF80000B1FBF3F0B0FBF3F1AA
:1075200003FB11018DF80110B0FBF3F08DF80200A0
:107530004FF4FA63901D0721B0FBF1F401FB140036
:107540008DF8060040F2B550B2FBF0F103EB81017B
:107550008BB2B2FBF0F100FB11214FF4B770814206
:1075600001D303AA00E00AAA81420AD3491E40F2CD
:107570006D10B1FBF0F423449BB2B1FBF0F400FBBF
:1075800014111F20B1FBF0F0401CC4B28DF8044070
:1075900032F81400884202D8641C8DF804409DF82B
:1075A0000400401E12F81000081A401C8DF8030059
:1075B000A3F5FA638DF8053000982860019868609B
:1075C000BDF80800288111B030BD00005C6C0101DD
:1075D00080436D388051010070B54279642302F513
:1075E000FA62B2FBF3F403FB142242F6CD2340F21D
:1075F0006D145443D51C04EB95041C44037940F2EC
:107600006F1513FB05F50C26A5F5B57595FBF6F57D
:10761000022B01D8002202E0920716D00222AA1AF9
:107620002244C378521E1344094A534382784FF4CC
:10763000616412FB04F442780078C2EB021204EB9E
:10764000820218441044086070BD0122E7E7000080
:107650008051010070B5064642F2107405F0CAF977
:10766000054605F0C7F9A84201D0641EF6D114B151
:107670003060002070BD00203060012070BD00002F
:1076800010B586B0124802F055FF13238DF8113063
:1076900005218DF8101014228DF80F2008248DF884
:1076A0000E4000208DF80D008DF80C00CDE9004053
:1076B000029008A0FBF71AFB03A9054802F0BCFFE3
:1076C000012802D10FA0FBF711FB06B010BD00008E
:1076D0007CF280005365742073797374656D207437
:1076E000696D6520253032642E253032642E2530B8
:1076F000326420253032643A253032643A25303203
:10770000640D0A005365742073797374656D207479
:10771000696D65206661696C6564210D0A00000071
:1077200070B504460D46194E0022194B20462946D5
:10773000FBF74EF806D2306820F4704040F4405019
:10774000306070BD0022134B20462946FBF758F8E5
:107750000DD20022134620462946FBF739F806D2FF
:10776000306820F4704040F48040306070BD0022EA
:10777000094B20462946FBF743F8F7D2306820F43E
:10778000704040F4A040306070BD000024C500A0EF
:10779000008040C000003EC00000244010B50BF047
:1077A00079FE0AF053FE0DF02FFA00F045FBBDE81C
:1077B00010400BF051BC00002DE9F04F87B07B4822
:1077C000D0F8009000240025A24600260DF0A0FB72
:1077D00077480168C9F800104068C9F80400754886
:1077E00000680830059009F108000690042203A9FA
:1077F000059800F0EDFABDF80C10A1F57F40FF38B8
:1078000043D0082203A9059800F0E2FABDF80E0063
:107810006DF4D2D700F0FF08BDF80C00002867D047
:107820000698A9EB000707F58057BDF80E1008F180
:10783000080083460844B84263D805AB082203A970
:1078400006A800F0EBF8BDF80E00002300EB0802DC
:1078500005A906A80AF0E4FE641CBDF80E00584411
:10786000B842C3D10020CDE9006053464A462146C4
:1078700028460DF0D7FD002826D182460026002498
:10788000CDF818906D1CEDB2B0E70020CDE9006096
:1078900053464A46214628460DF0C4FD002813D120
:1078A0006D1CECB2434D4FF48057434E08E02868FE
:1078B00000EB0430394603F039F940B1641CE4B2FE
:1078C000707AA042F3D8002007B0BDE8F08F3B48A3
:1078D0008169407A40F26242CDE900200291384B42
:1078E00038A24FF40041002001F47AF10920EBE7BF
:1078F000BDF80E00059908F10808084440440590B9
:1079000074E7082F29D305AB082203A906A800F0C5
:1079100085F8083F2FB100233A4605A906A80AF0CA
:107920007FFE611C0020CDE9006053464A46284690
:107930000DF078FD0028C7D18246BDF80E00404406
:10794000C61B0024CDF818906D1CEDB20023324602
:1079500005A906A80AF064FE48E705AB3A4603A964
:1079600006A800F05BF8611C03A8CDE9006053464F
:107970004A4628460DF056FD0028A5D1C7F1080A51
:10798000BDF80E0000EB08060024CDF818906D1C21
:10799000EDB20123524605A906A80AF041FE0023D4
:1079A000324605A906A80AF03BFE1FE728458000DD
:1079B000ACD50700CC238000D8328000641F800043
:1079C000E46C0101523A353A25732C204C25642091
:1079D000666C61736820737461746520307825303B
:1079E00032582C206572726F7220307825303858EA
:1079F0000D0A00000221B0FBF1F2FF2A04D8B0FB0F
:107A0000F1F201FB12022AB1491CC9B24029F2D39A
:107A100000207047B0FBF1F0C0B2704770B504466B
:107A200015461E462A462068FAF7B0FB30682844FF
:107A3000306020682844206070BD000010B5054803
:107A4000017B491C0173002072F4D0D0BDE81040C6
:107A500000F050B82C4580002DE9FE43FFF7E1F817
:107A60001E48016821F4003101601C4E083E306858
:107A70001B4980B2084330601A4803C8CDE90001B1
:107A800016482C380068C82100F007001DF80000D7
:107A900010FB01F514480768144CD4F800803846F0
:107AA000414602F08BFF62686068831AAB42FBD3E9
:107AB0004146384602F062FF0AF05EFD02909DF8F2
:107AC000080028B19DF80800094948618861C8612B
:107AD000306820F07F403060BDE8FE8330C500A0F4
