:020000040102F7
:1000000000008400DD000201E9000201894980004E
:1000100097498000994980009B49800000000000BA
:1000200000000000000000000000000061498000A6
:10003000F300020100000000F5000201FB010201D3
:10004000F700020139380600DD370600E549800077
:10005000F7000201F7000201534A8000594A80006C
:10006000354C80003D4C8000F7000201F700020192
:10007000F34A8000FB4A8000E14B8000E94B80009E
:10008000F7000201F70002015F4A8000F700020159
:10009000F7000201F7000201F7000201F700020178
:1000A000F7000201D13706009D498000F7000201E8
:1000B00055100201F7000201F7000201F7000201EA
:1000C000F7000201714F8000DFF80CD000F0CEFD88
:1000D000004800474710020100008400064880479E
:1000E0000648804706480047FEE7FEE7FEE7FEE7D2
:1000F000FEE7FEE7FEE7FEE78F850301B517020185
:10010000991003012DE9F05F0546002092469B46B9
:1001100088460646814640241BE02846414647461D
:10012000224600F066FC53465A46C01A914110D34D
:1001300011461846224600F04DFC2D1A67EB0108C7
:100140004F4622460120002100F044FC17EB000935
:100150004E41201EA4F10104DFDC484631462A4608
:100160004346BDE8F09F00000649074A086850432F
:1001700043F23902104408604008704701490860A2
:1001800070470000444980006D4EC64140EA0103BB
:100190009B0703D009E008C9121F08C0042AFAD23D
:1001A00003E011F8013B00F8013B521EF9D2704701
:1001B000D2B201E000F8012B491EFBD270470022A9
:1001C000F6E710B513460A4604461946FFF7F0FF56
:1001D000204610BD421E12F8013F002BFBD111F842
:1001E000013B02F8013B002BF9D17047421C10F88B
:1001F000011B0029FBD1801A704770477047704778
:1002000058585247010000000000000000000201A1
:100210000000020159585649010100000000000089
:1002200000000000000000000000000000000000CE
:1002300000000000000000000000000000000000BE
:1002400043F6B51CC3F2000C604730B504460020ED
:10025000034600E05B1C934203D2E05CCD5C401B94
:10026000F8D030BD30B505460020034600E05B1CE9
:10027000934205D2EC5CC85C201A01D1002CF6D167
:1002800030BD00000FB400B58DB010A909900B90DF
:1002900000914FF0FF300A9000200C900548069026
:1002A000054807906A4609A80F9900F0D9FB0DB0E0
:1002B0005DF814FB7D0A02019B0A02012DE9FF5F34
:1002C0001D464FF0FF3BD5E9014691465F464FF092
:1002D0000008A9697F1C01988847296A82468847D7
:1002E0000028F6D1BAF1FF3F0CD024F4C064002EF0
:1002F00019DD600614D5BAF12B0F09D0BAF12D0F14
:100300000ED103E0584604B0BDE8F09F44F4806489
:10031000A9697F1C01988847761E8246002E02DD5F
:10032000BAF1300F03D0B9F1000F26D032E0A9693D
:10033000761E44F400747F1C019888478246002E84
:1003400005DDBAF1780F06D0BAF1580F03D0B9F134
:10035000000F10D01EE0B9F1000F02D0B9F1100F5C
:1003600018D1A969761E24F400747F1C019888476F
:100370008246102002E0082000E00A20814609E0C1
:1003800008FB0908A969761E44F400747F1C0198D3
:1003900088478246002E05DD4946504600F04BFB5B
:1003A0000028EDDAE96901988847A00502D46FF0CA
:1003B0000100A8E7E00725D1600613D5600502D546
:1003C000C8F1000000E0404629680A1D2A6009685B
:1003D000220501D5087015E0220701D5088011E03B
:1003E00008600FE02868011D29600068210502D51A
:1003F00080F8008006E0210702D5A0F8008001E027
:10040000C0F8008038467EE7F0B480EA0102D40FDD
:100410004200B2EB410F02D20246084611464A00A2
:1004200042D0C30DDDB2C1F3C752AD1A202D35DA6B
:10043000C1F3160141F4000204B15242C5F1200695
:1004400002FA06F12A411044B3EBD05F23D0C4B1C5
:10045000012DA0EBC35009DCF0BC4FF0004202EAD2
:10046000C352DBB200F5000000F031BB400000F1E8
:10047000807000EBC350A0F1807040EAD170490059
:1004800009E0490841EAC071A0EBC35000F5000043
:10049000400800EBC350F0BC00F010BB61420122E9
:1004A00002EB4101001BF6E7F0BC704781F0004110
:1004B000AAE780F00040A7E730B480EA010202F02A
:1004C000004530F0004221F0004013D090B1C30D40
:1004D000D40DC2F31601C0F31600E41A41F4000172
:1004E00040F400027D34914201D3641C00E04900D5
:1004F000002C02DA30BC002070474FF400000023CB
:10050000914201D3891A034340084FEA4101F7D1D0
:1005100051B1914202D14FF0004105E002D24FF0BB
:10052000010101E06FF0010103EBC450284430BC2D
:1005300000F0C4BA2DE9FE4F804681EA0300C00FE7
:100540000C46009021F0004123F00045B8EB02007A
:10055000A94105D24046214690461C460B4602461C
:1005600023F00040104347D0270DC7F30A00C3F320
:100570000A510290401A019040286BDAC3F313002D
:1005800040F4801B0098924620B10023D2EB030A6E
:1005900063EB0B0B01985946C0F14002504600F046
:1005A00019FA06460D4650465946019A00F031FAAE
:1005B00010EB08006141002487EA115284EAE773D6
:1005C0001A4340D0009A62B3019A012A4FEA0752B7
:1005D00015DC001B61EB02014FF0004202EA0752FA
:1005E000CDE90042001C41F5801132462B4600F057
:1005F000ABFA03B0BDE8F08F40462146F9E7001B97
:1006000061EB0201001C41F5801300185B412018CA
:10061000A2F5001747EB030140EAD570B6196D410A
:1006200011E06D084FEA360645EAC0754FEA0752F9
:10063000001B61EB0201001C41F5801149084FEAE3
:1006400030000019514132462B4603B0BDE8F04F4F
:1006500000F06BBA0098012240000023D0EB0202A8
:1006600063EBE073009821464FEAE074B8EB0000BA
:1006700061EB0401E9E783F000435BE781F00041AF
:1006800058E72DE9FE4F81EA030404F0004421F00D
:10069000004100944FF0000B23F0004350EA0104A6
:1006A0005ED052EA03045BD0C3F30A54C1F30A5587
:1006B0002C44A4F2F3340194A0FB0254C1F31301BF
:1006C00041F48011C3F3130343F4801301FB02448C
:1006D00000FB034E840A970A44EA815447EA835791
:1006E000A4FB076802958D0A05FB07854FEA932C4A
:1006F00004FB0C542705029D4FEA065847EA1637BB
:10070000B5EB08056EEB070C870E920E47EA8117D2
:1007100042EA8312A7FB0201B6EB0B0164EB000473
:100720002B0D43EA0C335E1844EB1C50DA4651465D
:10073000E7FB0201C5F313044FEA0B3343EA1453FA
:100740004FEA0432019C43EA0603A4F10C0402942C
:10075000009CCDE900B400F0F7F903B0BDE8F08FDC
:1007600000200146F9E72DE9F04D81EA030404F089
:10077000004B21F0004514464FF0000A23F00041E1
:1007800050EA050220D054EA01021DD0C5F30A57F1
:100790000246C5F31303C1F31300C1F30A5640F434
:1007A000801543F48013A7EB0608101BD64608F209
:1007B000FD3873EB050002D308F1010801E092183F
:1007C0005B41B8F1000F03DA00200146BDE8F08D6F
:1007D00000204FF48011064684460EE0171B73EB91
:1007E000050705D3121B63EB050306434CEA010C16
:1007F00049084FEA300092185B4150EA0107EDD1F9
:1008000052EA030012D082EA040083EA0501084399
:1008100005D0101BAB4106D20122002306E00022C6
:100820004FF0004302E06FF0010253101AEB060094
:100830004CEB085110EB0A0041EB0B01BDE8F04D09
:1008400000F073B996230022114600F040B90EB5AE
:1008500040F2334102910021CDE900110A460B46D6
:1008600000F072F903B000BD0EB540F233420292BF
:100870000022CDE90022134600F066F903B000BD66
:1008800020F00040C10DC0F3160040F400007F29A5
:1008900001DA00207047962903DCC1F19601C840B7
:1008A000704796398840704770B5C1F30A5201F01D
:1008B00000450024C1F3130140F2FF3341F48011DD
:1008C0009A4201DA002070BD40F233439A42A2F20C
:1008D000334203DC524200F08CF800E090402C439D
:1008E000F1D0404270BDC1F30A5210B5C1F31301FB
:1008F00040F2FF3341F480119A4201DA002010BD2A
:1009000040F233439A42A2F2334203DC524200F0F7
:1009100070F810BD904010BDC1F30A52C1F313012D
:1009200040F2FF3341F480119A4202DA002001467E
:10093000704740F233439A42A2F2334202DC524201
:1009400000F057B800F046B830B5041E71F100044D
:1009500004DB4FF00044404264EB0101141E73F1CC
:10096000000405DB1C464FF00043524263EB0403D6
:100970008B4208BF824230BD30B5041E71F10004C5
:1009800004DB4FF00044404264EB0101141E73F19C
:10099000000405DB1C464FF00043524263EB0403A6
:1009A000994208BF904230BD30B50B460146002049
:1009B0002022012409E021FA02F59D4205D303FA21
:1009C00002F5491B04FA02F52844151EA2F10102A2
:1009D000F1DC30BD202A04DB203A00FA02F10020CD
:1009E00070479140C2F1200320FA03F3194390406D
:1009F0007047202A04DB203A21FA02F000217047D8
:100A000021FA02F3D040C2F1200291400843194676
:100A10007047202A06DBCB17203A41FA02F043EA5E
:100A2000E07306E041FA02F3D040C2F120029140A7
:100A30000843194670473A2800D2303820F0200287
:100A4000412A01D3A2F13700884201D34FF0FF3091
:100A5000704700000268114413780160184670471F
:100A6000D1600449516104491162002111611146AC
:100A700000F014B9550A0201910C0201426842B11A
:100A8000016811F8013B23B1521EC0E9001218465B
:100A900070470121C160881E704742685AB1C3681F
:100AA000016843B983688B4205D0491E521CC0E9D6
:100AB0000012002070474FF0FF3070470029A8BF98
:100AC0007047401C490008BF20F00100704710B477
:100AD000B0FA80FC00FA0CF050EA010404BF10BC2C
:100AE000704749B1CCF1200421FA04F411FA0CF159
:100AF00018BF012121430843A3EB0C01CB1D4FEA92
:100B000000614FEA102042BF002010BC704700EB8C
:100B1000C35010440029A4BF10BC7047401C4900BA
:100B200008BF20F0010010BC704710B5141E73F10F
:100B3000000408DA401C41F1000192185B411A439D
:100B400001D120F0010010BD2DE9F04D92469B46E9
:100B500011B1B1FA81F202E0B0FA80F2203290468F
:100B6000FFF738FF04460F4640EA0A0041EA0B014E
:100B700053465A46084313D0114653EA010019D090
:100B8000C8F140025046FFF734FF05460E46504676
:100B900059464246FFF71EFF084305D0012004E0F6
:100BA00020463946BDE8F08D0020054346EAE07650
:100BB0002C4337430A986305E40AA0EB080000229F
:100BC000FD0A44EA47540A3002D500200146E9E70D
:100BD000010510196941DDE9084500196941BDE8C1
:100BE000F04DA2E72DE9F041054621F000400C460A
:100BF000284309D0C4F30A5040F23341884205DD4E
:100C000028462146BDE8F0812846FBE740F2FE3148
:100C1000884210DC0CDB4FEA043040EA155050EA01
:100C2000053105D0104804F0004101430020E9E7F8
:100C300000200146E6E7A0F233404642C6F14002FA
:100C400028462146FFF7C6FE074688462846214625
:100C50003246FFF7CEFE43463A46FFF766FF32467E
:100C6000BDE8F041FFF7B6BE0000F03F064C074D6F
:100C700006E0E06840F0010394E80700984710346C
:100C8000AC42F6D3FFF724FA94080401E408040107
:100C9000C0B24FF4F05100F097B900002DE9F34FC6
:100CA0008BB04FF0000801F10C000C464FF0010B27
:100CB00046460DF1080A01906269012101989047AA
:100CC00005002DD0252D2CD0216A8847C0B162693E
:100CD000012101989047216A88470028F7D1411ED9
:100CE00062690198904700E0761CA1690B988847DB
:100CF000216A88470028F7D1E1690B988847DBE72C
:100D0000A1690B9888470746A84201D1761CD3E712
:100D1000E1690B9888477F1C02D1B8F1000F6FD0B2
:100D200046E1002762693D463946019890472A28E6
:100D300004D162690121019890470125DFF884926E
:100D40006269012101989047A0F130010A290AD275
:100D50004F45E5DC07EB870100EB4107303FDFD46F
:100D600045F01005ECE7E90601D46FF000476C2868
:100D70000AD04C2814D0682815D06A280DD07428C1
:100D80001CD07A281AD01DE0626901210198904791
:100D90006C2802D045F0040514E045F002050DE092
:100DA00045F020050AE06269012101989047682812
:100DB00002D045F0080505E045F4006562690121AF
:100DC00001989047C4E9015765283DD019DC58289F
:100DD0007AD00CDC452837D004DC252826D04128E1
:100DE00031D131E046282FD047282CD12CE05B2888
:100DF00077D0612828D063287CD0642823D15AE09A
:100E0000D0E06F2848D008DC66281DD067281BD0AA
:100E1000692821D06E2816D127E0702845D0732884
:100E200068D0752847D078280DD14DE0A1690B987E
:100E30008847054625283FF469AFE1690B98884744
:100E40006D1C3FF46AAFB3E023466A466FF00100C1
:100E50000B99AFF300809EE045F040006060A8076A
:100E600023464FF0000236D43EE0E8077FF447AF58
:100E70002068011D21600068290501D506701BE767
:100E8000290701D5068017E7A90703D5F117C0E99F
:100E9000006111E706600FE745F040006060A807B9
:100EA00023464FF0080216D41EE040F60E0125EA54
:100EB0000100606016E045F040006060A80723462E
:100EC0004FF00A0207D40FE045F040006060A80729
:100ED00008D5234610226FF001000B99AFF3008074
:100EE00059E007E0234610226FF001000B99FFF74D
:100EF000E5F950E04FF000094F464B46632802D019
:100F00005B2806D040E0E80601D40120A06001275C
:100F10003AE062690121019890475E2805D14FF0BF
:100F200001096269494601989047216939B9002150
:100F30000A46534643F82120491C0829FADBB0B37E
:100F4000216969B9C11700EBD16253110AEB830122
:100F500022F01F02821A01200B68904003430B60AD
:100F600062690121019890475D28E8D1B9F1000F2D
:100F700009D00020514651F82020D24341F82020CA
:100F8000401C0828F7DB02AB224600976FF00100F7
:100F90000B99AFF3008000280CDA401C08D1BBF19C
:100FA000000F05D04FF0FF300DB0BDE8F08FFFE728
:100FB0004046F9E7E90701D108F1010806444FF07E
:100FC000000B79E6CCCCCC0C7F2801D9002208E0BC
:100FD000064A02EB5002C007127800D1120902F053
:100FE0000F020120904008407047000004F8030100
:100FF00070B58C1810F8015B15F0070301D110F8DB
:10100000013B2A1106D110F8012B03E010F8016B07
:1010100001F8016B5B1EF9D12B0705D40023521E8A
:101020000DD401F8013BFAE710F8013BCB1A921CF2
:1010300003E013F8015B01F8015B521EF9D5A142F0
:10104000D8D3002070BD10B519F0A6FBBDE8104044
:101050000FF0E8BF0148E7F7159F00000CFA800089
:1010600010B51E480068002800D080471C490020A9
:101070000870811E1B4801601B494FF0007008601A
:101080001A4CD4F8C002800704D4F42218A11DA081
:10109000E7F7FADE2A480168D4F8C40261F31D308C
:1010A00040F00100C4F8C402E7F701D900214FF075
:1010B0003040C1608161C11741610162E7F7B8D872
:1010C00008484038016821F4800101601D4800682B
:1010D000002802D0BDE81040004710BD6024800009
:1010E0005048800044C500A080E200E000E000A07D
:1010F000727769705F736C6565705F636F6D6D6F3C
:101100006E2E63004D43555F5355422D3E424C4574
:101110005F44534C4545505F434F52525F454E200C
:1011200026204D43555F5355425F424C455F445323
:101130004C4545505F434F52525F48575F454E0004
:10114000542480006424800000214FF03040C160AE
:101150008161C117416101620649022004220A60CF
:10116000BFF34F8FBFF36F8F0860BFF34F8FBFF395
:101170006F8F704780E100E004490220C1F8000150
:101180000860BFF34F8FBFF36F8F704780E100E0BF
:101190003EB5002002900E4C0720207002A90A20C4
:1011A00000F0EEF9002811D00320207002A90A20D7
:1011B00000F0E6F9002809D006A07821CDE900105A
:1011C0000B4B0CA216A1022002F0AEFC3EBD0000AB
:1011D000424280006368617267696E672064657669
:1011E0006963652061626E6F726D616C0000000062
:1011F000F9F003012E2E5C5372635C6D61786579A2
:10120000655F647269766572735C7372635C6D614D
:10121000786579655F6D70323636322E6300000076
:101220004E4F5F544147000000B585B00E2000903E
:10123000002001900121029103900720049068464C
:101240000AF034FE05B000BD08B50B460092014619
:101250000122382011F068FB40B208BD10B50A46E3
:101260000146382011F06FFB40B210BDFEB5504969
:101270000F2000F0CFF84E4C002841D04DA078212F
:10128000CDE90010504B51A25AA1022002F04CFCB3
:101290002078332845D02021084600F0CEF80446B7
:1012A0000421212000F0C9F840EA04050021222091
:1012B00000F0C3F840EA05042021232000F0BDF827
:1012C00040EA04050021242000F0B7F840EA0504B4
:1012D0000421252000F0B1F840EA04060021352061
:1012E00000F0ABF840EA06050821342000F0A5F82C
:1012F00040EA050420213F2000F09FF82043FEBD76
:1013000020783328C4D04428C2D03CA17322CDE930
:10131000002102902C4B2DA236A1022002F004FCE9
:10132000B6E73F21202000F088F805460B21212058
:1013300000F083F840EA05044021222000F07DF807
:1013400040EA04050021232000F077F840EA050474
:101350000021242000F071F840EA04052021252016
:1013600000F06BF840EA05042A21342000F065F80B
:1013700040EA04051021362000F05FF840EA050439
:101380000121372000F059F840EA04052A213020D5
:1013900000F053F840EA05041021322000F04DF827
:1013A00040EA04050121332000F047F82843FEBD40
:1013B000F0418000672073656E736F722061626E0A
:1013C0006F726D616C0000009CEB03012E2E5C536C
:1013D00072635C6D61786579655F64726976657268
:1013E000735C7372635C6C697332646831322E6350
:1013F000000000004E4F5F544147000067207365B6
:101400006E736F7220756E6B6F776E2069643D200E
:1014100025780000F8B506460F46002401253B4616
:10142000012231461920009511F07EFA18B1641C92
:10143000E4B2032CF3D3C0B2F8BD73B582B0064654
:101440000024012503AB012231461920009511F03B
:1014500085FA18B1641CE4B2032CF3D304B0C0B213
:1014600070BDAC21012000F0C7B8A421012000F01C
:10147000C3B801464FF4E470814200D90146C1F37C
:10148000C70000280AD0401EC2B201F0070004289D
:1014900001D9012000E000201044C0B270471F288D
:1014A00000D91F2008B1401EC0B200F0010101EBBD
:1014B00050001030C0B270470146082000F060B8FC
:1014C000FEB5FFF765FEAF21002000F095F8054658
:1014D000AC21012000F090F840EA0504912103209E
:1014E00000F08AF840EA0405CB21042000F084F8DB
:1014F00040EA05061621052000F07EF840EA0604C1
:101500004021062000F078F840EA04053921072040
:1015100000F072F840EA050454B106A0CDE90104D8
:10152000A7210091084B09A213A1022002F0FCFAA6
:101530002046FEBD4D503236363220496E69742049
:101540006572723A202564000CF103012E2E5C5363
:1015500072635C6D61786579655F647269766572E6
:10156000735C7372635C6D61786579655F6D703211
:101570003636322E630000004E4F5F544147000064
:101580002DE9F843074688460024084E01250095BA
:10159000434601223946307811F0C6F9002803D0BD
:1015A000641CE4B2032CF2D3BDE8F883424280000D
:1015B00070B50C46002814D0FFF75BFF05462046A7
:1015C000FFF76DFF04462946022000F015F821467A
:1015D000032000F011F8BDE87040A421012000F0C4
:1015E0000BB8BDE87040AC21012000F005B8014601
:1015F000042000F001B80000F3B581B007460024D4
:10160000074D0126009602AB01223946287811F0D9
:10161000A5F9002803D0641CE4B2032CF2D3FEBD6C
:10162000424280002DE9F8430746884615460024CB
:10163000074E0095434602223946307811F074F97E
:10164000002803D0641CE4B2032CF2D3BDE8F88375
:10165000434280002DE9F84307468846154600249A
:10166000074E0095434602223946307811F076F94C
:10167000002803D0641CE4B2032CF2D3BDE8F88345
:10168000434280002DE9FE4F0024002002900121FA
:10169000082019F0FEFE002834DBDFF870A0DFF828
:1016A00070B01C4EE9461CA003C8CDE90001DAF871
:1016B000000042F2107100F0070019F8000010FB62
:1016C00001F5DBF80070D6F800803846414609F095
:1016D00015FF70687168091AA942FBD34146384664
:1016E00009F0ECFEFF20029002A9082019F03FFC4F
:1016F0009DF80810014307D0641CB4F5C87FD2DB05
:101700004FF0FF30BDE8FE8F0020FBE704C500A0CE
:10171000FCED00E0001000E0403010181020000048
:101720000249096801F007010170704704C500A073
:1017300030B4062821D212490A6802F00702824218
:1017400012D00A680F4B1A400F4C22430A6000BFA8
:1017500000BF00BF00BF0A681A400C4B024333F8B9
:10176000203042EA83420A600849183951F82000C3
:101770000749086030BC57F43D9430BC7047000006
:1017800004C500A0F8FFE3FF05000800CCF1030149
:101790006442800004480068044900F0070051F8E2
:1017A000200003490860704704C500A0B4F103019C
:1017B000644280000648016841F4700101600548F8
:1017C000006800F48070002801D116F03BBC70471F
:1017D00088ED00E078C500A0F0B593B005460F464F
:1017E00016460024482101A8FEF7E9FC02202870D3
:1017F000002101A807F08EFB002831DB01203070AA
:101800001FB1184800F1480202E0174800F14802F1
:10181000002701AB30F814C033F81410614503D32E
:1018200032F814C0614500D93770641C242CF1DBF8
:10183000307808B1012000E002206870002105EB3B
:10184000410213F81100D07033F81100000A9070B3
:10185000491C2429F3DB0020401C2428FCDB002049
:1018600013B0F0BDACEC03015CEE03012DE9F041D7
:1018700092B0054688461646002448216846FEF781
:101880009EFC01272F70FFF7FDFE641C032CFADB82
:10189000684607F09BFB002833DB3770B8F1000F78
:1018A00003D0194800F1480202E0184800F148024C
:1018B000002100276C4630F811C034F81130634520
:1018C00003D332F811C0634500D93770491C24296D
:1018D000F1DB307808B1012000E0022068700021BF
:1018E00005EB410214F81100D07034F81100000A21
:1018F0009070491C2429F3DB0020401C2428FCDBC9
:10190000002012B0BDE8F0811CEC0301CCED030116
:101910002DE9F74F96B0074690464FF00009CDF8F5
:101920005490482103A8FEF74AFC0320387015A9FB
:101930000D2019F01CFB00287EDB0F210D2019F073
:10194000A8FD002878DB0221AE2019F0A2FD0028B6
:1019500072DB454803C8CDE90101444D286801A95F
:1019600000F0070011F800A041480AFB00FA414EC0
:10197000D6F800B0404C206800905846009909F015
:10198000BDFD60686168091A5145FBD3584600994E
:1019900009F094FD022103A807F0BCFA002835DB0A
:1019A000012088F80000179818B1344800F1480267
:1019B00002E0334800F1480200210DF10C0C30F830
:1019C00011A03CF81130534503D332F811A0534510
:1019D00001D988F80090491C2429F0DB98F8000010
:1019E00008B1012000E002207870002107EB4102DD
:1019F0001CF81100D0703CF81100000A9070491CCE
:101A00002429F3DB0020401C2428FCDB9DF8541023
:101A10000D2019F03EFD0021AE2019F03AFD0746D9
:101A2000114803C8CDE90101286801A900F00700A9
:101A30000D5C0F48454300E012E03668D4F80080A2
:101A40003046414609F05AFD62686068801AA84233
:101A5000FBD34146304609F031FD07F087FA38469E
:101A600019B0BDE8F08F00001817020104C500A0EE
:101A7000400D0300FCED00E0001000E03CED030130
:101A8000ECEE03012DE9F04192B006460F46002529
:101A900048216846FEF793FB314C04203070E8463D
:101AA000684607F093FA002856DB002234F812004B
:101AB00038F81230984201D224F81230521C242AED
:101AC000F4DB6D1C0A2DEBDB0020401C2428FCDB22
:101AD0000020401C2428FCDB0022214B483B34F82A
:101AE000120033F81210884203D3401A24F812006F
:101AF00002E0081A24F81200521C242AEFDB01200D
:101B0000387000221749002501F1480334F812000B
:101B100031F812C0604503D333F812C0604500D9D4
:101B20003D70521C242AF1DB387808B1012000E016
:101B300002207070002106EB410014F81120C270E1
:101B400034F81120120A8270491C2429F3DB00208A
:101B5000401C2428FCDB002012B0BDE8F08100000E
:101B600088FA80007CEF0301F0B593B005460E467D
:101B70000024482101A8FEF722FB05202870204FF1
:101B8000204901A837F8143031F814204FF0640CC4
:101B90009B1A03FB0CF393FBF2F220F81420641C55
:101BA000242CEFDB0121317000221649903901F11C
:101BB0004804002730F9123031F912C0634503DBC5
:101BC00034F912C0634500DD3770521C242AF1DB62
:101BD000317809B1012100E002216970002105EB93
:101BE000410330F81120DA70120A9A70491C242936
:101BF000F5DB0020401C2428FCDB13B00020F0BDE6
:101C000088FA80009CF00301F8B506460F46154699
:101C100000243B46012231463820009510F084FE16
:101C2000002803D0641CE4B2032CF2D3F8BD70B5D5
:101C300005460E46002432462946382010F083FE21
:101C4000002803D0641CE4B2032CF4D370BD000060
:101C50000FB4054B10B503A9044A029800F0A8F987
:101C600010BC5DF814FB0000018D02013C448000B3
:101C70000FB41CB50A46521ECDE9000207A9054B58
:101C80006A46069800F094F9009A002111701CBC75
:101C90005DF814FBDF2602010FB4084B10B504A950
:101CA00002AA039800F084F9044602A9002000F07B
:101CB00021FD204610BC5DF814FB0000F526020152
:101CC0007CB5491E1C461546CDE90001044B6A4609
:101CD0002146284600F06CF9009A002111707CBD65
:101CE000DF260201002809DB00F01F0201219140DC
:101CF0004009800000F1E020C0F880127047002801
:101D000004DB00F1E02090F80004704700F00F00C1
:101D100000F1E02090F8140D7047002804DB00F17A
:101D2000E02090F80004704700F00F0000F1E02080
:101D300090F8140D7047002804DB00F1E02090F8C3
:101D40000004704700F00F0000F1E02090F8140D3F
:101D50007047000002480068C0F30220704700008E
:101D60000CED00E002480068C0F30220704700005C
:101D70000CED00E010B5002821D0114B0022001F0F
:101D8000196803E0814203D80A4649680029F9D15D
:101D900052B11368841A9C4204D100681844106040
:101DA000104602E0506000E0186039B102680B1A7A
:101DB000934203D10B681A4402604968416010BD28
:101DC00048498000F0B50B30154D20F00701002484
:101DD000144A0FE003688B420BD38B4205D95E1A7D
:101DE00043184768C3E9006700E04368136002C016
:101DF00004E0021D10680028ECD12046002802D122
:101E0000286808B10020F0BD064A07481060074A5C
:101E1000121A22F00702C0E9002401202860D7E747
:101E20004C4980004849800004C0830000008400C1
:101E300002E008C8121F08C1002AFAD1704700202A
:101E400001E001C1121F002AFBD170472DE9FF5F9D
:101E5000DDE90220010DDDF838B0024318D044F668
:101E60001050A1F2FF3141430D140F98012820D0EA
:101E7000A5EB0B00401C5FEA000A4FF00004474E40
:101E8000DFF81C91A046504616D5CAF1000728E09D
:101E90000F98012443A2012808D0002100980F9B2D
:101EA000C0E90021C0E90243BDE8FF9F6FEA0B01D2
:101EB000F4E7CBF10000DEE7074612E0F80707D0B1
:101EC0002246334640464946FEF7DBFB80468946BC
:101ED0002246334610461946FEF7D3FB04460E460B
:101EE0007F10002FEAD1DDE90201BAF1000F42466E
:101EF0004B4602DAFEF7C5FB01E0FEF734FC044670
:101F00000E460022284BFEF737FD03D84FF0FF3076
:101F1000014607E00022254B20463146FEF70AFB2A
:101F2000FEF7FAFC102409E0002C0ADB0A22002349
:101F3000FEF7E8F8019B30321A55641E50EA0102A0
:101F4000F2D1641C019AC4F1110314440F9A012ABE
:101F500003D0012208430DD10AE0084304D0002039
:101F60004FF0110B0F9080E7A3EB0B056D1E0DE0FA
:101F70005B4504DD4FF0000205F1010504E003DAE2
:101F80004FF00002A5F10105002AECD000980F994E
:101F9000C0E90231C0E9004586E7000000002440A6
:101FA0000000F03F300000000000F0430000E03F80
:101FB0002DE9FF4F95B09B468946064600250FE266
:101FC000252877D100242746F84A0121059400E00E
:101FD000044316F8013F203B01FA03F01042F7D109
:101FE00030782A2811D06FF02F033078A0F130021A
:101FF000092A16D8059A44F0020402EB820203EB88
:1020000042021044761C0590EFE759F8042B059224
:10201000002A03DA504244F40054059044F00204CC
:10202000761C30782E2816D116F8010F44F00404DF
:102030002A280DD06FF02F023078A0F13003092B41
:1020400009D807EB870302EB4303C718761CF3E7B5
:1020500059F8047B761C30786C280FD006DC4C28AD
:1020600017D068280DD06A2814D104E0742810D045
:102070007A280FD10DE044F400140AE044F48014EF
:1020800001E044F440147278824202D104F58014D5
:10209000761C761C307866280BD013DC582877D055
:1020A00009DC002875D04528F6D04628F4D047280A
:1020B0001AD19DE118E0632835D0642879D06528CD
:1020C00012D195E1702873D008DC6728F1D0692817
:1020D0006FD06E280DD06F2806D1B5E073282CD0B4
:1020E000752875D0782874D05A46179990476D1C7A
:1020F00075E1C4F30250022809D003280DD0D9F8A5
:10210000001004280DD00D6009F1040967E1D9F829
:102110000010EA17C1E90052F6E7D9F800100D8067
:10212000F2E70D70F0E719F8041B8DF8001000209D
:102130008DF80100EA46012003E059F804AB4FF0A6
:10214000FF3061074FF0000102D40DE008F10101FA
:102150008846B9420FDA8045F8DB1AF808100029E2
:10216000F4D108E008F1010188468142FADB1AF84F
:1021700008100029F6D105985B46A0EB0807214618
:102180003846179A00F094FA284400EB080507E057
:102190004DE029E10DE01AF8010B5A4617999047D6
:1021A000B8F10108F7D25B4621463846179A13E189
:1021B00042E00A220092C4F302524FF0000A022ABF
:1021C00008D059F804CB032A4FEAEC710AD00DE08D
:1021D00029E02AE009F1070121F00702F2E802C133
:1021E000914609E00FFA8CFC4FEAEC71042A03D106
:1021F0004FFA8CFC4FEAEC71002907DA0A460021FD
:10220000DCF1000C61EB02012D2202E0220504D575
:102210002B228DF80420012203E0E20701D02022C6
:10222000F7E7904659E00A2102E010220DE0102164
:102230004FF0000A00910BE010224FF0000A44F02A
:1022400004040827009203E008224FF0000A0092DD
:10225000C4F30252022A05D059F804CB0021032A04
:1022600008D009E009F1070121F00702F2E802C1F4
:10227000914605E01FFA8CFC042A01D10CF0FF0CFA
:102280004FF00008220728D5702806D0009B83F065
:10229000100353EA0A0305D00EE040228DF8042013
:1022A000012208E05CEA010206D030228DF8042009
:1022B0008DF8050002229046009B83F0080353EA44
:1022C0000A030AD15CEA010201D1620705D5302276
:1022D0008DF804204FF001087F1E582804D034A048
:1022E00003900EA802900DE036A0F9E75346604631
:1022F000009AFDF707FF84460398825C0298401E0F
:10230000029002705CEA0100F0D1029806A9081A56
:1023100000F1200A600702D524F4803400E0012790
:10232000574502DDA7EB0A0000E0002000EB0A01A0
:10233000009005984144401A0590E00306D45B469E
:102340002146179A059800F0B3F90544002706E0E6
:1023500001A85A46C05D179990476D1C7F1C4745E0
:10236000F6DBE0030CD55B462146179A059800F092
:102370009FF9054404E030205A46179990476D1C98
:102380000099481E00900029F5DC08E002980299A7
:102390005A460078491C0291179990476D1CBAF172
:1023A0000001AAF1010AF1DC65E100000928010041
:1023B00030313233343536373839616263646566BB
:1023C000000000003031323334353637383941427D
:1023D000434445460000000000F058F90544761CCF
:1023E000307800287FF4ECAD19B02846BDE8F08FB6
:1023F000620700D4062709F1070222F0070CFCE867
:102400000223E14603F000485FEA080C02D00FF215
:10241000702C0DE05FEA045C02D50FF2682C07E037
:102420005FEAC47C02D00FF2602C01E0AFF2700CC6
:102430004FF0FF3823F00043CDF850C065280CD092
:1024400006DC452809D046281DD047283DD13DE06F
:10245000662818D067287ED138E00021112F01DBD3
:10246000112000E0781CCDE9000106A90EA8FFF7B5
:10247000EDFCDDE90F010E9A03910021009207F1B6
:10248000010A04914DE04FF000400097CDE90110A2
:1024900006A90EA8FFF7DAFCDDE90F0203920E9BF6
:1024A00011990022DDF80CA00093049211B9791C57
:1024B00000EB010AB7EB0A0004D4C0F1FF3007F1CA
:1024C000010A0490AAEB0700019044E0012F00DA12
:1024D00001270021112F01DD112000E03846CDE950
:1024E000000106A90EA8FFF7B1FCDDE90F010E9A65
:1024F0000391002104910092BA4621070CD403995C
:10250000514500DA8A46BAF1010F05DD009AAAF1B9
:102510000101515C302908D0B84202DA10F1040FF1
:1025200006DA0121CDE9011015E0AAF10101E9E780
:10253000002805DC049901440491AAEB000102E0A3
:10254000411C514500DD8A460499401A401C019007
:102550004FF000400290200704D40198504501DB61
:10256000CDF8048000208DF84F0002980DF14F0740
:10257000B0F1004F25D02B200E9002984FF00208AA
:1025800000280CDA404202902D200E9007E00A212C
:102590000298FEF709FA3031029007F8011DB8F1F0
:1025A0000001A8F10108F2DC02980028EFD1791EA1
:1025B0000E980870307800F0200040F0450007F8D1
:1025C000020D12A8C01B00F107081498007800B192
:1025D000012000EB0A01019801EBE07105984144EC
:1025E000401A401E0590E00306D45B462146179A28
:1025F000059800F05DF805441498007818B15A4623
:10260000179990476D1CE00324D55B462146179A25
:10261000059800F04DF805441CE00498002807DBFD
:10262000DDE90301884203DD0098405C179901E071
:10263000179930205A469047049805F10105401C2F
:1026400004900198401E019004D12E205A461799FB
:1026500090476D1CBAF10001AAF1010ADDDC05E02A
:1026600017F8010B5A46179990476D1CB8F10001F5
:10267000A8F10108F4DC5B462146179A0598ABE601
:102680002D0000002B000000200000002DE9F0418B
:10269000044600251E461746880404D405E0394642
:1026A0002020B0476D1C641EF9D52846BDE8F08196
:1026B0002DE9F041044600251E469046C80301D589
:1026C000302700E02027880404D505E0414638463D
:1026D000B0476D1C641EF9D52846BDE8F0814A68F4
:1026E000002A06D00A68531C0B6010704868401E10
:1026F000486070470A68531C0B60107070471CB527
:10270000684608F029FA1CBD2DE9F05F07468946A6
:1027100093464FEA5B04A2464D465F4EDFF87C814C
:10272000EFF31080012181F31088D8F8A41221F072
:102730002001C8F8A41280F31088EFF31080012163
:1027400081F31088D8F8A01221F02001C8F8A01257
:1027500080F31088306820F080403060504830604E
:102760003F20D8F8001160F30501C8F80011306867
:1027700020F4601040EAC7403060306820F4E02068
:1027800040EA07403060052F03D1306840F4004034
:102790003060062F03D1306840F4804030603068EC
:1027A00040F400503060306820F060503060306895
:1027B00020F00F0040F003003060EFF310800121A3
:1027C00081F31088344A3832116821F0E04141F039
:1027D0008041116080F31088306840F080403060A4
:1027E00001E0D8F80000D8F80401C0F30020002868
:1027F000F7D1EFF31080012181F31088116841F0C7
:102800000041116080F3108834E000204FF47A71A9
:102810001AE0884217D9306820F080403060306874
:1028200040F000403060306820F0004030600BF035
:10283000A9FE1C480168491C016054464D4605200C
:1028400059F4DDD16CE7401CD8F80421C2F3002212
:10285000002ADED0D8F8040100F07F01A14200D99F
:102860002146002003E0D8F8002004C5401C88421F
:10287000F9D3641A002CC8D15FEACB7008D0D8F81D
:102880000401C0F300200028F9D0D8F80000288007
:10289000BDE8F05F0BF076BE08C500A000E000A028
:1028A0000A070807384980002DE9F04107460E461F
:1028B0004FF000080024274D0BE004EBC40005EBAB
:1028C0008000801C07223946FDF7BFFC40B1641C24
:1028D000E4B22878A042F0D8B8F1000F18D102E095
:1028E0004FF00108F8E728780A21B0FBF1F201FB6C
:1028F00012040A2801D2401C287004EBC40105EB25
:1029000081003968C0F80210B988C180B9790172B4
:102910002B7811A210210020E6F7B8DA30780007F2
:102920000BD504EBC40005EB800006F14601BDE8C1
:10293000F0410A301C22FDF729BC04EBC40005EB72
:10294000800006F12A01BDE8F0410A301C22FDF7A3
:102950001DBC000074198100523A313A6164642050
:102960006C746B206974656D2C206E756D203D2034
:1029700025640A0010B586B02648002181702648DB
:10298000072282730174C0F80310A0F80710417287
:10299000417001708170A021818141810021152346
:1029A0001E4A084643F4BCD3044654B114221B49C2
:1029B000753101A8FDF7EAFBADF8084001A800F069
:1029C000B9FA0021144A084643F432D4044654B1FB
:1029D00014221249893101A8FDF7D8FBADF808404F
:1029E00001A800F0A7FA0D4A0D231532012100209D
:1029F00043F496D30446002C0AD0142207499D3193
:102A000001A8FDF7C3FBADF8084001A800F092FA59
:102A100006B010BD644080009CF6800077C20301C0
:102A20000449896B084004490A78104300220A705F
:102A300070470000002001A0804680002DE9F04191
:102A400004460D46154F164E0022134620462946D1
:102A5000FDF77AFF0FD83068C0F34120012808D075
:102A6000786C401C7864306820F4C06040F40070DA
:102A70003060BDE8F08100220A4B20462946FDF770
:102A80007BFFF6D8306810F4C06FF2D0386C401C71
:102A90003864306820F4C0603060EAE7BC468000EB
:102AA0000CC500A00000244006460F46154672B62D
:102AB0003846FDF79BFB402801D9402002E038460C
:102AC000FDF794FB80463046FDF790FB402801D986
:102AD000402002E03046FDF789FB04469C21104867
:102AE000FDF76DFB424639460D48FDF74FFB0C489C
:102AF000224631465C30FDF749FB09484FF0AA31C8
:102B0000016445644FF0BB3181644FF0CC31016505
:102B10004FF0DD318165002000F004F8FEE7000091
:102B20006C09810030B5ADF20C4D04464FF4806164
:102B300003A8FDF744FB184D202085F83F0085F8D9
:102B40009B003CB12846012C436DC26C09D0022C7D
:102B50000CD00FE0104A11A15C3203A8FFF79CF8DB
:102B600008E011A103A8FFF797F803E016A103A856
:102B7000FFF792F803A90BA2686CCDE90121009040
:102B800018A3054A18A1002000F0CEFF00F098FF1E
:102B90000DF20C4D30BD00006C0981005B455252B6
:102BA0004F525D20257300005B5741524E494E47FE
:102BB0005D20506172616D303A25642C5061726104
:102BC0006D313A25640000005B504152414D5D205B
:102BD000506172616D303A25642C506172616D31C3
:102BE0003A256400000000006170705F61737365D6
:102BF00072742E6300000000014858F43D960000F6
:102C00009845800006460F4690461D4672B64046DF
:102C1000FDF7ECFA402801D9402002E04046FDF7DC
:102C2000E5FA04469C210D48FDF7C9FA22464146C3
:102C30000A48FDF7ABFA09484FF055310164456485
:102C40004FF066318164C6644FF0773101654765A6
:102C5000C94381650220FFF765FFFEE76C0981002B
:102C60002DE9F04106460F4690461D464046FDF7C9
:102C7000BDFA402801D9402002E04046FDF7B6FAEF
:102C800004469C210D48FDF79AFA224641460B481E
:102C9000FDF77CFA09484FF01131016445644900A1
:102CA0008164C6644FF03331016547654FF04431AC
:102CB0008165BDE8F0410120FFF734BF6C09810058
:102CC00030B589B005460C46174918A00DF0CEFF67
:102CD000F72046F427D1284603F036F810F090F894
:102CE0000A2002F003FC134803F0DAF8A07AE17A34
:102CF000227B637BCDE90432CDE90610A07BE17B2A
:102D00000DA240F21D13CDE90032CDE90210064BB1
:102D100014A21AA1022000F007FF09B00249BDE881
:102D2000304018A00DF0A2BF41C303013C25732021
:102D30003E000000C0D40100636F6E6E6563746571
:102D400064203A2025303258202530325820253052
:102D50003258202530325820253032582025303244
:102D6000580000002E2E5C5372635C757365725CB4
:102D7000757365725F6170702E6300004E4F5F5413
:102D8000414700003C2F2573203E000003480249C4
:102D900001610521416170476C4080007002800034
:102DA00010B50C460F4910A00DF060FF104A00202E
:102DB0001070104A10701049087010490870C8202F
:102DC00003F06EF80FF0CCFEA62C09D041F2707023
:102DD0000EF00AFDBDE81040024909A00DF046BF03
:102DE00010BD000028C303013C2573203E000000F5
:102DF00004418000284180005441800051418000FE
:102E00003C2F257320625F746F5F6164763E000023
:102E1000082808D200EB4001044800EB411001787B
:102E200009B1001D7047002070470000DCFB8000E6
:102E30002DE9F0470646894600244FF0FF38474603
:102E40000121002E67D0307880B101280ED00228F1
:102E50000CD003280AD0042808D0052806D006285C
:102E600004D0072802D04046BDE8F087EFF3108376
:102E7000012282F310882A4D944604EB440205EBAC
:102E8000421292F800A0BAF1000F03D092F804A009
:102E900082450DD104EB440005EB401090F82D0065
:102EA000022803D0274682F800C005E0082403E08A
:102EB000641CE4B2082CE0D383F31088082C2AD2D7
:102EC000DFF860A09AF8000038B98AF800C0032142
:102ED000154813F0D5FFAAF8020004EB440105EBF6
:102EE00041153078287105F108002422311DFDF7C5
:102EF0004DF90E4868630E48E86300202864C5F861
:102F00005C900320E5F7C4DF0320E5F7C3DF281D4D
:102F100008F08EFA014601B147463846A4E70000A2
:102F2000DCFB800010448000E4F10301017F02011A
:102F3000817E020110B5ADF5047D04464FF40071A9
:102F400004A8FDF73CF9207810B1012819D01DE044
:102F500000211748A28830F831309A4207D100EB9F
:102F6000C10014A1436804A8FEF796FE0EE02B29C9
:102F700002D0491CC9B2EEE714A104A8FEF78CFEEA
:102F800004E01DA104A86268FEF786FE04A921A240
:102F90002069CDE901210090D4E902231EA100207F
:102FA00000F0C2FD00F08CFD0DF5047D10BD0000A9
:102FB000404480004572726F7220636F64652030F8
:102FC00078253034583A2025730000004572726F1E
:102FD0007220636F6465203078253034583A204E73
:102FE0006F20666F756E6420696E666F726D6174B6
:102FF000696F6E2E00000000282573292069732058
:103000006E6F742065737461626C69736865642E99
:1030100000000000257300006170705F6572726FC0
:10302000722E630010B5074C002905D006A00DF0E4
:103030001DFE0020207010BD0CA00DF017FE012019
:10304000207010BD20418000416476657274696E05
:10305000672073746172746564206661696C65646D
:1030600028307825303258292E00000041647665DA
:1030700072746973696E6720697320737461727406
:1030800065642E001CB500290ED1022A0CD0074918
:103090000020087006A09F21CDE90010094B0AA26C
:1030A00014A1022000F040FD1CBD00002041800062
:1030B0004164766572746973696E67206973207301
:1030C000746F70001CC403012E2E5C5372635C7518
:1030D0007365725F63616C6C6261636B5C75736571
:1030E000725F6761705F63616C6C6261636B2E63BA
:1030F000000000004E4F5F54414700003EB50446BB
:10310000154600290AD010A0CA21CDE90010134BA2
:1031100013A21EA1022000F007FD3EBD1D490220A2
:1031200008701DA0CDE90104C52100910B4B0CA234
:1031300016A1022000F0F8FC03B029462046BDE8A5
:103140003040FFF7BDBD000067617020636F6E6E99
:10315000206362206661696C0000000030C40301D6
:103160002E2E5C5372635C757365725F63616C6C69
:103170006261636B5C757365725F6761705F6361E9
:103180006C6C6261636B2E63000000004E4F5F54F5
:103190004147000020418000636F6E6E20696E64BD
:1031A0006578203A202564007FB5184D184C002919
:1031B00018D018A0F722CDE9002002911B4B1CA2C9
:1031C00026A1022000F0B0FC2648007800281CD080
:1031D0002888002819D120881E2816D8BDE87F40ED
:1031E00013F054B9508828801088208028882188BE
:1031F0001DA2F323CDE90032CDE902100B4B0CA246
:1032000016A1022000F090FCDEE77FBD2241800085
:1032100024418000636F6E6E207570646174652058
:10322000657272203A2025303258000059C40301DB
:103230002E2E5C5372635C757365725F63616C6C98
:103240006261636B5C757365725F6761705F636118
:103250006C6C6261636B2E63000000004E4F5F5424
:1032600041470000A0418000636F6E6E207570645E
:10327000617465203A20256420256400012143F40F
:10328000939400003EB50546144600290AD010A0CC
:10329000E121CDE90010134B13A21EA1022000F082
:1032A00043FC3EBD1D4A002111701DA1CDE9011452
:1032B000DC2200920B4B0CA216A1022000F034FC81
:1032C00003B021462846BDE83040FFF769BD000045
:1032D00067617020646973636F6E6E20636220663D
:1032E00061696C0043C403012E2E5C5372635C75EC
:1032F0007365725F63616C6C6261636B5C7573654F
:10330000725F6761705F63616C6C6261636B2E6397
:10331000000000004E4F5F544147000020418000F4
:10332000446973636F6E6E656374656420283078DA
:1033300025303258292E00000EB54A7808788B784F
:10334000CDE900320290CB780A79497901480DF035
:103350008DFC0EBD5CF803012DE9FC5F81468846BB
:10336000B9F1000F0AD0524E30784044202807D9D6
:10337000B8F1000F04D00420BDE8FC9F0520FBE756
:1033800000254FF0010A4B4F80E00020787009EBD8
:103390000514337862680FE006EB0011D1F808C01D
:1033A000944507D1097994F800C0614502D187F8A6
:1033B00001A003E0401CC0B28342EDD80092207A05
:1033C0008DF80400607A8DF8050007208DF806005E
:1033D0002078009900F0C8FA2078694600F0EAFAEF
:1033E0000028C9D17878B0BB307894E80E1006EB8D
:1033F0000010001DB346A0E80E10A07A022825D1C7
:103400002078012822D1207A032806D0042809D068
:1034100005280DD0062815D110E000216068E1F7DD
:10342000BEDD0FE040F201116068E1F7B8DD09E0B0
:103430004FF001116068E1F7B2DD03E01E496068FA
:10344000E1F7ADDD4FF0007055F452D6207818B199
:1034500001280ED013E017E00620E5F719DD06205D
:10346000E5F718DD0720E5F713DD0720E5F712DDA6
:1034700005E01220E5F70CDD1220E5F70BDD9BF8E7
:103480000000401C8BF800006D1CEDB24545FFF4B8
:103490007CAF387850B90121084813F0F1FC7880EE
:1034A000002801DA042067E787F800A0002063E71E
:1034B000DCFE80001444800001010100F0F10301F2
:1034C0000078704700B58FB000208DF80C008DF8A3
:1034D0000D008DF8100002218DF811104A07059299
:1034E0008DF818008DF81C008DF81D104A06089202
:1034F0008DF824008DF828108DF8291003218DF8FF
:103500002A1013490B914D210C9101210D910E9020
:10351000104903A800F0F0F860B10FA19322CDE9A3
:1035200000210290114B12A21BA1022000F0FCFA14
:103530000FB000BD1A48016821F001010160016966
:103540006FF30F0141F009010161006BF0E700002A
:10355000801A0600C13402014932433020696E6985
:1035600074206661696C65643A256400E4F00301C7
:103570002E2E5C5372635C6D61786579655F647251
:1035800069766572735C7372635C6D617865796589
:103590005F693263302E63004E4F5F544147000035
:1035A0006CC300A0F0B595B00446607F8DF82C0088
:1035B0000F270C97207800281DD008200D904FF47D
:1035C00080100E9000250F95001310901195129504
:1035D0001395149500210BA8FFF72AFC2178284E9B
:1035E00001EBC10106EB0111A1F88800002804DA03
:1035F000042015B0F0BD0620E0E7FFF709FC2178B4
:1036000001EBC10106EB01110863217801EBC10157
:1036100006EB0111091DC162A07F8DF8040020781E
:10362000D8B10920029003974FF400100490C01203
:10363000059006950795089509950A95002101A81A
:10364000FFF7F6FB217801EBC10106EB0111A1F8B0
:103650008A00002803DA0420CBE70720E2E7FFF71F
:10366000D7FB217801EBC10106EB011148632178FA
:1036700001EBC10106EB0111091DC1620020B8E791
:10368000BC0381003EB5194C0368A34201D100225E
:1036900003E0174CA34200D101228DF8001021B1A4
:1036A000012905D0022909D00DE0806B01900AE0C4
:1036B000018B408B081AADF8040004E0018B408BAD
:1036C000081AADF804000B4802EBC20100EB011030
:1036D000B0F88E10ADF80810002180F88D10016848
:1036E000002901D0684688473EBD000000C300A005
:1036F00000C400A0BC0381002DE9FC4104460F4634
:103700002678002C04D0022E04D30820BDE8FC81CA
:103710000520FBE700F060FCD4E90501CDE90001DC
:10372000201D0FC809F0CAFF0028EFD1207F022812
:103730000BD1EFF31085012080F310882046FFF7AE
:1037400031FF85F310880028E0D1207F012806D0C2
:10375000224DA857E5F79CDBA857E5F79BDB2048EF
:1037600006EBC60200EB0215217F05F86C1FA07F57
:10377000A870607F68706078E8706C3D05F170003B
:103780001822211DFCF702FD2F6020340FCC05F11B
:1037900008040FC41148001D50F826006860281D59
:1037A00008F05CF80028B1D1281D08F0BDF8002809
:1037B000ACD10C4C0126207850B926700748032163
:1037C000143013F05DFB6080002801DA04209DE7CF
:1037D00005F88C6F0020687098E70000ACF20301D8
:1037E000BC0381001E448000FEB508AC70CC0228EA
:1037F00013D294B18DB100EBC007094800EB07105C
:1038000090F88C704FB1A0F88E108DE87000001DFC
:1038100008F0EAF90028FFD1FEBD0420FEBD00003B
:10382000BC038100FEB508AC70CC022813D294B161
:103830008DB100EBC007094800EB071090F88C70C1
:103840004FB1A0F88E108DE87000001D08F02EFA20
:103850000028FFD1FEBD0420FEBD0000BC03810096
:10386000F8B50E46069D11461C460122022811D2CB
:1038700081B17CB100EBC003114800EB031090F85C
:103880008C303BB1A0F88E6090F86F3023B1012BE3
:1038900011D10AE00420F8BD0A46001D2346314636
:1038A000009508F058F9024605E0001D2B46224617
:1038B00008F05CFA02460AB11046F8BD0020F8BDD7
:1038C000BC0381003EB5022452F49CD260B110A02A
:1038D00040F28711CDE90010114B12A219A102206C
:1038E00000F022F920463EBD4FF48051174807F002
:1038F000BDFE044616A0CDE9010440F28B110091F3
:10390000074B08A20FA1022000F00EF920463EBD91
:10391000666C617368207365637572697479000001
:10392000DBCB03012E2E5C5372635C6D617865798D
:10393000655C7372635C6D61786579655F646675FB
:103940002E6300004E4F5F544147000000200001ED
:1039500061707020696D6720696E666F20657261A5
:1039600073653A256400000010B50C46002805D0A8
:10397000012811D0022813D0062010BD2004000C0D
:1039800003D0A1B2094807F019FF200C0CD0210C7C
:10399000074807F013FF07E0E0B207F06BFB03E016
:1039A00004F01F0008F03AFA002010BD000001A04A
:1039B000001001A010B58EB00C46002C07D040B10D
:1039C00001282BD0022841D006200EB010BD0520C2
:1039D000FBE7207907281FD0304951F820000B90D1
:1039E000A1F12400617950F821000C90A0790D908C
:1039F00020680104090C05D080B20A900AA9284861
:103A000007F016FF2068010C45D0000C0A900AA9A7
:103A1000244807F00DFF3EE00720D6E7207907286D
:103A200012D01E49203151F820000790A1F1380032
:103A3000617950F821000890A079099020780690CB
:103A400006A807F059FB26E00720BEE72079C11E33
:103A5000032901D80720B8E7072809D00F494031CA
:103A600051F8200002902079072803D0012002E0BD
:103A70000120F7E700200390084861790C3850F8DE
:103A800021000490A0790590207800F01F0001909B
:103A900001A808F00BFA002097E7000020F20301CC
:103AA000000001A0001001A0002806D0002904D0C9
:103AB000024AD269002A00D01047704748098100A5
:103AC0000248006A002800D000477047480981007A
:103AD00070B50D4616460D4C00280AD00178032912
:103AE00011D80121A17601461A222046FCF74EFB8F
:103AF00005E00020A0761A210448FCF760FBE56190
:103B00002662002070BD012070BD000048098100C0
:103B1000044A1044807D084201D0012070470020F3
:103B200070470000480981002DE9FE4FDDF830B0F4
:103B300006469246994600240027019702975A4864
:103B40000178B14202D2807E00287DD10DF1380883
:103B5000CDF80080EFF311850220FEF7DEF8014674
:103B600052480068C0F30220401C0122824088189D
:103B7000C0B280F3118801213046FFF7C9FF38B188
:103B80004B484C4950F82620204600F0D3F8044614
:103B90001C213046FFF7BCFF00285ED046A24549F5
:103BA000204600F0C7F8204484B204213046FFF7D5
:103BB000AFFFF8B152463F49204600F0BBF8204421
:103BC00084B208213046FFF7A3FF38B13BA2394940
:103BD000204600F0AFF8204484B20BE010213046BC
:103BE000FFF796FF30B136A23249204600F0A2F826
:103BF000204484B208213046FFF78AFF90B14A463C
:103C00002C49204600F096F8204484B2102130461A
:103C1000FFF77EFF30B12BA22649204600F08AF83C
:103C2000204484B210213046FFF772FF70B15B462A
:103C300026A2052101A8FEF71BF801AA1D4920466E
:103C400000F078F8204400E02BE084B220A219496B
:103C5000204600F06FF8204484B21648C4F5807105
:103C6000204443460D9AFEF72BF800974FF48071DD
:103C7000002804DB2044884201DC86B200E00E46C6
:103C8000B01C884200D9FE2612A20A49304600F034
:103C900051F8304481B20748FFF706FFE8B280F3DD
:103CA0001188BDE8FE8F0000480981000CED00E09E
:103CB0002C448000480881002800000020000000FB
:103CC0003A000000204C696E653A0000256C6400E3
:103CD000292000000D0A00000FB438B505AC00948F
:103CE000EFF311850220FEF718F810490968C1F3B7
:103CF0000221491C01228A401044C0B280F311887D
:103D000023464FF4807421460948049AFDF7D8FFF2
:103D1000A04201D881B200E021460548FFF7C4FE69
:103D2000E8B280F3118838BC5DF814FB0CED00E0BC
:103D30004808810030B50546002000290CD0002A33
:103D40000AD006E02B18FF2B06D8CC54521C401C7E
:103D500080B21478002CF5D130BD12F0EFBB10B555
:103D600002F03AFC11F0AEFB0DF0C2FD0EF050FC7B
:103D700011F07AFA0EF0C6FE11F000FBFFF7A2FB7D
:103D80000EF040FB11F05AFE12F0CCFB0EF06CFB73
:103D9000BDE81040022054F4659770B50546EFF376
:103DA00011840220FDF7C7FF0646FDF7DBFF401C2C
:103DB000012181407018C0B280F311880020288151
:103DC0006881E0B280F3118870BD002808D039B155
:103DD00003804280416000210181418100207047C1
:103DE000022070472DE9F041048945894788002861
:103DF00014D0EFF311860220FDF79DFF8046FDF7FA
:103E0000B1FF401C0121814008EB0100C0B280F3EA
:103E10001188AC4205D8281B80B205E00020BDE81F
:103E2000F081381B284480B2F1B281F31188F6E7A3
:103E30002DE9F04104460F460026002C16D0AFB104
:103E4000EFF311850220FDF776FF8046FDF78AFF2C
:103E5000401C0121814008EB0100C0B280F31188B1
:103E600020896189884204D1012103E00220BDE854
:103E7000F081002109B109260DE02288616800FB6C
:103E800002116388984201D2401C00E0002020818A
:103E90003846FCF77BF9E8B280F311883046E6E754
:103EA0002DE9F04104460F460026002C16D0AFB194
:103EB000EFF311850220FDF73EFF8046FDF752FF2C
:103EC000401C0121814008EB0100C0B280F3118841
:103ED00060896388984204D2411C03E00220BDE857
:103EE000F081002189B222898A4201D1012100E0BA
:103EF000002109B110260DE02288616800FB021C38
:103F0000984201D2401C00E00020608139466046A2
:103F1000FCF73CF9E8B280F311883046DFE7000097
:103F200008B5009103480168002901D06846884718
:103F300008BD00000816810010B5002906D00A4609
:103F4000BDE81040084909A00CF090BE10490320BC
:103F500008701049FF200870FFF7FFFEBDE8104011
:103F600001490DA00CF082BE88C403013C257320DA
:103F700050616972696E67206661696C656420666C
:103F80006F72206572726F722030782578000000A1
:103F900020418000524180003C257320706169728D
:103FA0005F6F6B3E0000000030B589B005460C46DF
:103FB000002C0FD024216846FCF701F92178002954
:103FC00008D18DF8001001218DF8011069462846AE
:103FD0004AF43AD109B030BD10B50B4C47202070DF
:103FE000607800280ED14FF0E0200069C00701D1B1
:103FF00007F004FF01206070BDE810400321034872
:1040000012F03EBF10BD00001C448000A0F203016E
:1040100038B50023009300220068B0F1204F03D090
:104020000B4CA04200D10122012901D101200090B6
:10403000084902EB820001EB8002127C02B9009376
:1040400051F82010002901D06846884738BD00008B
:10405000001000A0DC0481002DE9F04105468846EF
:104060001746002F04D0286820B10F20BDE8F0814A
:104070000120FBE7EFF311840220FDF740FE064626
:10408000FDF768FE401C012181407018C0B280F32A
:10409000118800F067F80646FF2E0DD03A464146DB
:1040A000304600F073F8084800EB46102860E0B294
:1040B00080F311880020D9E700202860E0B280F367
:1040C00011880B20D2E70000080581002DE9F0419E
:1040D00005462C68002C31D0EFF311860220FDF745
:1040E0000EFE0746FDF736FE401C01218140781880
:1040F000C0B280F311880021A160E160AB20607044
:10410000002727702F60144D6868A0421ED100F070
:1041100025F806F09DFDA0B1D0E90421D5E90434CD
:10412000D21A61EB0401C5E902216860A86857F45E
:1041300093D70146012007F0BDFE07E00120BDE84E
:10414000F0812F706F60012054F498D5F0B280F3A5
:1041500011880020F3E700002808810001210320D6
:1041600007F0A8BE0020084901EB401212782AB1DE
:10417000401CC0B21928F7D3FF20704701EB401153
:1041800001220A707047000008058100024B03EB12
:104190004010C2618170704708058100F8B504467F
:1041A000EFF311850220FDF7AAFD0646FDF7D2FDCB
:1041B000401C012181403144C8B280F3118800279E
:1041C000009734B16078AA2807D0E8B280F311884C
:1041D000F8BDE8B280F31188F8BDAB206070002113
:1041E000A160E160294E7068A0424BD1FFF7B6FF95
:1041F00069464FF00040E0F7FFDE57F40BD600EEC3
:10420000100A00999FED221AF8EE400A00EE101AEB
:10421000B8EE400A20EE010A80EE201ABCEEC10A78
:1042200010EE100AD6E902321B1ABA4100D2B06869
:10423000491C06D1C81E174908601A20FDF752FD17
:104240000020B168081AD6E9042110187941C6E99E
:10425000040106F0FDFC88B1D0E90421D6E904345C
:10426000D21A61EB0401C6E902217060B06857F40C
:10427000F3D60146012007F01DFE03E03770012050
:1042800054F4FCD4E8B280F31188F8BD280881000A
:104290000024744944C500A0F0B595B0044694F8D4
:1042A00035008DF82C000F270C970A200D904FF445
:1042B00080100E9000250F95001310901195129507
:1042C0001395149500210BA8FEF7B2FD21784D221D
:1042D00011FB02F1264E06EB8101A1F8980000289F
:1042E00002DA042015B0F0BDFEF792FD21784D22D0
:1042F00011FB02F106EB81010863217811FB02F149
:1043000006EB8101091DC16294F836008DF80400A6
:104310000B20029003974FF400100490C0120590F8
:104320000695079508950995A0200A90002101A8F7
:10433000FEF77EFD21784D2211FB02F106EB810193
:10434000A1F89A00002801DA0420CBE7FEF760FD0F
:1043500021784D2211FB02F106EB8101486321789F
:1043600011FB02F106EB8101091DC1620020B9E7D2
:10437000540181007CB50224304B02689A4201D17D
:10438000002403E02E4B9A4200D101248DF8001046
:104390002C4D002281B101291DD0022932D00329E0
:1043A0003ED0042907D14D20444355F8241000295C
:1043B00001D0684688477CBDC06B01904D204443C6
:1043C00005EB840080F8302155F824100029F2D044
:1043D000684688477CBD018C408C081AADF8040003
:1043E000204600F065F94D20444305EB840090F829
:1043F00030010028EED155F824100029EAD0684693
:1044000088477CBD018D408D081AADF804004D2011
:10441000444355F824100029F3D0684688477CBDF2
:104420004D20444305EB840080F8302155F82410DA
:104430000029F4D0684688477CBD000000C600A073
:1044400000C700A0540181002DE9F8434D21404AE6
:10445000414302EB8104271D022876D294F89C0088
:10446000002872D0FFF7B8FD94F89C0001286CD1A9
:1044700084F8310194F86420012A4DD00025D4E954
:1044800003010144207D00F00100C01D0E1860688A
:10449000C16FC1F380010029FAD0BAB1DFF8B4804E
:1044A0006D1C201D07F089FE102808D0A068D8F8E0
:1044B0000010B1FBF0F07043B5EBC01FF0D904F170
:1044C000A006304613F06CF985B21EE0A68CE58C90
:1044D000201DE4F7E1DCA019411BB031201D41F2A1
:1044E00088332A46E4F7DADCE9E7304601226946F8
:1044F00013F064F96068C16FC1F340010029FAD07C
:104500009DF8001001606D1EADB2002DEDD130465A
:1045100013F046F90028D4D16068C16FC1F380015F
:104520000029FAD094F8640001280BD0EFF3108131
:10453000012080F310883868426842F082024260AD
:1045400081F31088002084F83101BDE8F883000071
:1045500054018100644280002DE9F04389B0044693
:104560000F4615462678002C05D0022E05D30820CC
:1045700009B0BDE8F0830520FAE794F8340001287B
:1045800000D09DB1FFF728FD242204F110016846F8
:10459000FBF7FCFD211DA06C0EC916F087FF00285B
:1045A000E6D194F83400022802D010E00420DFE7BE
:1045B0000EB10820DCE7EFF31088012080F31088AB
:1045C0002046FFF769FE88F310880028D0D194F8C0
:1045D0003400DFF8A08001280ED04D20704308EB96
:1045E000800006CDA03013F0CFF8234DA857E4F794
:1045F0004FDCA857E4F74EDC4D2206FB02F008EB37
:10460000800514F8341F814605F8641FA078A8704F
:104610006078343C6870643D05F168003022211DEB
:10462000FBF7B4FD48F8297005F10800182204F1E1
:104630003801FBF7ABFD1048001D50F826006860FC
:10464000281D07F0A5FD281D07F0C0FD0B4C012615
:10465000207850B9267008480321143012F010FC5D
:104660006080002801DA042082E785F89C60002041
:104670007EE700005401810080F2030118448000AD
:1046800010B502280FD271B16AB14D246043074CB6
:1046900004EB800090F89C402CB1001DE4F700DC96
:1046A0000028FFD110BD042010BD0000540181007E
:1046B0002DE9F04105464D201F49684301EB800478
:1046C00004F1A006304613F06BF882B2174692B19F
:1046D00094F8310101280ED04D204543164800EBD7
:1046E0008505B035802A0BD329463046802213F049
:1046F00065F8802708E0002084F83001BDE8F081EB
:104700002946304613F05AF894F8640018B102288C
:1047100009D00420F2E72946201D3A46E4F7C2DB1F
:104720000028EBD106E02946201D3A46E4F7BCDB21
:104730000028E3D10020E1E75401810070B505466F
:10474000022D15D2A1B19AB14D20164B684303EB4F
:10475000800494F89C0058B194F86400012807D0B4
:1047600004F1A00013F06EF894F8300110B117E0D6
:10477000042070BD94F8310190B994F89C00012890
:104780000ED16068D0F8980050B1012084F8300153
:104790002846FFF78DFF18B1002184F8301170BD55
:1047A000002070BD5401810010B502280FD271B1F4
:1047B0006AB14D246043074C04EB800090F89C40A4
:1047C0002CB1001DE4F76ADB0028FFD110BD0420E6
:1047D00010BD0000540181002DE9F04106460C4651
:1047E000174604F10805204650F4E6D7C3B21B482B
:1047F000E1184268914202DD0320BDE8F0811849CA
:10480000184A006809681268891A081A001FE9180E
:1048100081421CD94FF4004513A229460020E4F739
:1048200035DB02F037FA30B118A229460020E4F750
:104830002DDB0820E1E71DA229460020E4F726DB56
:104840003A4621463046BDE8F04117F091BB3A4662
:1048500021463046BDE8F04117F08ABBD8328000CF
:10486000D0238000CC238000523A353A4E56445330
:104870002061726561206973206265696E672063DB
:104880006F6D7061637465642E0D0A00523A353A9B
:10489000436F6D70616374696E67204E5644532098
:1048A0006661696C65640D0A00000000523A353A91
:1048B000436F6D70616374696E67204E5644532078
:1048C0007375636365737366756C0D0A0000000091
:1048D00038B50EA0006800900D480078022801D07D
:1048E000002038BD00246D46A91C68460EF058FC17
:1048F00018B99DF80200C00705D0641CE4B2032C6F
:10490000F2D3012038BD002038BD00000124010091
:10491000404180007CB50D4600220092019269461C
:10492000E4F7C4DA044634BB4FF420516846E4F798
:10493000BFDAB8B942F601016846E4F7B9DA88B9D6
:1049400042F603016846E4F7B3DA58B942F60201C9
:104950006846E4F7ADDA28B94FF424516846E4F725
:10496000A7DA08B1062406E00098C5F30B01808899
:1049700008430099888020467CBD00002DE9F04165
:1049800005460C46FF26217A1E2905D022480279C9
:10499000521E52B200683AE004F108012846E4F7DA
:1049A00089DA064635E010F832308B422DD11B4EA5
:1049B00056F82500406F30B300273B4618A240212F
:1049C0000020E4F763DA062000EB0520E4F774DA50
:1049D000C00605D5002717A240210020E4F756DACB
:1049E00021460C3956F825007430E4F767DA0020C8
:1049F000A08001266FB115A24021E4F747DA2846CE
:104A0000E4F75EDA05E00127D7E7521E52B2002A2A
:104A1000C9DA3046BDE8F0817C058000C40E800014
:104A2000523A333A657865637574653D3078257818
:104A30000A000000523A333A636F6E6E6563742069
:104A40006E6F742063666D0A00000000523A333ABC
:104A5000737461727420657865637574650A00000B
:104A60000348024901600D2141607047B4F603011B
:104A70007C0580002DE9FF5F81460F460024A24699
:104A8000CDF808A0CDF80CA0584850F829006030A7
:104A9000E4F718DA80463D1F79882888544BCDE921
:104AA000001054A240210020E4F7F0D92888E8BB88
:104AB0004846E4F709DA401E2880002611E007EB9B
:104AC000460002AB828800214846E4F7FFD9C4B211
:104AD000CDF808A0CDF80CA00CB1B0463BE0761C98
:104AE000B6B27888B042EAD835E007EB48006B46AA
:104AF000818801AA4846E4F7EBD9C4B23CBBBDF8B3
:104B000004002988884200D3084686B2022106F1B3
:104B10000800E4F7DFD98346ABF8046032460BF1B6
:104B200006000099FBF732FB304800E013E050F834
:104B3000290059466030E4F7C1D94846E4F7CCD99A
:104B40002888801B288008F101081FFA88F8CDF812
:104B500008A0CDF80CA07888404503D9288808B172
:104B6000002CC2D044BB4846E4F7AED92988401A8D
:104B7000401E86B20025062000EB09230F220421E7
:104B800048460096E4F7AAD98246AAF80260174878
:104B900050F82900066E0AE00AEB0500B288001DF5
:104BA000B11DFBF7F3FAB088284485B23668002EB1
:104BB000F2D15046E4F794D94CB1062C07D007EB5C
:104BC00048003978828823464846E4F78BD9084B59
:104BD00014A2402100200094E4F758D9062C03D0F9
:104BE000002004B0BDE8F09F0120FAE7C40E800069
:104BF0001CF70301523A333A5B25735D20656E74EE
:104C000065722C206E625F68616E646C653D307801
:104C100025782C2072655F6C656E3D307825780AAA
:104C200000000000523A333A5B25735D20657869D5
:104C3000742C207374617475733D307825780A0084
:104C40003EB500200290134C6420207002A802F0B0
:104C50004FFC18B99DF80800A02806D062202070EB
:104C600002A802F045FC10B105E000203EBD9DF811
:104C70000800A0280CD008A0D921CDE900100B4BCA
:104C80000BA216A10220FEF74FFF4FF0FF303EBDF2
:104C900000203EBDF14180006D65746572696E67EC
:104CA0002061626E6F726D616C000000B3EB0301F6
:104CB0002E2E5C5372635C6D61786579655F6472FA
:104CC00069766572735C7372635C6D617865796532
:104CD0005F6377323231782E630000004E4F5F54AD
:104CE000414700003EB505461A20114B1B789942FA
:104CF0001DD801EB81030F4901EBC304627104EB82
:104D000045014989012912D100208DF80000221D9A
:104D10002189022011F07AFFADF802000120ADF8E0
:104D20000400641D02946946284601F01AF83EBD4D
:104D3000EC458000441781002DE9F84F074689466D
:104D400016464FF0000A0024304611F094FF002868
:104D50002BD01E4DDFF878800FE004EB840005EBCC
:104D6000C000031D01890522484611F06AFF8246F2
:104D7000BAF1000F05D1641CE4B298F80000844237
:104D8000EBD3BAF1030F12D000208DF800009DF88C
:104D90000000002809D004EB840055F830100029E9
:104DA00003D08DF8017068468847BDE8F88F04EBA2
:104DB000840005EBC00000EB47004681012E03D0C4
:104DC00002208DF80000E2E70120FAE74417810095
:104DD000EC45800010B588B00F208DF81C00002035
:104DE0008DF81D000690012106A800F0ADF80446DC
:104DF000002C09D01422054901A8FBF7C7F9ADF82A
:104E0000084001A8FEF796F808B010BDDCD90301F0
:104E10002DE9F0418EB01BA000680D904FF0000806
:104E20002C2101A8FBF7CBF90024174E174F23E0E4
:104E300000200C900CA901910DA9029104EB8401B2
:104E400006EBC105291D039105218DF810108DF881
:104E50002E008DF82F000E48059001A845F47AD356
:104E600080465FEA080002D00EB0BDE8F0810198EC
:104E700000882881641CE4B238788442D8D3404644
:104E8000F2E700000F18000044178100EC45800095
:104E90000CF403012DE9F04385B081460E78ADF89E
:104EA000006000278DF804700024254DDFF8948001
:104EB0000CE004EB840005EBC002131D11890522F0
:104EC000304611F0BEFE28B9641CE4B298F8001018
:104ED0008C42EED3012102280ED0032815D00428DD
:104EE0001FD0ADF802708DF804106946484600F0F6
:104EF00046FF05B0BDE8F083ADF8021004EB840076
:104F000005EBC000401D0290EFE70220ADF8020063
:104F100004EB840005EBC00000EB49000A3002906E
:104F2000E3E70720ADF8020004EB840005EBC001C5
:104F30001E3103A811F0A9FE03A80290D5E70000D6
:104F400044178100EC458000F0B4002804D001290A
:104F500004D90120F0BC70470220FBE700220A4D73
:104F600009E000EBC20402EB820305EBC30350CC63
:104F700050C3521CD2B28A42F3D304480170F0BC31
:104F8000034849F4F192000044178100EC45800089
:104F900034F403012DE9FC4707460E46B6F80080BD
:104FA00000200024ADF8008000218DF80210214D72
:104FB000DFF884900CE004EB840005EBC000031DD7
:104FC00001890522404611F03CFE28B9641CE4B278
:104FD00099F800108C42EED3032818D001208DF8E8
:104FE00002009DF8020001280BD09DF8040040B19A
:104FF00004EB840055F8301019B18DF8057001A844
:1050000088476946384600F0C9FEBDE8FC87B01DF8
:1050100009F0A8FA04EB840105EBC10101EB47019B
:105020004881012803D002208DF80400D9E701202F
:10503000FAE7000044178100EC45800070B50D4B85
:1050400002225A7101241A89824201D1204670BD80
:10505000904201D8188107E0851A182D03DD183217
:105060001A81002400E018811889FCF7A1FA204673
:1050700070BD00000041800010B502F00DFCC0B210
:1050800003498968C831B1F5617F00D9012010BD9D
:1050900024FA80007CB5FCF713FA1A4C0025F0B115
:1050A0002078401CC0B22070032807D2E06902B00B
:1050B0000022BDE870406421DFF7739E657112A085
:1050C0004FF47271CDE90010134B14A21CA1022001
:1050D000FEF72AFDBDE87C40642004F095B800F09E
:1050E000F1F81920208103211820FFF7A7FF00F015
:1050F00063FB04481C30FEF7E9FF002800D1E5619E
:105100007CBD0000004180006368617267652061BA
:10511000626E6F726D616C0034CA03012E2E5C5397
:1051200072635C6D61786579655C7372635C6D61F7
:10513000786579655F626174746572792E630000C9
:105140004E4F5F544147000010B586B01448C06907
:1051500000280CD013A040F2EB31CDE90010184B21
:1051600018A221A10220FEF7DFFC06B010BD0C48FA
:105170001F4A00211C30FEF76FFF044654B1142271
:105180000F49213101A8FBF701F8ADF8084001A84B
:10519000FDF7D0FE06B01420BDE8104000F02AB89C
:1051A00000418000637265617465206368617267A5
:1051B0006520696E6974206661696C656400000031
:1051C00053CA03012E2E5C5372635C6D617865795E
:1051D000655C7372635C6D61786579655F6261744B
:1051E000746572792E6300004E4F5F544147000092
:1051F00095500201034B00221A705A710146D8697A
:10520000DFF7CF9D0041800030B587B02648274D9D
:105210000078002807D000224FF47A71A869DFF7E0
:10522000C0DD07B030BD0024069406A8FCF744F9A1
:105230000028F6D102940394049405949DF8182054
:105240001BA102A8FCF728FD02A80CF0F7FA9DF8B4
:105250001800C0F3C10103290FD081071DD40194A8
:1052600001A816F07FFDBDF80400A0F51541203916
:105270000DD00F2000F092FBD3E71148A9890068F8
:1052800064308842CDD9012000F088FBC9E70022B4
:105290006421A869DFF785DDC3E7C007C1D00C2012
:1052A00000F07CFBBDE70000C541800000418000AC
:1052B00063686720696E743D253032580000000035
:1052C00024FA800010B586B00CF032FB094A0021A8
:1052D0000948FEF7C1FE0446002C09D014220749F4
:1052E00001A8FAF753FFADF8084001A8FDF722FE28
:1052F00006B010BD095202011841800020CA030106
:105300000146024800228069DFF74B9D0041800082
:1053100010B502F0E9F9C0B210BD0000F0B585B0DB
:105320003E493FA00BF0A2FC0021049100910191A5
:105330000291039101253C4802786AB1017004A9E9
:105340000A2001F0B3FF9DF8102038A16846FCF751
:10535000A3FC68460CF072FA02F09EFA364E50B189
:10536000002264213069DFF71CDD2C4933A00BF0EB
:105370007DFC05B0F0BD00F081FB7079364F374CF5
:10538000022806D0397840F6485049B16168E1B149
:1053900027E03348007820BB00F0AAFA054620E059
:1053A000616869B92168814203D39DF81000400704
:1053B00006D51A492BA00BF059FC13F02DF9D8E7AC
:1053C00016492CA00BF052FCD3E72168814208D289
:1053D0002EA16846FCF760FC68460CF057FA13F003
:1053E0001BF92D4960680978884204D03878022872
:1053F00001D314F055FE41F28831A068B0F5B47FB6
:1054000000DC0DB94FF4FA6100223069DFF7C9DC26
:10541000024922A00BF02AFCABE700009EC9030161
:105420003C2573203E0000003C4180006D20696EE9
:10543000743A257800000000004180003C2F25735D
:10544000202B6572724063775F7570646174655F6D
:1054500064617461203E00002041800024FA8000D5
:10546000C54180003C2F2573206C6F775F706F778C
:1054700065723E003C2F2573206D657465725F7305
:105480007573705F6361703E000000006C6F772081
:10549000706F776572000000524180003C2F2573C9
:1054A000203E000010B586B00D480069002811D1DB
:1054B0000B480C4A00211030FEF7CEFD04464CB1DB
:1054C0001422094901A8FAF761FEADF8084001A8C5
:1054D000FDF730FD06B06420BDE8104000F006B8CE
:1054E000004180001D530201B8C9030170B5064692
:1054F000114D124912A0AA790BF0B8FB0024A8792B
:10550000032805D00D4914A00BF0B0FB204670BD58
:105510002869FEF743FE002231462869DFF741DCA7
:1055200004461CB1054917A00BF0A0FB03491CA0C1
:105530000BF09CFB204670BD0041800087C9030131
:105540003C257320626174744D6574657253746197
:105550007475733A25643E003C2F25732062617494
:10556000744D65746572537461747573213D424165
:1055700054545F4D455445525F4E4F524D414C3E41
:10558000000000003C2573206572726F72406170EC
:10559000705F74696D65725F73746172743E000050
:1055A0003C2F2573203E000001480069FEF7F6BD40
:1055B0000041800070B5414C414942A0A2790BF0F6
:1055C00055FBA079002510B102282DD059E03C49A7
:1055D00042A00BF04BFB02F001F8A8B138494AA0F9
:1055E0000BF044FB6078401CC0B26070032806D208
:1055F0006069BDE8704000226421DFF7D29B30492A
:1056000047A00BF033FB3CE0642015F017FC0A20A8
:1056100010F00CFAA5700220A0716069BDE870401E
:1056200000226421DFF7BD9B254942A00BF01EFB41
:1056300005F0EEF9E8B1A078401CC2B2A270142ABD
:1056400010D21F4947A00BF011FBA078042802D20A
:105650004FF47A7100E064216069BDE87040002277
:10566000DFF79F9B164946A00BF000FB0120A071BD
:1056700007E00320A071FFF715FF0DF063FA10F0AB
:1056800077FC4648007838B90D4945A00BF0EEFA92
:1056900042F6E0600CF0A8F80FF0E0FE0A2003F0FC
:1056A000B3FD06481430FEF711FD00B96561BDE891
:1056B000704003493EA00BF0D9BA000000418000C1
:1056C000CCC903013C257320626174744D65746517
:1056D000725374617475733A25643E003C257320DF
:1056E000626174744D657465725374617475733A54
:1056F000424154545F4D455445525F41424E4F52D2
:105700004D414C3E000000003C2573207265742121
:105710003D4357323231585F5245545F4F4B3E0044
:105720003C2573206D657465725F61626E6F726D8A
:10573000616C3E003C257320626174744D65746534
:10574000725374617475733A424154545F4D4554B9
:1057500045525F5645524946595F434F4E46494769
:105760003E0000003C257320626174744D657465D1
:1057700072566572696679436E743A25640000005A
:105780003C2573206D657465725F76657269667914
:105790005F6661696C65643E000000002041800026
:1057A0003C257320735F746F5F6164763E00000078
:1057B0003C2F2573203E000010B586B0154916A079
:1057C0000BF054FA1648406930B106B01149BDE8F3
:1057D000104014A00BF04ABA11481B4A00211430A3
:1057E000FEF73AFC044654B114220A49223101A8BA
:1057F000FAF7CCFCADF8084001A8FDF79BFB32207E
:1058000000F028F806B00349BDE810400FA00BF0E7
:105810002DBA0000EAC903013C2573203E000000B8
:10582000004180003C2F257320626174745F6D65B8
:105830007465725F696E69745F6576656E745F69C1
:1058400064213D4E554C4C00B55502013C2F25734B
:10585000203E0000034B00225A709A71014658699D
:10586000DFF79F9A0041800070B58AB004460F4E62
:10587000B089A04217D0A4F561600F2190FBF1F030
:10588000032101EB8000C5B22846FBF7B0FE0028DB
:1058900009D1B4812B46224605A101A8FCF7FCF9E9
:1058A00001A80BF0F3FF0AB070BD000000418000BA
:1058B00063686720766F6C3A25646D762C2072657C
:1058C000673A25780000000010B5084841790129A1
:1058D00005D11921018103211820FFF7AFFB14F036
:1058E00021FCBDE810406420FFF700BE00418000AD
:1058F00070B5182441F22115254E0023254AB168C0
:10590000642901D2D37039E0A1F16400B0F5B47F0D
:1059100024D2C82091FBF0F078B10020548931687E
:10592000A14200D95181518941F25E061A4CB1421F
:1059300005D800EB4000245C0EE00120EEE741F2C8
:10594000CC06B14204D800EB40002044447803E088
:1059500000EB400020448478D3700FE0A1F5E6719D
:10596000462908D2D078401CC0B2D070052805D98D
:1059700041F2040502E0032000F010F82846FFF78A
:1059800073FF2046BDE870400621FFF757BB0000BB
:1059900024FA80000041800038C9030170B58EB040
:1059A0000446204D00262E816E8103211820FFF72A
:1059B00045FBFBF756FD0120687114F0B3FB0E2C7C
:1059C0001ED0102C1CD00F2C1AD0112C18D028202F
:1059D0008DF8300017208DF83100134800798DF8CC
:1059E000320012480178A9B1067011A04FF49E71DF
:1059F000CDE90010114B12A21AA10220FEF794F873
:105A000022461AA103A8FCF747F903A814F0FCFBEF
:105A10000EB070BD03210CA816F0BBF916F0B0F95A
:105A2000EEE700000041800024FA8000D1418000B0
:105A3000747820656E2D6167696E670075C9030112
:105A40002E2E5C5372635C6D61786579655C737250
:105A5000635C6D61786579655F62617474657279A4
:105A60002E6300004E4F5F5441470000646973632A
:105A700068617267653D25640000000000B59BB059
:105A80000948007900280DD0084842698168CDE9AD
:105A90000012D0E9003206A102A8FCF7FDF802A826
:105AA00014F0B2FB1BB000BD0041800024FA80005E
:105AB000736F633A25642C763A25642C743A256416
:105AC0002C693A256C6400001FB50F4890F802015C
:105AD000002818D068462EF42DD4DDE900010B4CC7
